:020000040000FA
:100000000C9405030C942D030C942D030C94D60D25
:100010000C94D60D0C94D60D0C942D030C942D033A
:100020000C942D030C942D030C942D030C942D0390
:100030000C942D030C942D030C942D030C942D0380
:100040000C94340D0C942D030C94A40D0C947E0D83
:100050000C942D030C942D030C942D030C942D0360
:100060000C942D030C942D035C52D91CF382ACA488
:1000700089D88178EC16297B9D4F50FCE1B68E1211
:1000800009307DDBA6A5B5AA0975988864ACF7622E
:100090001BC0909DF0FCABFFC9115CE2064A2686AE
:1000A000D8D6D9D08CDE3059667539D2FB4273B2BE
:1000B000903FD7A39ED2C60CF4FAEF20F4DBAB310D
:1000C000D18674FD8F990566EA0C811363D7E930F8
:1000D000F961135A4F352DDC0A2E73305C382D4FE1
:1000E000310D0AED84A41800D20474308FE2690443
:1000F0006ED7BB07CF1CFF43AC00C0E3E80AF06833
:100100003FDD1745194543BD0177D750BDFD2BC1D4
:10011000A0493A134A4C6ACF05349170939345EE47
:10012000951A14843334A0DEDFF3FCD608B055975B
:10013000CF09A23BD17D3FD24AA7C7B01134466F49
:10014000AC82163E4BB51BF9CAC8B87ACD9EC49690
:1001500090ABE0813920B11003BEB65499140483EA
:10016000BA187A64EF90261DC7AC1306DEFE39EC90
:1001700083A1483B0EE2EC89418499BE9D35A3B929
:10018000FC6AD0D6F041BB2620003000637C777B30
:10019000F26B6FC53001672BFED7AB76CA82C97D83
:1001A000FA5947F0ADD4A2AF9CA472C0B7FD932614
:1001B000363FF7CC34A5E5F171D8311504C723C318
:1001C0001896059A071280E2EB27B27509832C1A5C
:1001D0001B6E5AA0523BD6B329E32F8453D100EDB6
:1001E00020FCB15B6ACBBE394A4C58CFD0EFAAFB9A
:1001F000434D338545F9027F503C9FA851A3408F62
:10020000929D38F5BCB6DA2110FFF3D2CD0C13EC79
:100210005F974417C4A77E3D645D197360814FDC0E
:10022000222A908846EEB814DE5E0BDBE0323A0AF2
:100230004906245CC2D3AC629195E479E7C8376D76
:100240008DD54EA96C56F4EA657AAE08BA78252E9B
:100250001CA6B4C6E8DD741F4BBD8B8A703EB56624
:100260004803F60E613557B986C11D9EE1F8981115
:1002700069D98E949B1E87E9CE5528DF8CA1890D04
:10028000BFE6426841992D0FB054BB16537461729A
:1002900074207365727669636500537461727420AB
:1002A0006E6F726D616C00D2072253A4F27468B352
:1002B0007A16EF557BD089A04E32BBA7139E46B06D
:1002C000B809833989FAE2FE7D7899BFEC47C530D9
:1002D0006F3A03D86CBEE48422DFEAE21B63C2AD4E
:1002E0004043B256EB458BC2377E8A74096C5F5827
:1002F0001C7F1944F96262F1BC562BD55BB077AF15
:100300006010A846F741F3DBD3AEA4DB0464109081
:10031000E1F0C00178E3FF0BD9027E851FA1234BDA
:100320006579206E6F7420666F756E6400F5D7D4A2
:10033000B575F08E4ECC699581FD89126C495E03CE
:100340004794931D7BF4E04313AD2EB4DB865E3EF1
:10035000EF9DFBB1FDFF72BD2B83B89D2F58B95A9D
:10036000AEF399DBD067C07215D96B39A1093EC5D0
:1003700019AF0F502D318053875C203E241BDF24A2
:1003800033EB29155B9DEEC01144B66F41E32B8F13
:1003900056B2641298C34A6A7B205FE8F9F791ED80
:1003A0000B3F49A448A5040636104C4F5720504F28
:1003B000574552004E6F206F7074696F6E207365E1
:1003C0006C65637465642000A50406E2046AA507F1
:1003D000069D1010281454A51306536F6E79456EB0
:1003E00065726779446576696365736BA504066811
:1003F00010D8A503061B36A5040601044BA5040668
:100400000F0041A50406080741A52A0620010000A7
:1004100082828282DA24DAB43A61CBDF61FD255D23
:100420000AEA7957476F2048616E647368616B65AB
:1004300020526571756573742069732076616C69EB
:100440006400496E76616C696420726571756573CC
:10045000742066726F6D20537973636F6E00880E1F
:100460002A94110926B20E53E22AE648AE9DC66EC2
:100470009ED6ECBCB121B7465D25037D6646A50539
:100480000610C306474F3A202020202020005A02A1
:1004900001A22920002820005053503A202020207B
:1004A0002000000000080002010000030407000013
:1004B00000000000000041726475696E6F3A200010
:1004C00052096AD53036A538BF40A39E81F3D7FBC9
:1004D0007CE339829B2FFF87348E4344C4DEE9CB13
:1004E000547B9432A6C2233DEE4C950B42FAC34E88
:1004F000082EA16628D924B2765BA2496D8BD1253E
:1005000072F8F66486689816D4A45CCC5D65B692E1
:100510006C704850FDEDB9DA5E154657A78D9D8485
:1005200090D8AB008CBCD30AF7E45805B8B34506A5
:10053000D02C1E8FCA3F0F02C1AFBD0301138A6BBF
:100540003A9111414F67DCEA97F2CFCEF0B4E673EF
:1005500096AC7422E7AD3585E2F937E81C75DF6E9D
:1005600047F11A711D29C5896FB7620EAA18BE1B03
:10057000FC563E4BC6D279209ADBC0FE78CD5AF4A9
:100580001FDDA8338807C731B11210592780EC5FEF
:1005900060517FA919B54A0D2DE57A9F93C99CEF4B
:1005A000A0E03B4DAE2AF5B0C8EBBB3C835399614C
:1005B000172B047EBA77D626E169146355210C7D8A
:1005C0000000000023002600290000000000240095
:1005D00027002A0000000000250028002B0004044A
:1005E00004040404040402020202020203030303DB
:1005F00003030102040810204080010204081020B7
:100600000102040810209A0EF71511241FBECFEF27
:10061000D8E0DEBFCDBF11E0A0E0B1E0E6EAFFE246
:1006200002C005900D92AE32B107D9F722E0AEE2DA
:10063000B1E001C01D92A23FB207E1F713E0C4E0B0
:10064000D3E004C02197FE010E949B16C330D1075E
:10065000C9F70E94830F0C94C6170C940000DB01AD
:10066000FC01242F3C91308311963C9111973183EA
:1006700012963C911297328313963C9113973383D1
:10068000245014963496243068F72CEF240F2695C6
:10069000269530E02F5F3F4F220F331F220F331F6D
:1006A0004370DB01A20FB31FFC01E20FF31F4150A7
:1006B00018F08D918193FBCF0895AF92BF92CF92A6
:1006C000DF92EF92FF920F931F93CF93DF936C0112
:1006D0007B018B01040F151FEB015E01AE18BF08F3
:1006E000C017D10759F06991D601ED91FC910190A5
:1006F000F081E02DC6010995892B79F7C501DF91BD
:10070000CF911F910F91FF90EF90DF90CF90BF900E
:10071000AF900895FC01538D448D252F30E0842F38
:1007200090E0821B930B541710F0CF960895019719
:100730000895FC01918D828D981761F0A28DAE0F06
:10074000BF2FB11D5D968C91928D9F5F9F73928F8D
:1007500090E008958FEF9FEF0895FC01918D828DB9
:10076000981731F0828DE80FF11D858D90E0089586
:100770008FEF9FEF0895FC01918D228D892F90E0DE
:10078000805C9F4F821B91098F739927089580E3A6
:1007900092E00E94BB0321E0892B09F420E0822F24
:1007A000089580E090E0892B29F00E94C703811111
:1007B0000C9400000895FC01A48DA80FB92FB11D61
:1007C000A35ABF4F2C91848D90E001968F73992787
:1007D000848FA689B7892C93A089B1898C91837065
:1007E00080648C93938D848D981306C00288F3895E
:1007F000E02D80818F7D80830895EF92FF920F938B
:100800001F93CF93DF93EC0181E0888F9B8D8C8DBC
:1008100098131AC0E889F989808185FF15C09FB7B0
:10082000F894EE89FF896083E889F9898081837073
:10083000806480839FBF81E090E0DF91CF911F9122
:100840000F91FF90EF900895F62E0B8D10E00F5F43
:100850001F4F0F731127E02E8C8D8E110CC00FB619
:1008600007FCFACFE889F989808185FFF5CFCE01B1
:100870000E94DB03F1CFEB8DEC0FFD2FF11DE35A4E
:10088000FF4FF0829FB7F8940B8FEA89FB89808134
:100890008062CFCF0F931F93CF93DF938C01D0E073
:1008A000C0E0F801EC0FFD1F6491662341F080E386
:1008B00092E00E94FD03892B11F02196F2CFCE0128
:1008C000DF91CF911F910F910895CF93DF93EC01AA
:1008D000888D8823B9F0AA89BB89E889F9898C9128
:1008E00085FD03C0808186FD0DC00FB607FCF7CFE4
:1008F0008C9185FFF2CF808185FFEDCFCE010E94E4
:10090000DB03E9CFDF91CF91089520917001309101
:1009100071012817390771F490916E0180916F0170
:10092000981741F0E0916E01F0E0E25DFE4F8081AA
:1009300090E008958FEF9FEF08950895EF92FF9252
:100940000F931F93CF93DF93DC015E968D919C9163
:100950005F97009779F481E090E013969C938E93D3
:10096000129790E080E0DF91CF911F910F91FF905F
:10097000EF9008955396ED91FC91549752962C91D7
:100980005297322F30951FB790964C919097042F25
:10099000027041FD6095F8944081002309F44CC039
:1009A000422B4083EC012197F1F71F961C921F9771
:1009B00048E0E62EF12C508160FF40C0522B50835E
:1009C0001F965C911F975F5F1F965C931F97EC01CA
:1009D0002197F1F7B70175956795415051F71E962C
:1009E0004C911E9741110BC01F964C911F9740FFD1
:1009F00028C0408143234083EC012197F1F71E96E4
:100A00004C911E97423051F41F964C911F9740FF16
:100A10001BC04081422B40830197F1F78081002366
:100A2000B1F0382330831FBF5E968D919C91019762
:100A3000F1F781E090E097CF4323B3CF5323508366
:100A4000C6CF4081422BD7CF40814323E4CF282B10
:100A50002083E9CF20917001309171012817390767
:100A600071F480916F0120916E0190E0805C9F4F46
:100A7000821B910960E470E00E946C16089590E07A
:100A800080E0089520917001309171012817390795
:100A9000B9F490916E0180916F01981789F0E091FF
:100AA0006E01F0E0E25DFE4F808120916E0130E04A
:100AB0002F5F3F4F2F73332720936E0190E00895EF
:100AC0008FEF9FEF089590E080E008952F923F927E
:100AD0005F926F927F928F929F92AF92BF92CF92CE
:100AE000DF92EF92FF920F931F93CF93DF9300D08B
:100AF00000D0CDB7DEB7FC014032510509F49AC0F1
:100B0000F8F44031510541F14831510509F48CC0E8
:100B100010828FEF0F900F900F900F90DF91CF9179
:100B20001F910F91FF90EF90DF90CF90BF90AF900B
:100B30009F908F907F906F905F903F902F9008953F
:100B4000403C510509F470C0411521E0520709F4F9
:100B500071C040385105E1F68AE0808340E1E42E1F
:100B6000F12C8F0160806394629480EF6822DE2C08
:100B70004E2DCF0103960E942F039E2C8E2CCC2449
:100B8000C394BE016B5F7F4F9BE1792E961408F0F2
:100B900071C0492D50E0FA013197E00FF11FCE01ED
:100BA0000196DC0121912D93A617B707D9F789107B
:100BB00049C029818D0CEA81F0E0E457FE4FE491B1
:100BC000EC25E983EB81F0E0E457FE4FE491EA8302
:100BD000EC81F0E0E457FE4FE491EB83E22FF0E08C
:100BE000E457FE4FE491EC83C7FE2AC0CC0CC72427
:100BF000FA0133961F01200E311E292D2D1930E0E8
:100C0000FC015190CF015101A41AB50AA20EB31EE6
:100C1000F501B080B524F101B1921F018A179B073D
:100C200079F7F4E09F0EB2CF8CE0808338E1E32EB9
:100C3000F12C97CF8EE0808320E2E22EF12C91CF31
:100C4000CC0CD6CFE0E2EE16F10491F6292D2F71EF
:100C5000203171F69C01F901B1909F01EB2DF0E07C
:100C6000E457FE4FB490F9013197B0822A173B0741
:100C700091F7BECF80E04ECFCF93DF93FC01EB0125
:100C8000DA019C01205F3F4F88819C9189278083F6
:100C9000898111969C911197892781838A81129667
:100CA0009C911297892782838B8113969C9113972D
:100CB00089278383349624961496E217F30721F745
:100CC000DF91CF9108952F923F924F925F926F9252
:100CD0007F928F929F92AF92BF92CF92DF92EF92CC
:100CE000FF920F931F93CF93DF93CDB7DEB7CF540F
:100CF000D1400FB6F894DEBF0FBECDBF1C018B01F3
:100D00006A0182E8C850DF4F8883C85FD04084E81A
:100D1000C750DF4F8883C95FD04088E8C650DF4F97
:100D20008883CA5FD0408FE9C550DF4F8883CB5F8F
:100D3000D04092E9C450DF4F9883CC5FD04094E913
:100D4000C350DF4F9883CD5FD04098E9C250DF4F4A
:100D50009883CE5FD040C150DF4F8883CF5FD040B3
:100D600082EAC050DF4F8883C050D14084EACF5F11
:100D7000DE4F8883C150D14088EACE5FDE4F888342
:100D8000C250D1408FEACD5FDE4F8883C350D1403F
:100D900082EBCC5FDE4F8883C450D14084EBCB5FC5
:100DA000DE4F8883C550D14088EBCA5FDE4F888311
:100DB000C650D14086E090E09B838A83FE01E95CC7
:100DC000FE4F80E1DF011D928A95E9F740E150E096
:100DD000B601E653F1407F01CF010E94660580E233
:100DE00090E0CA50DF4F99838883C65FD04040E8C7
:100DF00050E0B601C7010E9466059801205E3F4F92
:100E0000C25BDE4F39832883CE54D140C95BDE4FAD
:100E1000F982E882C754D1408BE1F82EC25BDE4FE5
:100E200088819981CE54D1400817190709F446C228
:100E300040E1B101CE01895D9E4F0E942F0349819F
:100E4000442309F43BC290E1499FA0011124A4E08E
:100E5000B0E0AC0FBD1F4A0F5B1FB101CE01895E30
:100E60009E4F0E943C06C95EDE4FE881C751D140CB
:100E7000F0E0E054FB4FE491C95EDE4FE883C751D8
:100E8000D140C55EDE4FE881CB51D140F0E0E05467
:100E9000FB4FE491C55EDE4FE883CB51D140C15E8C
:100EA000DE4FE881CF51D140F0E0E054FB4FE491B8
:100EB000C15EDE4FE883CF51D140CD5DDE4FE8818A
:100EC000C352D140F0E0E054FB4FE491CD5DDE4FE2
:100ED000E883C352D140CC5DDE4F8881C452D140FB
:100EE000C05EDE4FE881C052D140F0E0E054FB4FDD
:100EF000E491CC5DDE4FE883C452D140C45EDE4F46
:100F0000E881CC51D140F0E0E054FB4FE491C05E69
:100F1000DE4FE883C052D140C85EDE4FE881C85141
:100F2000D140F0E0E054FB4FE491C45EDE4FE88333
:100F3000CC51D140E82FF0E0E054FB4FE491C85E83
:100F4000DE4FE883C851D140C75EDE4F8881C9516A
:100F5000D140CF5DDE4FE881C152D140F0E0E05496
:100F6000FB4FE491C75EDE4FE883C951D140E82FC3
:100F7000F0E0E054FB4FE491CF5DDE4FE883C152D7
:100F8000D140C35EDE4F8881CD51D140CB5DDE4F75
:100F9000E881C552D140F0E0E054FB4FE491C35EDC
:100FA000DE4FE883CD51D140E82FF0E0E054FB4F15
:100FB000E491CB5DDE4FE883C552D140C65EDE4F83
:100FC0008881CA51D140C25EDE4FE881CE51D14006
:100FD000F0E0E054FB4FE491C65EDE4FE883CA5177
:100FE000D140CE5DDE4FE881C252D140F0E0E05406
:100FF000FB4FE491C25EDE4FE883CE51D140CA5D23
:10100000DE4FE881C652D140F0E0E054FB4FE4915E
:10101000CE5DDE4FE883C252D140E82FF0E0E054CD
:10102000FB4FE491CA5DDE4FE883C652D14089810F
:101030008150B0E18B9FC0011124E1E0F0E0EC0FA2
:10104000FD1FE80FF91FC75BDE4FF983E883C95422
:10105000D140C95BDE4F28813981C754D140C75B7D
:10106000DE4F88819981C954D1402817390709F486
:10107000E9C0AC014D5F5F4FBE01695E7E4FCE019E
:10108000895F9E4F0E943C06DE01A95FBE4F9E0114
:10109000295E3E4FC55BDE4F39832883CB54D14058
:1010A00065E070E09C9111968C91119712963C919D
:1010B000129713962C911397D92EDD0C97FDDF24F0
:1010C000B82EBB0C87FDBF24C32ECC0C37FDCF241C
:1010D000E22EEE0C27FDEF244D2D440FD7FC4F25BB
:1010E0004B2C440CB7FE04C05B2D550F452E4F24EE
:1010F0009C2C990CC7FC9F24AE2CAA0CE7FCAF24B7
:10110000842E880C47FF04C0542F550F852E8F2442
:10111000542D550F47FC5F25F92DFF0F97FCFF2538
:10112000EA2DEE0FA7FCEF25792E7824582E5526B0
:10113000632E6F26C35BDE4F6882CD54D140622E92
:101140006E26482554259F26AE26E32FED25EB2558
:10115000E427E525E925E625F0E0E054FB4F34914E
:10116000C55BDE4FE881F981CB54D1403083E22F5B
:10117000EB25EC25E725E527C35BDE4F2881CD5421
:10118000D140E227EA25F0E0E054FB4FB490FB01A8
:10119000EF70FF2727E131E02C0F3D1FE20FF31F17
:1011A000B0829C259E254927542695246924E62D46
:1011B000F0E0E054FB4F6490FB013596EF70FF27A1
:1011C00027E131E02C0F3D1FE20FF31F6082E82F73
:1011D000ED25EE25E7255E27C35BDE4FE881CD5484
:1011E000D140E527AE26EA2DF0E0E054FB4FA49075
:1011F000FB013A96EF70FF27E20FF31FA0821496CF
:10120000C55BDE4F28813981CB54D1402C5F3F4FE5
:10121000C55BDE4F39832883CB54D1406C5F7F4F51
:101220006531710509F03ECFC75BDE4F888199813A
:10123000C954D1404097C75BDE4F99838883C95416
:10124000D14007CFAE014C5F5F4FBE01695E7E4F5C
:10125000C8010E943C06FE01E95CFE4FA801405F08
:101260005F4FCF01D8012C91308123272C93119609
:101270002C9111973181232711962C931197129657
:101280002C9112973281232712962C931297139642
:101290002C9113973381232713962C9334960C5F4C
:1012A0001F4F04171507F1F640E1BE01695D7E4F3F
:1012B0000E942F03B0E12B0E311CB0CDC15BDE4F7D
:1012C0000FB6F894DEBF0FBECDBFDF91CF911F9157
:1012D0000F91FF90EF90DF90CF90BF90AF909F90D5
:1012E0008F907F906F905F904F903F902F900895D8
:1012F0005F926F927F928F929F92AF92BF92CF92A6
:10130000DF92EF92FF920F931F93CF93DF93CDB7AE
:10131000DEB7C652D1400FB6F894DEBF0FBECDBFC8
:101320007C018B01BA0182E8C850DF4F8883C85F17
:10133000D04084E8C750DF4F8883C95FD04088E839
:10134000C650DF4F8883CA5FD0408FE9C550DF4F5A
:101350008883CB5FD04092E9C450DF4F9883CC5F45
:10136000D04094E9C350DF4F9883CD5FD04098E9D7
:10137000C250DF4F9883CE5FD040C150DF4F88838B
:10138000CF5FD04082EAC050DF4F8883C050D14049
:1013900084EACF5FDE4F8883C150D14088EACE5FB8
:1013A000DE4F8883C250D1408FEACD5FDE4F888305
:1013B000C350D14082EBCC5FDE4F8883C450D14014
:1013C00084EBCB5FDE4F8883C550D14088EBCA5F8A
:1013D000DE4F8883C650D14086E090E09B838A83AD
:1013E000A901CE0101960E9466058981882309F42E
:1013F00092C1AE014C5F5F4FB701CE01895E9E4F37
:101400000E943C06FF24F3942BE1E22E8981F8161A
:1014100008F08DC09E01295E3E4FDE01A95FBE4FE0
:10142000AD01405F5F4F8FE0982E9AE0A92E65E0F6
:10143000BA2E7B2FE7E1F1E0EC0FFD1FE60FF11D67
:10144000C0806C5F6F70E7E1F1E0EC0FFD1FEA0D0B
:10145000F11D808084E08A0D8F70A82EE7E1F1E015
:10146000EC0FFD1FE90DF11D908184E0890D8F7057
:10147000982EF9018081E82FF0E0E457FE4FD490D8
:10148000EC2DF0E0E457FE4FC490E82DF0E0E45777
:10149000FE4F8491E92FF0E0E457FE4F9491ED2D3B
:1014A000EE0FD7FCEE255C2C550CC7FE04C0FC2DBE
:1014B000FF0F5F2E5E24782E770C87FD7E24892E09
:1014C000880C97FD8E246C2C682669266E26652470
:1014D0006C92FD2DF827F927F525F7251196FC9339
:1014E0001197DC249D259725982512969C93129799
:1014F0008D258E27882513968C9313972C5F3F4F4D
:1015000014964A175B0709F095CFF0E1FF9EA00102
:10151000112484E090E08C0F9D1F480F591F6B2D04
:10152000CE01895E9E4F0E943C06F3946FCFC95E48
:10153000DE4FE881C751D140F0E0E457FE4FE4911F
:10154000C95EDE4FE883C751D140C55EDE4FE881FA
:10155000CB51D140F0E0E457FE4FE491C55EDE4F41
:10156000E883CB51D140C15EDE4FE881CF51D140FD
:10157000F0E0E457FE4FE491C15EDE4FE883CF51C7
:10158000D140CD5DDE4FE881C352D140F0E0E45759
:10159000FE4FE491CD5DDE4FE883C352D140C85E7B
:1015A000DE4F8881C851D140C45EDE4FE881CC5106
:1015B000D140F0E0E457FE4FE491C85EDE4FE8838F
:1015C000C851D140C05EDE4FE881C052D140F0E04A
:1015D000E457FE4FE491C45EDE4FE883CC51D14026
:1015E000CC5DDE4FE881C452D140F0E0E457FE4FBD
:1015F000E491C05EDE4FE883C052D140E82FF0E0B6
:10160000E457FE4FE491CC5DDE4FE883C452D140F5
:10161000C75EDE4F8881C951D140CF5DDE4FE88182
:10162000C152D140F0E0E457FE4FE491C75EDE4F77
:10163000E883C951D140E82FF0E0E457FE4FE49130
:10164000CF5DDE4FE883C152D140C35EDE4F88815B
:10165000CD51D140CB5DDE4FE881C552D140F0E0A5
:10166000E457FE4FE491C35EDE4FE883CD51D14095
:10167000E82FF0E0E457FE4FE491CB5DDE4FE883C6
:10168000C552D140CA5DDE4F8881C652D140CE5D81
:10169000DE4FE881C252D140F0E0E457FE4FE491C2
:1016A000CA5DDE4FE883C652D140C25EDE4FE8819C
:1016B000CE51D140F0E0E457FE4FE491CE5DDE4FD5
:1016C000E883C252D140C65EDE4FE881CA51D140A4
:1016D000F0E0E457FE4FE491C25EDE4FE883CE5166
:1016E000D140E82FF0E0E457FE4FE491C65EDE4FB4
:1016F000E883CA51D14090E1F99EA0011124E4E0B1
:10170000F0E0EC0FFD1F4E0F5F1FBE01695E7E4FC4
:10171000C8010E943C06CA5DDE4F0FB6F894DEBFDA
:101720000FBECDBFDF91CF911F910F91FF90EF9032
:10173000DF90CF90BF90AF909F908F907F906F90F1
:101740005F9008951F93CF93DF93CDB7DEB7A19736
:101750000FB6F894DEBF0FBECDBF182F803120F436
:101760008AE891E00E944A04812F90E0B0E0A0E076
:1017700019A2FE01B196AC01BD014F705527662735
:10178000772724E0B695A795979587952A95D1F761
:101790004A301CF5405D42930097A105B10559F709
:1017A000309769F0DF010D900020E9F71197AD0146
:1017B0004E1B5F0BBF0180E392E00E945D0388E84F
:1017C00091E00E944A04A1960FB6F894DEBF0FBEC6
:1017D000CDBFDF91CF911F910895495CDCCF42E0EE
:1017E00050E06BE271E080E392E00C945D03CF93F4
:1017F000DF930E944A04EC010E94EF0B8C0F9D1FA7
:10180000DF91CF910895CF92DF92FF920F931F93B4
:10181000CF93DF931F92CDB7DEB7082FF62E198234
:10182000482F50E060EF71E08DEC92E00E945D0384
:10183000FF20A1F0E0EFF1E080E090E02191820F45
:101840009F5F0913FBCF8095898341E050E0BE0183
:101850006F5F7F4F8DEC92E00E945D0386EB94E01A
:101860000E944A0480EFC82E81E0D82E10E0F601D5
:1018700081916F010E94A20B1F5F0113F8CFFF201F
:1018800019F089810E94A20B0E94EF0B0F90DF914B
:10189000CF911F910F91FF90DF90CF900895CF933C
:1018A000DF93CDB7DEB7A0970FB6F894DEBF0FBEBB
:1018B000CDBFDC01198AFE017296CE0141969E01D0
:1018C0002F5D3F4F1192E217F307E1F7198224E0F1
:1018D0002A8328E02B832CE02C8321E02D8325E034
:1018E0002E8329E02F832DE0288722E0298726E018
:1018F0002A872AE02B872EE02C8723E02D8727E0FC
:101900002E872BE02F872FE0288BBE016F5F7F4F44
:10191000AC01FB012191BF012A0F3B2F311DF901C1
:101920002081FA012193AF018617970791F790E183
:10193000FE01719601900D929A95E1F7A0960FB66F
:10194000F894DEBF0FBECDBFDF91CF91089569300F
:1019500009F458C0A0F46330E1F140F46130A1F122
:1019600068F140E150E068E870E02CC06530D9F1E2
:10197000A8F16630E9F1683009F43FC008956F328C
:1019800009F459C060F46B3009F446C008F43FC054
:101990006C3009F446C06D3009F448C00895633BCB
:1019A00009F453C020F4673909F44AC00895693D29
:1019B00009F450C06B3E09F452C0089540E150E074
:1019C00068E670E00C94131640E150E068E770E0C0
:1019D000F9CF40E150E068E970E0F4CF40E150E039
:1019E00068EA70E0EFCF40E150E068EB70E0EACFEA
:1019F00040E150E068EC70E0E5CF40E150E068ED98
:101A000070E0E0CF40E150E068EE70E0DBCF40E115
:101A100050E068EF70E0D6CF40E150E068E071E060
:101A2000D1CF40E150E068E171E0CCCF40E150E03F
:101A300068E271E0C7CF40E150E068E371E0C2CFF7
:101A400040E150E068E471E0BDCF40E150E068E57E
:101A500071E0B8CF40E150E068E671E0B3CF40E11B
:101A600050E068E771E0AECF1F920F920FB60F9271
:101A700011242F933F938F939F93AF93BF938091A4
:101A8000EC019091ED01A091EE01B091EF01309148
:101A9000EB0123E0230F2D3758F50196A11DB11D51
:101AA0002093EB018093EC019093ED01A093EE0164
:101AB000B093EF018091E7019091E801A091E901D5
:101AC000B091EA010196A11DB11D8093E7019093A9
:101AD000E801A093E901B093EA01BF91AF919F9112
:101AE0008F913F912F910F900FBE0F901F901895DF
:101AF00026E8230F0296A11DB11DD2CF1F920F928F
:101B00000FB60F9211242F933F934F935F936F93D0
:101B10007F938F939F93AF93BF93EF93FF9380E354
:101B200092E00E94DB03FF91EF91BF91AF919F91F3
:101B30008F917F916F915F914F913F912F910F9076
:101B40000FBE0F901F9018951F920F920FB60F9215
:101B500011242F938F939F93EF93FF93E091400273
:101B6000F09141028081E0914602F091470282FDAE
:101B70001BC09081809149028F5F8F7320914A0230
:101B8000821741F0E0914902F0E0E05DFD4F958F52
:101B900080934902FF91EF919F918F912F910F9028
:101BA0000FBE0F901F9018958081F4CF1F920F9257
:101BB0000FB60F9211242F933F934F935F936F9320
:101BC0007F938F939F93AF93BF93EF93FF93E09196
:101BD0007001F0917101309749F0A089B189858534
:101BE00090A191FF14C09C918923A1F4FF91EF91E2
:101BF000BF91AF919F918F917F916F915F914F9125
:101C00003F912F910F900FBE0F901F9018959C91B0
:101C1000892361F7A589B6899C9187898095892355
:101C20008C93808D918D0197F1F7628D738DA089D2
:101C3000B189558538E020E0CB010197F1F7822F7B
:101C400090E095958795282F4C91452309F02068C1
:101C5000315091F780A181FD209580916F0190E036
:101C600001968F73992730916E01381799F0A091E2
:101C70006F01B0E0A25DBE4F2C9380936F01848D05
:101C8000958D0197F1F7A589B6898C919789892B54
:101C90008C93ACCF80A1816080A3F1CF90E0FC0158
:101CA000EE55FB4F2491FC01EE50FA4F3491FC01AC
:101CB000E252FA4FE491EE23C9F0222339F02330A7
:101CC00001F1A8F4213019F1223029F1F0E0EE0FF2
:101CD000FF1FEC52FA4FA591B4918FB7F894EC9195
:101CE000611126C030953E233C938FBF0895273065
:101CF000A9F02830C9F0243049F7809180008F7D09
:101D000003C0809180008F7780938000DFCF84B5FF
:101D10008F7784BDDBCF84B58F7DFBCF8091B00002
:101D20008F778093B000D2CF8091B0008F7DF9CFB4
:101D30003E2BDACF0F931F93CF93DF931092330292
:101D40001092320288EE93E0A0E0B0E0809334027B
:101D500090933502A0933602B09337022BE031E026
:101D6000309331022093300225EC30E030933D0275
:101D700020933C0224EC30E030933F0220933E025B
:101D800020EC30E0309341022093400221EC30E01F
:101D9000309343022093420222EC30E0309345021C
:101DA0002093440226EC30E0309347022093460211
:101DB0001092490210924A0210924B0210924C0269
:101DC0001092D0021092CF028093D1029093D2024F
:101DD000A093D302B093D4028DE191E09093CE0210
:101DE0008093CD021092E6021092E5021092E80272
:101DF0001092E7021092EA021092E9021092EC02AD
:101E00001092EB026091ED026E7F6D7F6093ED02A8
:101E10006695617081E0682783E00E944E0E45EF71
:101E200055E0FA01649181EE95E0FC0124912223B2
:101E300099F030E0220F331FF901E653FA4FA591D4
:101E4000B491F901EC52FA4F259134912FB7F894DF
:101E50003C91632B6C932FBFFA0144914093DF02B6
:101E6000FC018491E82FF0E0EE0FFF1FEC52FA4FD7
:101E7000859194919093E1028093E00204EF15E044
:101E8000F8012491C0EED5E0FE0184918823C9F0C9
:101E900090E0880F991FFC01E653FA4FA591B49189
:101EA000FC01EC52FA4F459154913FB7F8949C9144
:101EB000822F809598239C93FA01908189238083B7
:101EC0003FBF8091ED0281FD04C061E082E00E948D
:101ED0004E0E82E08093D902F80104910093DA0259
:101EE000FE01C491EC2FF0E0EE0FFF1FE054FA4F1B
:101EF000859194919093DE028093DD02DF91CF91E2
:101F00001F910F910895CF93DF93CDB7DEB7C55BD7
:101F1000D1090FB6F894DEBF0FBECDBF789484B55B
:101F2000826084BD84B5816084BD85B5826085BDD5
:101F300085B5816085BD80916E00816080936E0063
:101F40001092810080918100826080938100809155
:101F50008100816080938100809180008160809306
:101F600080008091B10084608093B1008091B000C6
:101F700081608093B00080917A00846080937A00C1
:101F800080917A00826080937A0080917A008160EB
:101F900080937A0080917A00806880937A00109212
:101FA000C1001092EA021092E9021092E802109227
:101FB000E7021092E6021092E50282E08093DB02D3
:101FC0008DEC90E09093EC028093EB029091D9021B
:101FD000963108F047C025E530E03093E6022093C3
:101FE000E5022BEC30E03093E8022093E7022CE28C
:101FF00031E03093EA022093E9022091680084E006
:10200000983048F031E09E3008F430E081E001C0C3
:10201000880F3A95EAF7822B809368002DE630E02E
:10202000983050F02BE630E09E3030F02CE630E077
:10203000963110F030E020E03093E3022093E2028A
:10204000292F30E0983008F03BC181E001C0880FB3
:102050009A95EAF78093E4028091EB029091EC026A
:102060000197F1F78091E9029091EA02892B49F1F9
:10207000E0917001F091710122E0ED3CF20709F16D
:10208000309739F0A589B6899C91878980958923F5
:102090008C938091ED028E7F8093ED0210926F0100
:1020A00010926E018DEC92E090937101809370011B
:1020B000E091E202F091E30280819091E402892BA9
:1020C000808383E080930001E0914002F09141021F
:1020D00082E08083E0913C02F0913D021082E09129
:1020E0003E02F0913F0280E1808310924802E0912D
:1020F0004402F091450286E08083E0914202F09133
:102100004302908190619083E0914202F0914302FA
:10211000908198609083E0914202F0914302908117
:1021200090689083E0914202F091430290819F7DFC
:1021300090835798239A2B9A95EA4F9BCEC0909301
:102140009A0180939B0180939C018FEF80939D0166
:1021500080939E0180939F018093A00182E58093EC
:10216000A1018CE892E00E94F70B6E0131E6C30EEC
:10217000D11C3E0141E4640E711C8E010F571F4FAC
:102180002E0151EA450E511CC6010896CE54DF4F70
:1021900099838883C25BD040D3011896CC54DF4F1B
:1021A000B983A883C45BD0401E01B1E22B0E311C61
:1021B000FE0131967F0180910001F0E48F9FC00104
:1021C0001124816080937C0080917A0080648093E8
:1021D0007A0080917A0086FDFCCFA0917800B091C2
:1021E000790028E630E10E94801620ED33E040E0DF
:1021F00050E00E941C1630938801209387018DECDB
:1022000092E00E942A0504970CF447C18DEC92E0FD
:102210000E944205B82E8093E30188E994E00E9471
:102220004A048B2D0E94A20B8091E3018A3509F0AC
:1022300044C08DEC92E00E944205B82E8093E401E8
:102240008DEC92E00E9442058093E5018B2D0E9467
:10225000A20B8091E5010E94A20B8091E4018230E3
:1022600009F050C01092E2018DEC92E00E9442050C
:102270008093E6010E94A20B0E94EF0BB090E50153
:10228000E9E0BE1609F447C4EB1508F490C0F3E08A
:10229000BF1609F423C4FB1508F47AC021E0B21676
:1022A00009F4CDC032E0B31609F43AC484EB93E0EC
:1022B0000E944A048B2D0E94A20B0E94EF0BEDC0DE
:1022C0009E3040F42850310981E001C0880F2A95E2
:1022D000EAF7C0CE2E503109F7CF90939A01809340
:1022E0009B0180939C0186E580939D0110929E0145
:1022F00010929F011092A0018EE48093A1018AE9BF
:1023000092E031CF2EEF280FCF54DF4F2883C15BEF
:10231000D0402093E201482F4150550B5A0123E24F
:10232000822E912C8DEC92E00E942A058A159B0545
:1023300024F4C4010197F1F7F5CF92EAA92E91E0B8
:10234000B92E912C8DEC92E00E944205D5018D931F
:102350005D019394CF54DF4FB881C15BD0409B1691
:1023600088F385E994E00E944A04B12C8091E2014F
:10237000B81648F4EB2DF0E0EE55FE4F80810E9438
:10238000A20BB394F3CF82E994E00E944A046CCF8D
:1023900047E0B41609F4B5C34B1508F4E1C354E0A3
:1023A000B51284CF46E050E06CEE73E0AEC386E138
:1023B000B81609F4BFC38B1580F09CE0B91609F478
:1023C0005DC0ADE0BA1609F4C0C3BBE0BB126ECF6E
:1023D00046E050E06DEF73E098C3E1E8BE1609F403
:1023E000B2C1F0E9BF1609F4E5C220E8B2125ECF2F
:1023F0008DB69EB66091A2016093990180E1D301F0
:102400001D928A95E9F78091E20190E09C012150AC
:102410003109EDB7FEB7E21BF30B0FB6F894FEBF20
:102420000FBEEDBF2DB73EB72F5F3F4F5901118251
:102430003296039797FD7EC011920197FBCFA09132
:102440008701B091880126E536E00E94801628E6D3
:1024500030E140E050E00E941C16B22EA32E46E070
:1024600050E06EE774E080EF91E00E941316A092B6
:10247000F501B092F40161E086E00DC0EAE9F1E017
:10248000A0EFB1E081EA91E021912D938E179F0793
:10249000D9F761E087E00E94030CE3EFF1E083E00D
:1024A00092E011928E179F07E1F78091870190913A
:1024B0008801843E9C400CF05AC32FB7F894809159
:1024C000EC019091ED01A091EE01B091EF012FBFD1
:1024D0004091830150918401609185017091860142
:1024E000841B950BA60BB70B8B3F9105A105B1057E
:1024F00008F4C1C22FB7F8948091EC019091ED01DE
:10250000A091EE01B091EF012FBF809383019093D2
:102510008401A0938501B09386018091820191E0AE
:10252000892780938201882309F41FC32B9A8AEAA2
:1025300093E09FC2C3010E94A70C85EA8093F0013B
:1025400082E18093F10186E08093F201D3018C91C6
:10255000882361F02091E201A3EAB1E0F50181E076
:102560008217C8F49D9191938F5FFACF8FE193E02A
:102570000E94F70BE3EFF1E083E092E02FEF21936D
:102580008E179F07E1F70FB6F8949EBE0FBE8DBE63
:1025900061E083E180CF8091990198E0F701119289
:1025A0009A95E9F7883009F4B0C008F086C0833006
:1025B00009F49CC008F073C048E050E06FEA72E094
:1025C000813051F048E050E067EA72E0823020F05C
:1025D00048E050E067EB72E0C7010E941316898162
:1025E00089A38A818DA38B8189A78C818DA78D81F9
:1025F0008AA38E818EA38F818AA788858EA7D50115
:102600008C918BA311968C9111978FA312968C911C
:1026100012978BA713968C9113978FA714968C9172
:1026200014978CA315968C91159788A716968C9164
:1026300016978CA717968C9188ABC1010E944F0CFE
:1026400020E130E0A30162E771E0C1010E94780956
:1026500080E1E2E7F1E0D70101900D928A95E1F780
:1026600020E130E0A30169E871E0C7010E94780928
:1026700089E891E00E944F0C88E0E2E7F1E0A3EFE7
:10268000B1E001900D928A95E1F788E0E9E8F1E088
:10269000ABEFB1E001900D928A95E1F774CF8530F0
:1026A00079F148F148E050E067ED72E0863009F4D6
:1026B00093CFC7010E943D1792CF8739A9F158F4F3
:1026C0008D3041F18F3259F18A3099F748E050E06E
:1026D00067EE72E081CF893D61F18B3E79F1833BFA
:1026E00041F748E050E067E073E076CF48E050E023
:1026F0006FEB72E071CF48E050E067EC72E06CCFB6
:1027000048E050E06FEC72E067CF48E050E06FEDDA
:1027100072E062CF48E050E06FEE72E05DCF48E0DB
:1027200050E067EF72E058CF48E050E06FEF72E0A2
:1027300053CF48E050E06FE073E04ECF48E050E008
:1027400067E173E049CF85EA8093F00182E18093ED
:10275000F10186E08093F20180E1F601282F1192C9
:102760002A95E9F7D301E82F1D92EA95E9F7D101FF
:10277000E82F1D92EA95E9F7D7011D928A95E9F7AE
:102780008091990198E0F80111929A95E9F78830C3
:1027900009F4F2C008F0C8C0833009F4DEC008F0C4
:1027A000B5C048E050E065E373E0813051F048E0A7
:1027B00050E06DE273E0823020F048E050E06DE3DD
:1027C00073E0C8010E94131680918901D6018C9391
:1027D00080918A0114968C93149780918B0118969E
:1027E0008C93189780918C011C968C931C978091E8
:1027F0008D0111968C93119780918E0115968C9373
:10280000159780918F0119968C931997809190015B
:102810001D968C931D97F801808112968C931297C8
:10282000818116968C93169782811A968C931A97AB
:1028300083811E968C931E97848113968C93139795
:10284000858117968C93179786811B968C931B977F
:1028500087811F968C93C6010E944F0C609199014D
:10286000C3010E94A70C20E830E0A301B101C6011A
:102870000E94780920E830E0A301B701C1010E945D
:10288000780980E1F701A3EFB1E001900D928A95FC
:10289000E1F761E083E10E94030C809199018B3E96
:1028A00019F0833B09F0F9CD44E050E06EE874E0A4
:1028B00080EF91E00E94131660E084E00E94030C18
:1028C00084E894E00E944A048DEC92E00E94420564
:1028D0008093E3018DEC92E00E9442058093E40135
:1028E0008DEC92E00E9442058093E5018DEC92E030
:1028F0000E9442058093E60147E050E06EE774E0F5
:1029000080EF91E00E94131660E0C4CD853079F12C
:1029100048F148E050E06DE573E0863009F451CFAE
:10292000C8010E943D1750CF8739A9F158F48D3066
:1029300041F18F3259F18A3099F748E050E06DE665
:1029400073E03FCF893D61F18B3E79F1833B41F7E5
:1029500048E050E06DE873E034CF48E050E065E4D3
:1029600073E02FCF48E050E06DE473E02ACF48E0F9
:1029700050E065E573E025CF48E050E065E673E0A0
:1029800020CF48E050E065E773E01BCF48E050E01F
:102990006DE773E016CF48E050E065E873E011CFD3
:1029A00048E050E065E973E00CCF48E050E06DE9A5
:1029B00073E007CF80E1B82ED201EB2D1D92EA958E
:1029C000E9F780E2D601E82F1D92EA95E9F7D301F5
:1029D000E82F1D92EA95E9F7D101E82F1D92EA95BB
:1029E000E9F7D701E82F1D92EA95E9F7EAEAF1E065
:1029F000D80101900D928A95E1F740E150E06EE632
:102A000074E0C2010E941316A201B601C8010E941F
:102A1000630688E0CE54DF4FE881F981C25BD04085
:102A2000D30101900D928A95E1F788E0F601CC542C
:102A3000DF4FA881B981C45BD04001900D928A9587
:102A4000E1F7F3017096DF011D92BA94E9F740E1D6
:102A500050E06EE574E0C1010E941316D601509655
:102A6000F101CE01C1963D912191321789F082E4A6
:102A700094E00E94F70B80E090E0892B09F49BCB57
:102A80000E94C703882309F48FCB0E9400008CCBDF
:102A9000E817F90741F784E294E00E94F70B40E160
:102AA00050E064E174E0C2010E941316A201B70174
:102AB000C3010E9463064BE050E069E074E080EFE0
:102AC00091E00E94131680E2F701ABEFB1E00190B4
:102AD0000D928A95E1F761E08BE2DDCC45E050E0B4
:102AE00065EA73E080EF91E00E9413168091870100
:102AF000909188019093F4018093F30161E085E067
:102B0000CACC46E050E063E074E080EF91E00E94C0
:102B1000131660E0B1CC46E050E067EF73E0F5CF0C
:102B200045E050E062EF73E080EF91E00E94131601
:102B300060E0E5CF45E150E067ED73E080EF91E0C4
:102B40000E94131660E085E1A6CC49E050E06EECEF
:102B500073E080EF91E00E94131660E089E09BCC67
:102B600046E050E068EC73E0D0CF2B98E0CC809149
:102B70009D018F3FD1F52FB7F8948091EC01909192
:102B8000ED01A091EE01B091EF012FBF40918301C3
:102B9000509184016091850170918601841B950B91
:102BA000A60BB70B893E9340A105B10508F463CF8E
:102BB0002FB7F8948091EC019091ED01A091EE0176
:102BC000B091EF012FBF8093830190938401A09374
:102BD0008501B09386018091820191E089278093DD
:102BE0008201882311F02B9A46CF2B9844CF8DE198
:102BF00091E09093CE028093CD02809170019091EC
:102C000071018D5C924071F4E091E202F091E30277
:102C100090818091E40280958923808310927101D4
:102C2000109270010895FB01DC0102C005900D9225
:102C300041505040D8F70895052E97FB1EF400949C
:102C40000E94331657FD07D00E943B1607FC03D0A5
:102C50004EF40C94331650954095309521953F4F86
:102C60004F4F5F4F089590958095709561957F4F78
:102C70008F4F9F4F0895A1E21A2EAA1BBB1BFD0187
:102C80000DC0AA1FBB1FEE1FFF1FA217B307E4074B
:102C9000F50720F0A21BB30BE40BF50B661F771FA3
:102CA000881F991F1A9469F7609570958095909583
:102CB0009B01AC01BD01CF010895A29FB001B39F5C
:102CC000C001A39F700D811D1124911DB29F700D35
:102CD000811D1124911D089597FB072E16F4009471
:102CE00007D077FD09D00E94871607FC05D03EF477
:102CF000909581959F4F0895709561957F4F0895A8
:102D00000E945D16B7FF0895821B930B0895AA1BBE
:102D1000BB1B51E107C0AA1FBB1FA617B70710F0C6
:102D2000A61BB70B881F991F5A95A9F780959095F8
:102D3000BC01CD010895EE0FFF1F0590F491E02D29
:102D400009940F931F93CF93DF938230910510F472
:102D500082E090E0E091F002F091F10230E020E0BA
:102D6000B0E0A0E0309799F42115310509F44AC08C
:102D7000281B390B24303105D8F58A819B816115D8
:102D8000710589F1FB0193838283FE0111C04081AB
:102D900051810281138148175907E0F048175907FC
:102DA00099F4109761F012960C93129713961C9356
:102DB0003296CF01DF91CF911F910F91089500932B
:102DC000F0021093F102F4CF2115310551F04217B2
:102DD000530738F0A901DB019A01BD01DF01F801B9
:102DE000C1CFEF01F9CF9093F1028093F002CDCFE4
:102DF000FE01E20FF31F8193919322503109398331
:102E00002883D7CF2091EE023091EF02232B41F49B
:102E100020910301309104013093EF022093EE02E0
:102E200020910101309102012115310541F42DB7A6
:102E30003EB74091050150910601241B350BE091EE
:102E4000EE02F091EF02E217F307A0F42E1B3F0B06
:102E50002817390778F0AC014E5F5F4F241735070C
:102E600048F04E0F5F1F5093EF024093EE028193A4
:102E700091939FCFF0E0E0E09CCFCF93DF9300975A
:102E8000E9F0FC01329713821282A091F002B09116
:102E9000F102ED0130E020E01097A1F420813181B2
:102EA000820F931F2091EE023091EF02281739070D
:102EB00009F061C0F093EF02E093EE02DF91CF9151
:102EC0000895EA01CE17DF07E8F54A815B819E018C
:102ED00041155105B1F7E901FB83EA834991599105
:102EE000C40FD51FEC17FD0761F480819181029614
:102EF000840F951FE90199838883828193819B8345
:102F00008A83F0E0E0E012968D919C9113970097F0
:102F1000B9F52D913C911197CD010296820F931F27
:102F20002091EE023091EF022817390739F63097D9
:102F300051F51092F1021092F002B093EF02A093BB
:102F4000EE02BCCFD383C28340815181840F951F91
:102F5000C817D90761F44E5F5F4F88819981480F88
:102F6000591F518340838A819B81938382832115DA
:102F7000310509F0B0CFF093F102E093F0029ECF5B
:102F8000FD01DC01C0CF13821282D7CF13E0C4E071
:102F9000D3E004C0FE010E949B162196C530D107E4
:102FA000C9F7F894FFCF010000F202800000000092
:102FB00000FD035D038A036504BB039903AD0300B1
:102FC0000000009E045D0363059D042A05420585FB
:042FD000040D0A00E2
:107800000C94343C0C94513C0C94513C0C94513CE1
:107810000C94513C0C94513C0C94513C0C94513CB4
:107820000C94513C0C94513C0C94513C0C94513CA4
:107830000C94513C0C94513C0C94513C0C94513C94
:107840000C94513C0C94513C0C94513C0C94513C84
:107850000C94513C0C94513C0C94513C0C94513C74
:107860000C94513C0C94513C11241FBECFEFD8E036
:10787000DEBFCDBF11E0A0E0B1E0ECE9FFE702C060
:1078800005900D92A230B107D9F712E0A2E0B1E065
:1078900001C01D92AD30B107E1F70E942D3D0C945F
:1078A000CC3F0C94003C982F959595959595959582
:1078B000905D8F708A307CF0282F295A8091C0000B
:1078C00085FFFCCF9093C6008091C00085FFFCCF60
:1078D0002093C6000895282F205DF0CF982F809127
:1078E000C00085FFFCCF9093C6000895EF92FF92F1
:1078F0000F931F93EE24FF2487018091C00087FD22
:1079000017C00894E11CF11C011D111D81E4E8164B
:1079100082E4F8068FE0080780E0180770F3E09132
:107920000401F091050109958091C00087FFE9CF1E
:107930008091C6001F910F91FF90EF9008950E94D3
:10794000763C982F8091C00085FFFCCF9093C600B5
:1079500091362CF490330CF09053892F089597555D
:10796000892F08951F930E949F3C182F0E949F3CCF
:107970001295107F810F1F9108951F93182F882350
:1079800021F00E94763C1150E1F71F9108951F935A
:10799000182F0E94763C803249F0809103018F5F5E
:1079A000809303018530C1F01F9108958091C0003C
:1079B00085FFFCCF84E18093C6008091C00085FFE5
:1079C000FCCF1093C6008091C00085FFFCCF80E102
:1079D0008093C6001F910895E0910401F091050184
:1079E00009951F9108950E94763C803241F0809164
:1079F00003018F5F80930301853081F008958091AA
:107A0000C00085FFFCCF84E18093C6008091C00058
:107A100085FFFCCF80E18093C6000895E0910401CA
:107A2000F09105010995089540E951E08823A1F0FE
:107A30002D9A28EE33E0FA013197F1F721503040CA
:107A4000D1F72D9828EE33E0FA013197F1F7215064
:107A50003040D1F7815061F708953F924F925F9285
:107A60006F927F928F929F92AF92BF92CF92DF924E
:107A7000EF92FF920F931F93CF93DF93000080E16B
:107A80008093C4001092C50088E18093C10086E015
:107A90008093C2005098589A259A81E00E94143D24
:107AA00024E1F22E9EE1E92E85E9D82E0FE0C02ECA
:107AB00010E1B12EAA24A394B1E49B2EA6E58A2E50
:107AC000F2E57F2EE0E26E2E79E4572E63E5462E36
:107AD00050E5352E0E94763C8033B1F18133B9F107
:107AE000803409F46FC0813409F476C0823409F41B
:107AF00085C0853409F488C0803531F1823521F1A3
:107B0000813511F1853509F485C0863509F48DC0BC
:107B1000843609F496C0843709F403C1853709F423
:107B200072C1863709F466C0809103018F5F80932C
:107B30000301853079F6E0910401F0910501099582
:107B40000E94763C803351F60E94F33CC3CF0E94E2
:107B5000763C803249F78091C00085FFFCCFF092DF
:107B6000C6008091C00085FFFCCF9092C600809136
:107B7000C00085FFFCCF8092C6008091C00085FFC9
:107B8000FCCF7092C6008091C00085FFFCCF609250
:107B9000C6008091C00085FFFCCF5092C600809146
:107BA000C00085FFFCCF4092C6008091C00085FFD9
:107BB000FCCF3092C6008091C00085FFFCCFB09210
:107BC000C60088CF0E94763C863808F4BDCF0E945C
:107BD000763C0E94F33C7ECF0E94763C803809F4CC
:107BE0009CC0813809F40BC1823809F43CC1883942
:107BF00009F48FC080E00E94C73C6CCF84E10E94F2
:107C0000BD3C0E94F33C66CF85E00E94BD3C0E94D3
:107C1000F33C60CF0E94763C809306010E94763C44
:107C2000809307010E94F33C55CF0E94763C80333D
:107C300009F41DC183E00E94BD3C80E00E94C73C66
:107C400049CF0E94763C809309020E94763C809343
:107C5000080280910C028E7F80930C020E94763C79
:107C6000853409F415C18091080290910902892B8D
:107C700089F000E010E00E94763CF801E85FFE4FDA
:107C800080830F5F1F4F80910802909109020817AF
:107C9000190788F30E94763C803209F045CF809125
:107CA0000C0280FF01C16091060170910701660F0F
:107CB000771F7093070160930601A0910802B091AD
:107CC00009021097C9F0E8E0F1E09B01AD014E0F09
:107CD0005F1FF999FECF32BD21BD819180BDFA9A17
:107CE000F99A2F5F3F4FE417F50799F76A0F7B1F4B
:107CF00070930701609306018091C00085FFFCCF5F
:107D0000F092C6008091C00085FFFCCFB092C60003
:107D1000E1CE83E00E94C73CDDCE82E00E94C73CFA
:107D2000D9CE0E94763C809309020E94763C8093D3
:107D300008028091060190910701880F991F909386
:107D40000701809306010E94763C853409F4A6C0A1
:107D500080910C028E7F80930C020E94763C8032D0
:107D600009F0B8CE8091C00085FFFCCFF092C6002C
:107D7000609108027091090261157105B9F140E046
:107D800050E080910C02A82FA170B82FB27011C0E2
:107D9000BB2309F45CC0E0910601F0910701319624
:107DA000F0930701E09306014F5F5F4F46175707B7
:107DB000E8F4AA2369F3F999FECF209106013091E6
:107DC000070132BD21BDF89A90B58091C00085FFB2
:107DD000FCCF9093C6002F5F3F4F30930701209355
:107DE00006014F5F5F4F4617570718F38091C00099
:107DF00085FDE5CE8091C00085FFF8CFE0CE81E023
:107E00000E94C73C67CE0E94763C803209F08CCE3F
:107E10008091C00085FFFCCFF092C6008091C00029
:107E200085FFFCCFE092C6008091C00085FFFCCFAB
:107E3000D092C6008091C00085FFFCCFC092C600E2
:107E40008091C00085FFFCCFB092C60043CEE09188
:107E50000601F091070194918091C00085FFFCCF4D
:107E60009093C6009CCF80E10E94C73C33CE0E9415
:107E7000763C0E94763C182F0E94763C112309F430
:107E800083C0113009F484C08FE00E94C73C22CE29
:107E900080910C02816080930C02E5CE80910C02EF
:107EA000816080930C0259CF809107018823880F4D
:107EB000880B8A2180930B02809106019091070123
:107EC000880F991F90930701809306018091080203
:107ED00080FF09C080910802909109020196909359
:107EE000090280930802F894F999FECF1127E091D6
:107EF0000601F0910701C8E0D1E08091080290915D
:107F00000902103091F40091570001700130D9F34B
:107F100003E000935700E89500915700017001308D
:107F2000D9F301E100935700E89509901990009169
:107F3000570001700130D9F301E000935700E89534
:107F40001395103498F011270091570001700130FB
:107F5000D9F305E000935700E895009157000170B0
:107F60000130D9F301E100935700E895329602976A
:107F700009F0C7CF103011F00296E5CF112480919F
:107F8000C00085FFB9CEBCCE8EE10E94C73CA2CD19
:0E7F900085E90E94C73C9ECDF894FFCF80008B
:00000001FF
