:100000000C94F0020C9418030C9418030C94FE103A
:100010000C94FE100C94FE100C9418030C9418030E
:100020000C9418030C9418030C9418030C941803E4
:100030000C9418030C9418030C9418030C941803D4
:100040000C945C100C9418030C94CC100C94A61017
:100050000C9418030C9418030C9418030C941803B4
:100060000C9418030C9418035C52D91CF382ACA4B2
:1000700089D88178EC16297B9D4F50FCE1B68E1211
:1000800009307DDBA6A5B5AA0975988864ACF7622E
:100090001BC0909DF0FCABFFC9115CE2064A2686AE
:1000A000D8D6D9D08CDE3059667539D2FB4273B2BE
:1000B000903FD7A39ED2C60CF4FAEF20F4DBAB310D
:1000C000D18674FD8F990566EA0C811363D7E930F8
:1000D000F961135A4F352DDC0A2E73305C382D4FE1
:1000E000310D0AED84A41800D20474308FE2690443
:1000F0006ED7BB07CF1CFF43AC00C0E3E80AF06833
:100100003FDD1745194543BD0177D750BDFD2BC1D4
:10011000A0493A134A4C6ACF05349170939345EE47
:10012000951A14843334A0DEDFF3FCD608B055975B
:10013000CF09A23BD17D3FD24AA7C7B01134466F49
:10014000AC82163E4BB51BF9CAC8B87ACD9EC49690
:1001500090ABE0813920B11003BEB65499140483EA
:10016000BA187A64EF90261DC7AC1306DEFE39EC90
:1001700083A1483B0EE2EC89418499BE9D35A3B929
:10018000FC6AD0D6F041BB2620003000D2072253B3
:10019000A4F27468B37A16EF557BD089A04E32BBB7
:1001A000A7139E46B0B809833989FAE2FE7D789993
:1001B000BFEC47C5306F3A03D86CBEE48422DFEA57
:1001C000E21B63C2AD4043B256EB458BC2377E8A19
:1001D00074096C5F581C7F1944F96262F1BC562B9C
:1001E000D55BB077AF6010A846F741F3DBD3AEA480
:1001F000DB04641090E1F0C00178E3FF0BD9027ECC
:10020000851FA1234B6579206E6F7420666F756E14
:100210006400F5D7D4B575F08E4ECC699581FD8913
:10022000126C495E034794931D7BF4E04313AD2E9B
:10023000B4DB865E3EEF9DFBB1FDFF72BD2B83B844
:100240009D2F58B95AAEF399DBD067C07215D96BA0
:1002500039A1093EC519AF0F502D318053875C205D
:100260003E241BDF2433EB29155B9DEEC01144B601
:100270006F41E32B8F56B2641298C34A6A7B205FAA
:10028000E8F9F791ED0B3F49A4484C4F5720504FE8
:10029000574552004E6F206F7074696F6E20736502
:1002A0006C65637465642000A50406E2046AA50712
:1002B000069D1010281454A51306536F6E79456ED1
:1002C00065726779446576696365736BA504066832
:1002D00010D8A503061B36A5040601044BA5040689
:1002E0000F0041A50406080741A5040636100AA51B
:1002F0002A062001000082828282DA24DAB43A617E
:10030000CBDF61FD255D0AEA7957496E76616C693C
:100310006420726571756573742066726F6D205309
:100320007973636F6E00880E2A94110926B20E53FA
:10033000E22AE648AE9DC66E9ED6ECBCB121B74619
:100340005D25037D6646A5050610C30676292000B7
:100350002820005053503A202020202000637C7732
:100360007BF26B6FC53001672BFED7AB76CA82C9B3
:100370007DFA5947F0ADD4A2AF9CA472C0B7FD93EB
:1003800026363FF7CC34A5E5F171D8311504C723E3
:10039000C31896059A071280E2EB27B27509832CE1
:1003A0001A1B6E5AA0523BD6B329E32F8453D100B7
:1003B000ED20FCB15B6ACBBE394A4C58CFD0EFAAD6
:1003C000FB434D338545F9027F503C9FA851A34024
:1003D0008F929D38F5BCB6DA2110FFF3D2CD0C1305
:1003E000EC5F974417C4A77E3D645D197360814F2D
:1003F000DC222A908846EEB814DE5E0BDBE0323A4F
:100400000A4906245CC2D3AC629195E479E7C83707
:100410006D8DD54EA96C56F4EA657AAE08BA78258A
:100420002E1CA6B4C6E8DD741F4BBD8B8A703EB58A
:10043000664803F60E613557B986C11D9EE1F898EE
:100440001169D98E949B1E87E9CE5528DF8CA1892E
:100450000DBFE6426841992D0FB054BB165374612D
:100460007274206E6F726D616C00537461727420CF
:100470007365727669636500000000080002010080
:1004800000030407000000000000000052096AD5C4
:100490003036A538BF40A39E81F3D7FB7CE3398279
:1004A0009B2FFF87348E4344C4DEE9CB547B9432C8
:1004B000A6C2233DEE4C950B42FAC34E082EA16610
:1004C00028D924B2765BA2496D8BD12572F8F664E7
:1004D00086689816D4A45CCC5D65B6926C70485062
:1004E000FDEDB9DA5E154657A78D9D8490D8AB0017
:1004F0008CBCD30AF7E45805B8B34506D02C1E8F40
:10050000CA3F0F02C1AFBD0301138A6B3A9111417B
:100510004F67DCEA97F2CFCEF0B4E67396AC742264
:10052000E7AD3585E2F937E81C75DF6E47F11A71E2
:100530001D29C5896FB7620EAA18BE1BFC563E4B1B
:10054000C6D279209ADBC0FE78CD5AF41FDDA833DD
:100550008807C731B11210592780EC5F60517FA91D
:1005600019B54A0D2DE57A9F93C99CEFA0E03B4D4C
:10057000AE2AF5B0C8EBBB3C83539961172B047EC0
:10058000BA77D626E169146355210C7D41726475F2
:10059000696E6F3A20000000000023002600290049
:1005A00000000000240027002A00000000002500B1
:1005B00028002B00040404040404040402020202C0
:1005C0000202030303030303010204081020408016
:1005D000010204081020010204081020C211D213E5
:1005E00011241FBECFEFD8E0DEBFCDBF11E0A0E0E9
:1005F000B1E0EEEAFAE202C005900D92A033B10735
:10060000D9F722E0A0E3B1E001C01D92AA3CB207F5
:10061000E1F712E0CFEED2E004C02197FE010E9484
:100620001F14CE3ED107C9F70E94AB120C944A1595
:100630000C940000E8E0F2E0A089B18982E08C939C
:10064000A485B5851C92A685B78580E18C93108E14
:10065000A489B58986E08C93A289B3898C91806145
:100660008C93A289B3898C9188608C93A289B38979
:100670008C9180688C930288F389E02D80818F7D36
:1006800080830895DB01FC01242F3C913083119677
:100690003C911197318312963C91129732831396B5
:1006A0003C9113973383245014963496243068F782
:1006B0002CEF240F2695269530E02F5F3F4F220F19
:1006C000331F220F331F4370DB01A20FB31FFC0146
:1006D000E20FF31F415018F08D918193FBCF0895E5
:1006E000AF92BF92CF92DF92EF92FF920F931F9340
:1006F000CF93DF936C017B018B01040F151FEB017E
:100700005E01AE18BF08C017D10759F06991D60134
:10071000ED91FC910190F081E02DC6010995892BA6
:1007200079F7C501DF91CF911F910F91FF90EF9065
:10073000DF90CF90BF90AF900895FC01538D448D12
:10074000252F30E0842F90E0821B930B541710F07C
:10075000CF96089501970895FC01918D828D981789
:1007600061F0A28DAE0FBF2FB11D5D968C91928D61
:100770009F5F9F73928F90E008958FEF9FEF089592
:10078000FC01918D828D981731F0828DE80FF11D5B
:10079000858D90E008958FEF9FEF0895FC01918D76
:1007A000228D892F90E0805C9F4F821B91098F736F
:1007B0009927089588E092E00E94CE0321E0892BDA
:1007C00009F420E0822F089580E090E0892B29F041
:1007D0000E94DA0381110C9400000895FC01A48D9D
:1007E000A80FB92FB11DA35ABF4F2C91848D90E053
:1007F00001968F739927848FA689B7892C93A08936
:10080000B1898C91837080648C93938D848D9813BF
:1008100006C00288F389E02D80818F7D8083089552
:10082000EF92FF920F931F93CF93DF93EC0181E040
:10083000888F9B8D8C8D98131AC0E889F9898081E7
:1008400085FF15C09FB7F894EE89FF896083E8891A
:10085000F98980818370806480839FBF81E090E00C
:10086000DF91CF911F910F91FF90EF900895F62E99
:100870000B8D10E00F5F1F4F0F731127E02E8C8D33
:100880008E110CC00FB607FCFACFE889F989808178
:1008900085FFF5CFCE010E94EE03F1CFEB8DEC0F7B
:1008A000FD2FF11DE35AFF4FF0829FB7F8940B8F95
:1008B000EA89FB8980818062CFCF0F931F93CF930A
:1008C000DF938C01D0E0C0E0F801EC0FFD1F6491D4
:1008D000662341F088E092E00E941004892B11F019
:1008E0002196F2CFCE01DF91CF911F910F91089504
:1008F000CF93DF93EC01888D8823B9F0AA89BB8957
:10090000E889F9898C9185FD03C0808186FD0DC041
:100910000FB607FCF7CF8C9185FFF2CF808185FF62
:10092000EDCFCE010E94EE03E9CFDF91CF91089584
:100930002091B5013091B6012817390771F49091D3
:10094000B3018091B401981741F0E091B301F0E058
:10095000ED58FE4F808190E008958FEF9FEF08954E
:100960000895EF92FF920F931F93CF93DF93DC01D3
:100970005E968D919C915F97009779F481E090E06D
:1009800013969C938E93129790E080E0DF91CF9125
:100990001F910F91FF90EF9008955396ED91FC9168
:1009A000549752962C915297322F30951FB79096AC
:1009B0004C919097042F027041FD6095F89440810E
:1009C000002309F44CC0422B4083EC012197F1F73E
:1009D0001F961C921F9748E0E62EF12C508160FF75
:1009E00040C0522B50831F965C911F975F5F1F96EC
:1009F0005C931F97EC012197F1F7B7017595679507
:100A0000415051F71E964C911E9741110BC01F96F5
:100A10004C911F9740FF28C0408143234083EC0145
:100A20002197F1F71E964C911E97423051F41F9674
:100A30004C911F9740FF1BC04081422B4083019780
:100A4000F1F780810023B1F0382330831FBF5E9619
:100A50008D919C910197F1F781E090E097CF43232E
:100A6000B3CF53235083C6CF4081422BD7CF408191
:100A70004323E4CF282B2083E9CF2091B501309187
:100A8000B6012817390771F48091B4012091B301A0
:100A900090E0805C9F4F821B910960E470E00E94AF
:100AA000F713089590E080E008952091B50130910A
:100AB000B60128173907B9F49091B3018091B401B8
:100AC000981789F0E091B301F0E0ED58FE4F808176
:100AD0002091B30130E02F5F3F4F2F7333272093D6
:100AE000B30190E008958FEF9FEF089590E080E0CC
:100AF00008952F923F925F926F927F928F929F9272
:100B0000AF92BF92CF92DF92EF92FF920F931F931B
:100B1000CF93DF9300D000D0CDB7DEB77C018A0140
:100B20004831510509F48CC0E0F44031510501F120
:100B3000F70110828FEF0F900F900F900F90DF91C1
:100B4000CF911F910F91FF90EF90DF90CF90BF90CA
:100B5000AF909F908F907F906F905F903F902F907D
:100B600008954032510509F46FC04038510501F72E
:100B70008AE0F701808300E110E0F7016080639470
:100B8000629480EF6822D02E402FC70103960E9406
:100B90004203902E802ECC24C394BE016B5F7F4F06
:100BA0009BE1792E961408F06AC0492D50E0FA01B5
:100BB0003197EE0DFF1DCE010196DC0121912D93A1
:100BC000A617B707D9F7891043C029818D0CEA8190
:100BD000F0E0E35AFC4FE491EC25E983EB81F0E08F
:100BE000E35AFC4FE491EA83EC81F0E0E35AFC4FD6
:100BF000E491EB83E22FF0E0E35AFC4FE491EC83C5
:100C0000C7FE24C0CC0CC724FA0133961F012E0C5A
:100C10003F1C292D2D1930E0FC015190CF015101CD
:100C2000A41AB50AA20EB31EF501B080B524F101D5
:100C3000B1921F018A179B0779F7F4E09F0EB2CF9C
:100C40008CE0F701808399CF8EE0FBCFCC0CDCCF1A
:100C500000321105C9F6292D2F712031A9F69C010A
:100C6000F901B1909F01EB2DF0E0E35AFC4FB490F5
:100C7000F9013197B0822A173B0791F7C5CF80E081
:100C80005ACFFC01E950FF4F22E82083319624E837
:100C90002083319628E8208331962FE920833196EE
:100CA00032E93083319634E93083319638E9308344
:100CB00031962083319622EA2083319624EA2083DC
:100CC000319628EA208331962FEA2083319622EB51
:100CD0002083319624EB2083319628EB208326E075
:100CE00030E0FC01328321830895CF93DF93FC0130
:100CF000EB01DA019C01205F3F4F88819C9189279D
:100D00008083898111969C911197892781838A819B
:100D100012969C911297892782838B8113969C91BE
:100D2000139789278383349624961496E217F30742
:100D300021F7DF91CF9108952F923F924F925F92CA
:100D40006F927F928F929F92AF92BF92CF92DF92DB
:100D5000EF92FF920F931F93CF93DF93CDB7DEB740
:100D6000EF970FB6F894DEBF0FBECDBF98AF8FAB35
:100D70001B017A013AAF29AF9A013E5F3DAF2CAF1C
:100D800003969CAB8BAB1BE189AD9AAD40969FAFB0
:100D90008EAFECADFDADEE16FF0609F4A4C140E147
:100DA000B101CE0181960E944203EFA9F8AD4081C6
:100DB00041111AC08FEFEF960FB6F894DEBF0FBE49
:100DC000CDBFDF91CF911F910F91FF90EF90DF90FA
:100DD000CF90BF90AF909F908F907F906F905F90DB
:100DE0004F903F902F900895F0E14F9FA001112464
:100DF0002BA93CA9420F531FB101CE0141960E947D
:100E00007506E989F0E0E457FB4FE491E98BED8941
:100E1000F0E0E457FB4FE491ED8BE98DF0E0E4570F
:100E2000FB4FE491E98FED8DF0E0E457FB4FE49147
:100E3000ED8F8E8DEA8DF0E0E457FB4FE491EE8F5D
:100E4000EE89F0E0E457FB4FE491EA8FEA89F0E0A5
:100E5000E457FB4FE491EE8BE82FF0E0E457FB4FB3
:100E6000E491EA8B8B89EB8DF0E0E457FB4FE49142
:100E7000EB8BE82FF0E0E457FB4FE491EB8F8F8989
:100E8000EF8DF0E0E457FB4FE491EF8BE82FF0E0BB
:100E9000E457FB4FE491EF8F8C89E88DF0E0E45745
:100EA000FB4FE491EC8BEC8DF0E0E457FB4FE491C9
:100EB000E88FE8A1F0E0E457FB4FE491EC8FE82FD6
:100EC000F0E0E457FB4FE491E8A3EFA9F8AD80818F
:100ED0008150F0E18F9FC00111242BA93CA9280F5C
:100EE000391F3AAB29AB8BA99CA9E9A9FAA98E179E
:100EF0009F0709F4C1C0AF01BE016F5E7F4FCE01F5
:100F000001960E947506DE0111969E012F5E3F4FED
:100F10003EAB2DAB65E070E09C9111968C911197E2
:100F200012963C91129713962C911397D92EDD0CA3
:100F300097FDD126B82EBB0C87FDB126C32ECC0C55
:100F400037FDC126022F000F27FD01274D2D440F2D
:100F5000D7FC41274B2C440CB7FE04C05B2D550F2A
:100F6000452E41269C2C990CC7FC9126A02EAA0C3C
:100F700007FDA126842E880C47FF04C0542F550F6F
:100F8000852E8126542D550F47FC5127F92DFF0F33
:100F900097FCF127EA2DEE0FA7FCE127792E7824A4
:100FA000582E5526632E6F266BAE622E6E26482570
:100FB00054259F26AE26E32FED25EB25E427E525D6
:100FC000E925E625F0E0E457FB4F3491EDA9FEA9B1
:100FD0003083E22FEB25EC25E725E5272BADE22733
:100FE000EA25F0E0E457FB4FB490FB01EF70FF27D8
:100FF00021E130E02C0F3D1FE20FF31FB0829C2552
:1010000090274927542695246924E62DF0E0E457DB
:10101000FB4F6490FB013596EF70FF2721E130E034
:101020002C0F3D1FE20FF31F6082E82FED25E02714
:10103000E7255E27EBADE527AE26EA2DF0E0E45785
:10104000FB4FA490FB013A96EF70FF27E20FF31FCE
:10105000A08214962DA93EA92C5F3F4F3EAB2DAB2D
:101060006C5F7F4F6531710509F056CF89A99AA948
:1010700040979AAB89AB37CF4BA95CA9BE016F5E95
:101080007F4FC7010E947506A9ADBAADF7018081F7
:101090009C9189278083818111969C911197892742
:1010A0008183828112969C91129789278283838102
:1010B00013969C91139789278383149634962EADAB
:1010C0003FAD2A173B0719F740E1BE016F5D7F4F27
:1010D00089AD9AAD0E94420330E1E30EF11C80E13C
:1010E000280E311C56CE80E066CE2F923F924F9252
:1010F0005F926F927F928F929F92AF92BF92CF92A8
:10110000DF92EF92FF920F931F93CF93DF93CDB7B0
:10111000DEB7A0970FB6F894DEBF0FBECDBFFC01BF
:101120002081222309F411C15A016C017C01F3E0F2
:10113000EF0EF11C8E010F5E1F4FA701C8010E9428
:101140007506992493949BE1892EF6018081981667
:1011500008F073C0A801DE0111968FE0782E3AE006
:1011600085E0BD01F801E80FF11D40808C5F8F70B4
:10117000F801E30FF11D50803C5F3F70F801E70D6F
:10118000F11D208194E0970D9F70792EFA019081D6
:10119000E92FF0E0E35AFC4F6490E42DF0E0E35ACD
:1011A000FC4F4490E52DF0E0E35AFC4F9491E22F80
:1011B000F0E0E35AFC4F2491562C550C67FC582460
:1011C000242C220C47FE04C0342C330C232C28245E
:1011D000E92FEE0F97FDE825F22FFF0F27FDF825E9
:1011E000342C39263226352432243C92362C3926AA
:1011F000322632243E2611963C92119764242625ED
:101200002E272F2712962C931297962595259F27E8
:1012100013969C9313974C5F5F4F14960A171B0706
:1012200009F0A0CFF0E19F9EA00111244E0D5F1D9B
:10123000C8010E947506939488CFE989F0E0E35ACB
:10124000FC4FE491E98BED89F0E0E35AFC4FE49127
:10125000ED8BE98DF0E0E35AFC4FE491E98FED8DE1
:10126000F0E0E35AFC4FE491ED8F8A89EE89F0E0DB
:10127000E35AFC4FE491EA8BEA8DF0E0E35AFC4F2D
:10128000E491EE8BEE8DF0E0E35AFC4FE491EA8FAF
:10129000E82FF0E0E35AFC4FE491EE8F8B89EB8D61
:1012A000F0E0E35AFC4FE491EB8BE82FF0E0E35AD7
:1012B000FC4FE491EB8F8F89EF8DF0E0E35AFC4F08
:1012C000E491EF8BE82FF0E0E35AFC4FE491EF8FCD
:1012D00088A1EC8DF0E0E35AFC4FE491E8A3E88D9F
:1012E000F0E0E35AFC4FE491EC8FEC89F0E0E35A34
:1012F000FC4FE491E88FE82FF0E0E35AFC4FE491D3
:10130000EC8B80E1989EA00111244E0D5F1DB80169
:10131000C5010E94750680E0A0960FB6F894DEBF66
:101320000FBECDBFDF91CF911F910F91FF90EF9036
:10133000DF90CF90BF90AF909F908F907F906F90F5
:101340005F904F903F902F9008958FEFE5CF1F93C0
:10135000CF93DF93CDB7DEB7A1970FB6F894DEBF7A
:101360000FBECDBF182F803120F48AE891E00E9493
:101370005D04812F90E0B0E0A0E019A2FE01B196DB
:10138000AC01BD014F7055276627772724E0B6953D
:10139000A795979587952A95D1F74A301CF5405D1A
:1013A00042930097A105B10559F7309769F0DF0125
:1013B0000D900020E9F71197AD014E1B5F0BBF01A7
:1013C00088E092E00E94700388E891E00E945D044A
:1013D000A1960FB6F894DEBF0FBECDBFDF91CF91BF
:1013E0001F910895495CDCCF42E050E06DE271E06E
:1013F00088E092E00C947003CF93DF930E945D0429
:10140000EC010E94F4098C0F9D1FDF91CF9108958C
:10141000EF92FF920F931F93CF93DF931F92CDB75D
:10142000DEB7082F162F482F50E068EC71E085EAF0
:1014300092E00E9470031123A1F0E8ECF1E080E05B
:1014400090E02191820F9F5F0913FBCF80958983E4
:1014500041E050E0BE016F5F7F4F85EA92E00E945D
:1014600070038CE895E00E945D0488ECE82E81E032
:10147000F82E10E0F70181917F010E94A7091F5FFC
:101480000113F8CF0E94F4090F90DF91CF911F91C3
:101490000F91FF90EF900895CF93DF93CDB7DEB714
:1014A000A0970FB6F894DEBF0FBECDBFDC01198A3E
:1014B000FE017296CE0141969E012F5D3F4F119223
:1014C000E217F307E1F7198224E02A8328E02B834F
:1014D0002CE02C8321E02D8325E02E8329E02F832F
:1014E0002DE0288722E0298726E02A872AE02B871B
:1014F0002EE02C8723E02D8727E02E872BE02F87F7
:101500002FE0288BBE016F5F7F4FAC01FB01219163
:10151000BF012A0F3B2F311DF9012081FA012193D0
:10152000AF018617970791F790E1FE017196019040
:101530000D929A95E1F7A0960FB6F894DEBF0FBE14
:10154000CDBFDF91CF910895693009F458C0A0F460
:101550006330E1F140F46130A1F168F140E150E025
:1015600068E870E02CC06530D9F1A8F16630E9F187
:10157000683009F43FC008956F3209F459C060F42F
:101580006B3009F446C008F43FC06C3009F446C023
:101590006D3009F448C00895633B09F453C020F44A
:1015A000673909F44AC00895693D09F450C06B3E9B
:1015B00009F452C0089540E150E068E670E00C94F0
:1015C000EE1340E150E068E770E0F9CF40E150E011
:1015D00068E970E0F4CF40E150E068EA70E0EFCFF6
:1015E00040E150E068EB70E0EACF40E150E068ECA9
:1015F00070E0E5CF40E150E068ED70E0E0CF40E121
:1016000050E068EE70E0DBCF40E150E068EF70E062
:10161000D6CF40E150E068E071E0D1CF40E150E04A
:1016200068E171E0CCCF40E150E068E271E0C7CF03
:1016300040E150E068E371E0C2CF40E150E068E48F
:1016400071E0BDCF40E150E068E571E0B8CF40E126
:1016500050E068E671E0B3CF40E150E068E771E048
:10166000AECF3F924F925F926F927F928F929F92F6
:10167000AF92BF92CF92DF92EF92FF920F931F93A0
:10168000CF93DF93CDB7DEB7CC5CD2400FB6F894E2
:10169000DEBF0FBECDBF4DB65EB685EA92E00E94BA
:1016A0003D0504970CF4FCC085EA92E00E945505C4
:1016B000182F80936F0183E593E00E945D04812FD2
:1016C0000E94A70980916F018A35E9F585EA92E0C9
:1016D0000E945505182F8093700185EA92E00E94C0
:1016E000550580937101812F0E94A7098091710196
:1016F0000E94A70900917001023041F510926E011D
:1017000085EA92E00E945505809372010E94A70924
:101710000E94F40910917101193009F47EC408F097
:1017200063C0133009F46FC408F04BC0113009F4E2
:10173000ABC0123009F476C484E992E00E945D04E3
:10174000812F0E94A7090E94F409AAC03EEFF32E40
:10175000F00EF0926E010150110B43E2C42ED12C19
:1017600085EA92E00E943D058017910724F4C601A6
:101770000197F1F7F5CF26E5C22E21E0D22E10E039
:1017800085EA92E00E945505D6018D936D011F5F99
:101790001F15B0F380E593E00E945D0410E0809196
:1017A0006E01181748F4E12FF0E0EA5AFE4F8081ED
:1017B0000E94A7091F5FF3CF8DE493E00E945D04B0
:1017C0009FCF173009F424C408F04DC446E050E020
:1017D0006CEC72E0143009F0AFCF88EC91E00E941D
:1017E000EE1360E086E05AC0163109F426C470F4A6
:1017F0001C3009F4BAC01D3009F42AC41B3009F0AA
:101800009BCF46E050E06DED72E0E7CF113809F470
:101810000AC2103909F41EC3103809F08DCFADB6D5
:10182000BEB660915601609355016E01B3EBCB1AC1
:10183000BDEFDB0A80E1F60111928A95E9F7C60156
:101840000E94A40A85EA8093C80182E18093C901BD
:1018500086E08093CA01D6018C91811193C084E007
:1018600092E00E94FC09EBECF1E08BED91E02FEFB0
:1018700021938E179F07E1F70FB6F894BEBE0FBEF7
:10188000ADBE61E083E10AC047E050E066E473E08A
:1018900088EC91E00E94EE1360E087E00E94080A65
:1018A000EBECF1E08BED91E011928E179F07E1F7E1
:1018B00080910201B0E48B9FC0011124816080936C
:1018C0007C0080917A00806480937A0080917A0015
:1018D00086FDFCCF80917800909179009093010172
:1018E000809300018E3F93400CF0C2C38AE892E0DF
:1018F0000E94FC092FB7F8948091C4019091C50112
:10190000A091C601B091C7012FBF409141015091F4
:1019100042016091430170914401841B950BA60B19
:10192000B70B8B3F9105A105B10508F41EC32FB776
:10193000F8948091C4019091C501A091C601B09125
:10194000C7012FBF8093410190934201A0934301AF
:10195000B09344018091400191E089278093400138
:10196000882309F4A7C32B9A00C3E7EBF1E0A8ECA6
:10197000B1E08EEB91E021912D938E179F07D9F75F
:1019800061E08BCF20916E01822F90E0AC0141503D
:101990005109EDB7FEB7E41BF50B0FB6F894FEBF87
:1019A0000FBEEDBF4DB75EB74F5F5F4F7A0111823B
:1019B0003296039797FF0AC0A7E5B1E0F70181E0EF
:1019C000821738F49D9191938F5FFACF119201970E
:1019D000F1CF809155018E010F5F1F4F98E0D80124
:1019E0001D929A95E9F7883009F4FFC008F0D5C038
:1019F000833009F4EBC008F0C2C048E050E064E96D
:101A000071E0813051F048E050E06CE871E08230E4
:101A100020F048E050E06CE971E0C8010E94EE134C
:101A20008981C35DDD4F8883CD52D2408A81CF5CEE
:101A3000DD4F8883C153D2408B81CB5CDD4F8883DF
:101A4000C553D2408C81C75CDD4F8883C953D240D7
:101A50008D81C25DDD4F8883CE52D2408E81CE5CB7
:101A6000DD4F8883C253D2408F81CA5CDD4F8883AB
:101A7000C653D2408885C65CDD4F8883CA53D240A6
:101A8000F7018081C15DDD4F8883CF52D2408181D3
:101A9000CD5CDD4F8883C353D2408281C95CDD4F6A
:101AA0008883C753D2408381C55CDD4F8883CB5385
:101AB000D2408481C05DDD4F8883C053D240858190
:101AC000CC5CDD4F8883C453D2408681C85CDD4F37
:101AD0008883C853D2408781C45CDD4F8883CC5350
:101AE000D240CE01835D9D4F0E944C0ACE01895F9A
:101AF0009E4F0E94410640E150E0B601CE01895F51
:101B00009E4F0E94790540E351E0BE01635D7D4F29
:101B1000CE01895F9E4F0E94750880E1E0E3F1E00D
:101B2000DE01A35FBD4F01900D928A95E1F7C801D8
:101B30000E94410640E150E0B601C8010E947905CB
:101B400045E451E0BE01635F7D4FC8010E94750806
:101B500085E491E00E944C0A88E0E0E3F1E0ABEC20
:101B6000B1E001900D928A95E1F788E0E5E4F1E0BB
:101B7000A3EDB1E001900D928A95E1F77DCE85301D
:101B800079F148F148E050E06CEB71E0863009F4FF
:101B900044CFC8010E94C11443CF8739A9F158F43A
:101BA0008D3041F18F3259F18A3099F748E050E099
:101BB0006CEC71E032CF893D61F18B3E79F1833B72
:101BC00041F748E050E06CEE71E027CF48E050E08C
:101BD00064EA71E022CF48E050E06CEA71E01DCF8A
:101BE00048E050E064EB71E018CF48E050E064EC6E
:101BF00071E013CF48E050E064ED71E00ECF48E0B3
:101C000050E06CED71E009CF48E050E064EE71E027
:101C100004CF48E050E064EF71E0FFCE48E050E0D0
:101C20006CEF71E0FACE85EA8093C80182E180937F
:101C3000C90186E08093CA017E01F9EFEF1AFEEF39
:101C4000FF0A80E1D7011D928A95E9F7809155013D
:101C50008E010F5F1F4F98E0F80111929A95E9F7F6
:101C6000883009F4D9C008F0AFC0833009F4C5C08A
:101C700008F09CC048E050E06AE172E0813051F029
:101C800048E050E062E172E0823020F048E050E04D
:101C900062E272E0C8010E94EE1380914501D70113
:101CA0008C938091460114968C93149780914701F0
:101CB00018968C931897809148011C968C931C97CA
:101CC0008091490111968C93119780914A01159644
:101CD0008C93159780914B0119968C93199780914D
:101CE0004C011D968C931D97898112968C931297A7
:101CF0008A8116968C9316978B811A968C931A97D5
:101D00008C811E968C931E978D8113968C931397BE
:101D10008E8117968C9317978F811B968C931B97A8
:101D200088851F968C93C7010E944C0A4E01B3EF21
:101D30008B1ABDEF9B0A90E1792EF401272D1192A9
:101D40002A95E9F760915501C4010E94A40AC801CF
:101D50000E9441065E0143EDA41A4DEFB40AD5017D
:101D6000E72D1D92EA95E9F76E01F3EBCF1AFDEF2F
:101D7000DF0AD601E72D1D92EA95E9F740E850E029
:101D8000B401C8010E947905A501B701C8010E94EC
:101D90007508A601B501C8010E947508F601ABECF3
:101DA000B1E001900D927A94E1F76BCD853079F135
:101DB00048F148E050E062E472E0863009F46ACF0E
:101DC000C8010E94C11469CF8739A9F158F48D3038
:101DD00041F18F3259F18A3099F748E050E062E5DD
:101DE00072E058CF893D61F18B3E79F1833B41F739
:101DF00048E050E062E772E04DCF48E050E06AE230
:101E000072E048CF48E050E062E372E043CF48E040
:101E100050E06AE372E03ECF48E050E06AE472E0EE
:101E200039CF48E050E06AE572E034CF48E050E056
:101E300062E672E02FCF48E050E06AE672E02ACF17
:101E400048E050E06AE772E025CF48E050E062E801
:101E500072E020CF5E01F3E5AF1AFDEFBF0A80E12B
:101E6000382ED501E32D1D92EA95E9F77E01F3EDB9
:101E7000EF1AFDEFFF0A80E2D701E82F1D92EA95E5
:101E8000E9F76E01F3EBCF1AFDEFDF0AD601E82F79
:101E90001D92EA95E9F74E01F3E48F1AFDEF9F0AD0
:101EA000D401E32D1D92EA95E9F78E0103591D4FE8
:101EB000D801E82F1D92EA95E9F73E01F3E76F1A82
:101EC000FDEF7F0AD301E82F1D92EA95E9F7EEE5D1
:101ED000F1E0DE01A35FBD4F01900D928A95E1F71D
:101EE00040E150E066E373E0C5010E94EE13CE01CD
:101EF00001960E94410640E150E0B501CE010196F5
:101F00000E9479059401A701BE01635F7D4FCE0158
:101F100001960E949C06F701389688E0D601019050
:101F20000D928A95E1F7D601189688E0F7010190A5
:101F30000D928A95E1F7F6017096DF011D923A94B1
:101F4000E9F740E150E066E273E0C8010E94EE1359
:101F5000D7015096F801C80140963D912191321762
:101F600011F18AE093E00E945D040FB6F8945EBE22
:101F70000FBE4DBEC453DD4F0FB6F894DEBF0FBE8B
:101F8000CDBFDF91CF911F910F91FF90EF90DF9028
:101F9000CF90BF90AF909F908F907F906F905F9009
:101FA0004F903F9008958E179F07B9F640E150E09B
:101FB0006AEF72E0C5010E94EE13CE01895F9E4F69
:101FC0000E94410640E150E0B501CE01895F9E4F7D
:101FD0000E9479059401A301B601CE01895F9E4F4D
:101FE0000E949C064BE050E06FEE72E088EC91E0BE
:101FF0000E94EE1380E2F301A3EDB1E001900D9297
:102000008A95E1F73ECC46E050E069EE72E0E5CB20
:1020100046E050E063EE72E0E0CB46E050E067ED72
:1020200072E0DBCB45E050E062ED72E088EC91E0DD
:102030000E94EE1360E085E031CC45E150E067EBB3
:1020400072E088EC91E00E94EE1360E085E126CC1E
:1020500049E050E06EEA72E088EC91E00E94EE13F5
:1020600060E089E01BCC46E050E068EA72E0B5CB66
:102070008091BA018F3FF1F42FB7F8948091C40199
:102080009091C501A091C601B091C7012FBF4091A9
:102090004101509142016091430170914401841BC0
:1020A000950BA60BB70B893E9340A105B10508F42B
:1020B0005CCF3DCC2B9859CF1F920F920FB60F9249
:1020C00011242F933F938F939F93AF93BF9380914E
:1020D000C4019091C501A091C601B091C701309192
:1020E000C30123E0230F2D3758F50196A11DB11D23
:1020F0002093C3018093C4019093C501A093C601AE
:10210000B093C7018091BF019091C001A091C1011E
:10211000B091C2010196A11DB11D8093BF019093A2
:10212000C001A093C101B093C201BF91AF919F9133
:102130008F913F912F910F900FBE0F901F90189588
:1021400026E8230F0296A11DB11DD2CF1F920F9238
:102150000FB60F9211242F933F934F935F936F937A
:102160007F938F939F93AF93BF93EF93FF9388E0F9
:1021700092E00E94EE03FF91EF91BF91AF919F918A
:102180008F917F916F915F914F913F912F910F9020
:102190000FBE0F901F9018951F920F920FB60F92BF
:1021A00011242F938F939F93EF93FF93E091180245
:1021B000F09119028081E0911E02F0911F0282FDD0
:1021C0001BC09081809121028F5F8F73209122022A
:1021D000821741F0E0912102F0E0E85FFD4F958F1A
:1021E00080932102FF91EF919F918F912F910F90FA
:1021F0000FBE0F901F9018958081F4CF1F920F9201
:102200000FB60F9211242F933F934F935F936F93C9
:102210007F938F939F93AF93BF93EF93FF93E0913F
:10222000B501F091B601309749F0A089B189858553
:1022300090A191FF14C09C918923A1F4FF91EF918B
:10224000BF91AF919F918F917F916F915F914F91CE
:102250003F912F910F900FBE0F901F9018959C915A
:10226000892361F7A589B6899C91878980958923FF
:102270008C93808D918D0197F1F7628D738DA0897C
:10228000B189558538E020E0CB010197F1F7822F25
:1022900090E095958795282F4C91452309F020686B
:1022A000315091F780A181FD20958091B40190E09B
:1022B00001968F7399273091B301381799F0A09147
:1022C000B401B0E0AD58BE4F2C938093B401848D1F
:1022D000958D0197F1F7A589B6898C919789892BFE
:1022E0008C93ACCF80A1816080A3F1CF90E0FC0102
:1022F000E858FB4F2491FC01E853FA4F3491FC015C
:10230000EC54FA4FE491EE23C9F0222339F0233044
:1023100001F1A8F4213019F1223029F1F0E0EE0F9B
:10232000FF1FE655FA4FA591B4918FB7F894EC9141
:10233000611126C030953E233C938FBF089527300E
:10234000A9F02830C9F0243049F7809180008F7DB2
:1023500003C0809180008F7780938000DFCF84B5A9
:102360008F7784BDDBCF84B58F7DFBCF8091B000AC
:102370008F778093B000D2CF8091B0008F7DF9CF5E
:102380003E2BDACF0F931F93CF93DF9310920B0264
:1023900010920A0288EE93E0A0E0B0E080930C0275
:1023A00090930D02A0930E02B0930F022DE031E046
:1023B000309309022093080225EC30E03093150297
:1023C0002093140224EC30E030931702209316027D
:1023D00020EC30E0309319022093180221EC30E019
:1023E00030931B0220931A0222EC30E030931D023E
:1023F00020931C0226EC30E030931F0220931E0233
:1024000010922102109222021092230210922402B2
:102410001092A8021092A7028093A9029093AA0298
:10242000A093AB02B093AC028FE191E09093A6022F
:102430008093A5021092BE021092BD021092C002BB
:102440001092BF021092C2021092C1021092C402F6
:102450001092C3026091C5026E7F6D7F6093C502CA
:102460006695617081E0682783E00E9476114BECED
:1024700055E0FA01649187EB95E0FC012491222359
:1024800099F030E0220F331FF901E056FA4FA59181
:10249000B491F901E655FA4F259134912FB7F8948C
:1024A0003C91632B6C932FBFFA0144914093B70288
:1024B000FC018491E82FF0E0EE0FFF1FE655FA4F84
:1024C000859194919093B9028093B8020AEC15E03B
:1024D000F8012491C6EBD5E0FE0184918823C9F070
:1024E00090E0880F991FFC01E056FA4FA591B49136
:1024F000FC01E655FA4F459154913FB7F8949C91F1
:10250000822F809598239C93FA0190818923808360
:102510003FBF8091C50281FD04C061E082E00E945E
:10252000761182E08093B102F80104910093B20227
:10253000FE01C491EC2FF0E0EE0FFF1FEA56FA4FB8
:10254000859194919093B6028093B502DF91CF91DB
:102550001F910F910895789484B5826084BD84B5ED
:10256000816084BD85B5826085BD85B5816085BD8E
:1025700080916E00816080936E0010928100809146
:1025800081008260809381008091810081608093CE
:102590008100809180008160809380008091B100F3
:1025A00084608093B1008091B00081608093B0001E
:1025B00080917A00846080937A0080917A008260B2
:1025C00080937A0080917A00816080937A00809174
:1025D0007A00806880937A001092C1001092C20243
:1025E0001092C1021092C0021092BF021092BE025D
:1025F0001092BD0282E08093B3028DEC90E0909344
:10260000C4028093C3029091B102963108F047C092
:1026100025E530E03093BE022093BD022BEC30E084
:102620003093C0022093BF022CE231E03093C2020B
:102630002093C1022091680084E0983048F031E096
:102640009E3008F430E081E001C0880F3A95EAF747
:10265000822B809368002DE630E0983050F02BE616
:1026600030E09E3030F02CE630E0963110F030E073
:1026700020E03093BB022093BA02292F30E098303B
:1026800008F06DC081E001C0880F9A95EAF7809349
:10269000BC028091C3029091C4020197F1F780912E
:1026A000C1029091C202892B49F1E091B501F091EC
:1026B000B60182E0E53AF80709F1309739F0A589CB
:1026C000B6899C918789809589238C938091C502D6
:1026D0008E7F8093C5021092B4011092B30185EAF7
:1026E00092E09093B6018093B501E091BA02F09127
:1026F000BB0280819091BC02892B808383E0809310
:1027000002010E941A030E941A035798239A2B9AD7
:1027100085EA4F9B31C08093B70186E08093B80172
:102720008093B9018FEF8093BA018093BB018093AE
:10273000BC018093BD0182E58093BE018AE694E0EE
:102740000E94FC09C0E0D0E00E94310B2097E1F329
:102750000E94DA038823C1F30E940000F5CF9E3067
:1027600040F42850310981E001C0880F2A95EAF72A
:102770008ECF2E503109F7CF8093B70186E080933A
:10278000B8018093B90186E58093BA011092BB012C
:102790001092BC011092BD018EE48093BE018DE5C4
:1027A00094E0CECF8FE191E09093A6028093A502B2
:1027B0008091B5019091B601855A924071F4E091F3
:1027C000BA02F091BB0290818091BC02809589236E
:1027D00080831092B6011092B5010895FB01DC01CF
:1027E00002C005900D9241505040D8F7089597FBD4
:1027F000072E16F4009407D077FD09D00E940B1421
:1028000007FC05D03EF4909581959F4F08957095F3
:1028100061957F4F0895AA1BBB1B51E107C0AA1FFA
:10282000BB1FA617B70710F0A61BB70B881F991F71
:102830005A95A9F780959095BC01CD010895EE0FAA
:10284000FF1F0590F491E02D09940F931F93CF93F0
:10285000DF938230910510F482E090E0E091C802AD
:10286000F091C90230E020E0B0E0A0E0309799F4A8
:102870002115310509F44AC0281B390B24303105D4
:10288000D8F58A819B816115710589F1FB019383DC
:102890008283FE0111C0408151810281138148175A
:1028A0005907E0F04817590799F4109761F012960C
:1028B0000C93129713961C933296CF01DF91CF9110
:1028C0001F910F9108950093C8021093C902F4CF8D
:1028D0002115310551F04217530738F0A901DB01EA
:1028E0009A01BD01DF01F801C1CFEF01F9CF90934B
:1028F000C9028093C802CDCFFE01E20FF31F81937E
:1029000091932250310939832883D7CF2091C60271
:102910003091C702232B41F420910501309106012B
:102920003093C7022093C602209103013091040125
:102930002115310541F42DB73EB740910701509163
:102940000801241B350BE091C602F091C702E21783
:10295000F307A0F42E1B3F0B2817390778F0AC01C2
:102960004E5F5F4F2417350748F04E0F5F1F50939F
:10297000C7024093C602819391939FCFF0E0E0E0BD
:102980009CCFCF93DF930097E9F0FC01329713823D
:102990001282A091C802B091C902ED0130E020E09E
:1029A0001097A1F420813181820F931F2091C602DC
:1029B0003091C7022817390709F061C0F093C702A8
:1029C000E093C602DF91CF910895EA01CE17DF07A9
:1029D000E8F54A815B819E0141155105B1F7E90196
:1029E000FB83EA8349915991C40FD51FEC17FD076A
:1029F00061F4808191810296840F951FE90199838A
:102A00008883828193819B838A83F0E0E0E0129641
:102A10008D919C9113970097B9F52D913C91119749
:102A2000CD010296820F931F2091C6023091C702FA
:102A30002817390739F6309751F51092C9021092CC
:102A4000C802B093C702A093C602BCCFD383C2838F
:102A500040815181840F951FC817D90761F44E5FDB
:102A60005F4F88819981480F591F518340838A8124
:102A70009B81938382832115310509F0B0CFF093B8
:102A8000C902E093C8029ECFFD01DC01C0CF1382D2
:102A90001282D7CF12E0CFEED2E004C0FE010E9436
:0E2AA0001F142196C03FD107C9F7F894FFCF4D
:102AAE000004010000CA0280000000000010047043
:102ABE00039D037804CE03AC03C00300000000B1F5
:102ACE000470037605B0043D05550598040D0A0003
:00000001FF
