:020000040000FA
:100000000C9406030C942E030C942E030C94AC1148
:100010000C94AC110C94AC110C942E030C942E0384
:100020000C942E030C942E030C942E030C942E038C
:100030000C942E030C942E030C942E030C942E037C
:100040000C940A110C942E030C947A110C945411F4
:100050000C942E030C942E030C942E030C942E035C
:100060000C942E030C942E035C52D91CF382ACA486
:1000700089D88178EC16297B9D4F50FCE1B68E1211
:1000800009307DDBA6A5B5AA0975988864ACF7622E
:100090001BC0909DF0FCABFFC9115CE2064A2686AE
:1000A000D8D6D9D08CDE3059667539D2FB4273B2BE
:1000B000903FD7A39ED2C60CF4FAEF20F4DBAB310D
:1000C000D18674FD8F990566EA0C811363D7E930F8
:1000D000F961135A4F352DDC0A2E73305C382D4FE1
:1000E000310D0AED84A41800D20474308FE2690443
:1000F0006ED7BB07CF1CFF43AC00C0E3E80AF06833
:100100003FDD1745194543BD0177D750BDFD2BC1D4
:10011000A0493A134A4C6ACF05349170939345EE47
:10012000951A14843334A0DEDFF3FCD608B055975B
:10013000CF09A23BD17D3FD24AA7C7B01134466F49
:10014000AC82163E4BB51BF9CAC8B87ACD9EC49690
:1001500090ABE0813920B11003BEB65499140483EA
:10016000BA187A64EF90261DC7AC1306DEFE39EC90
:1001700083A1483B0EE2EC89418499BE9D35A3B929
:10018000FC6AD0D6F041BB2620003000D2072253B3
:10019000A4F27468B37A16EF557BD089A04E32BBB7
:1001A000A7139E46B0B809833989FAE2FE7D789993
:1001B000BFEC47C5306F3A03D86CBEE48422DFEA57
:1001C000E21B63C2AD4043B256EB458BC2377E8A19
:1001D00074096C5F581C7F1944F96262F1BC562B9C
:1001E000D55BB077AF6010A846F741F3DBD3AEA480
:1001F000DB04641090E1F0C00178E3FF0BD9027ECC
:10020000851FA1234B6579206E6F7420666F756E14
:100210006400F5D7D4B575F08E4ECC699581FD8913
:10022000126C495E034794931D7BF4E04313AD2E9B
:10023000B4DB865E3EEF9DFBB1FDFF72BD2B83B844
:100240009D2F58B95AAEF399DBD067C07215D96BA0
:1002500039A1093EC519AF0F502D318053875C205D
:100260003E241BDF2433EB29155B9DEEC01144B601
:100270006F41E32B8F56B2641298C34A6A7B205FAA
:10028000E8F9F791ED0B3F49A4484C4F5720504FE8
:10029000574552004E6F206F7074696F6E20736502
:1002A0006C65637465642000A50406E2046AA50712
:1002B000069D1010281454A51306536F6E79456ED1
:1002C00065726779446576696365736BA504066832
:1002D00010D8A503061B36A5040601044BA5040689
:1002E0000F0041A50406080741A5040636100AA51B
:1002F0002A062001000082828282DA24DAB43A617E
:10030000CBDF61FD255D0AEA7957476F2048616EB2
:10031000647368616B6520526571756573742069DB
:10032000732076616C696400496E76616C69642043
:10033000726571756573742066726F6D2053797381
:10034000636F6E00880E2A94110926B20E53E22ABA
:10035000E648AE9DC66E9ED6ECBCB121B7465D2583
:10036000037D6646474F3A202020202020005A0275
:1003700001A2A5050610C3067629200028200050FA
:1003800053503A202020202000637C777BF26B6F53
:10039000C53001672BFED7AB76CA82C97DFA5947B3
:1003A000F0ADD4A2AF9CA472C0B7FD9326363FF740
:1003B000CC34A5E5F171D8311504C723C3189605CF
:1003C0009A071280E2EB27B27509832C1A1B6E5A2A
:1003D000A0523BD6B329E32F8453D100ED20FCB1CA
:1003E0005B6ACBBE394A4C58CFD0EFAAFB434D33A2
:1003F0008545F9027F503C9FA851A3408F929D38BC
:10040000F5BCB6DA2110FFF3D2CD0C13EC5F9744A4
:1004100017C4A77E3D645D197360814FDC222A906A
:100420008846EEB814DE5E0BDBE0323A0A49062459
:100430005CC2D3AC629195E479E7C8376D8DD54E37
:10044000A96C56F4EA657AAE08BA78252E1CA6B4D3
:10045000C6E8DD741F4BBD8B8A703EB5664803F657
:100460000E613557B986C11D9EE1F8981169D98E84
:10047000949B1E87E9CE5528DF8CA1890DBFE642EB
:100480006841992D0FB054BB165374617274207378
:10049000657276696365005374617274206E6F7261
:1004A0006D616C00000000080002010000030407F9
:1004B000000000000000000052096AD53036A5385F
:1004C000BF40A39E81F3D7FB7CE339829B2FFF873C
:1004D000348E4344C4DEE9CB547B9432A6C2233D20
:1004E000EE4C950B42FAC34E082EA16628D924B2D1
:1004F000765BA2496D8BD12572F8F66486689816F2
:10050000D4A45CCC5D65B6926C704850FDEDB9DA50
:100510005E154657A78D9D8490D8AB008CBCD30A3E
:10052000F7E45805B8B34506D02C1E8FCA3F0F021A
:10053000C1AFBD0301138A6B3A9111414F67DCEAE9
:1005400097F2CFCEF0B4E67396AC7422E7AD358562
:10055000E2F937E81C75DF6E47F11A711D29C5896C
:100560006FB7620EAA18BE1BFC563E4BC6D279204E
:100570009ADBC0FE78CD5AF41FDDA8338807C73157
:10058000B11210592780EC5F60517FA919B54A0D4F
:100590002DE57A9F93C99CEFA0E03B4DAE2AF5B0C4
:1005A000C8EBBB3C83539961172B047EBA77D626E0
:1005B000E169146355210C7D41726475696E6F3A6F
:1005C0002000000000002300260029000000000099
:1005D000240027002A0000000000250028002B002E
:1005E00004040404040404040202020202020303D9
:1005F00003030303010204081020408001020408E1
:1006000010200102040810207012AF1411241FBE24
:10061000CFEFD8E0DEBFCDBF11E0A0E0B1E0E8E66B
:10062000FCE202C005900D92A033B107D9F722E099
:10063000A0E3B1E001C01D92A23FB207E1F713E0D1
:10064000C5E0D3E004C02197FE010E94FC14C43031
:10065000D107C9F70E9459130C9427160C94000077
:10066000DB01FC01242F3C91308311963C911197C2
:10067000318312963C911297328313963C911397D3
:100680003383245014963496243068F72CEF240FCB
:100690002695269530E02F5F3F4F220F331F220F04
:1006A000331F4370DB01A20FB31FFC01E20FF31FE6
:1006B000415018F08D918193FBCF0895AF92BF9276
:1006C000CF92DF92EF92FF920F931F93CF93DF931E
:1006D0006C017B018B01040F151FEB015E01AE184D
:1006E000BF08C017D10759F06991D601ED91FC916F
:1006F0000190F081E02DC6010995892B79F7C5019C
:10070000DF91CF911F910F91FF90EF90DF90CF90ED
:10071000BF90AF900895FC01538D448D252F30E09C
:10072000842F90E0821B930B541710F0CF960895FE
:1007300001970895FC01918D828D981761F0A28D2B
:10074000AE0FBF2FB11D5D968C91928D9F5F9F73F1
:10075000928F90E008958FEF9FEF0895FC01918DA7
:10076000828D981731F0828DE80FF11D858D90E014
:1007700008958FEF9FEF0895FC01918D228D892FB1
:1007800090E0805C9F4F821B91098F739927089599
:1007900080E392E00E94BC0321E0892B09F420E071
:1007A000822F089580E090E0892B29F00E94C803F1
:1007B00081110C9400000895FC01A48DA80FB92F9D
:1007C000B11DA35ABF4F2C91848D90E001968F7379
:1007D0009927848FA689B7892C93A089B1898C9198
:1007E000837080648C93938D848D981306C00288E7
:1007F000F389E02D80818F7D80830895EF92FF92B1
:100800000F931F93CF93DF93EC0181E0888F9B8D33
:100810008C8D98131AC0E889F989808185FF15C0ED
:100820009FB7F894EE89FF896083E889F989808110
:100830008370806480839FBF81E090E0DF91CF91DF
:100840001F910F91FF90EF900895F62E0B8D10E001
:100850000F5F1F4F0F731127E02E8C8D8E110CC070
:100860000FB607FCFACFE889F989808185FFF5CFBB
:10087000CE010E94DC03F1CFEB8DEC0FFD2FF11DBB
:10088000E35AFF4FF0829FB7F8940B8FEA89FB89F8
:1008900080818062CFCF0F931F93CF93DF938C0122
:1008A000D0E0C0E0F801EC0FFD1F6491662341F039
:1008B00080E392E00E94FE03892B11F02196F2CF93
:1008C000CE01DF91CF911F910F910895CF93DF93C8
:1008D000EC01888D8823B9F0AA89BB89E889F98958
:1008E0008C9185FD03C0808186FD0DC00FB607FC8D
:1008F000F7CF8C9185FFF2CF808185FFEDCFCE01C0
:100900000E94DC03E9CFDF91CF9108952091DD01B2
:100910003091DE012817390771F49091DB01809145
:10092000DC01981741F0E091DB01F0E0E556FE4F65
:10093000808190E008958FEF9FEF08950895EF92E2
:10094000FF920F931F93CF93DF93DC015E968D91FF
:100950009C915F97009779F481E090E013969C93C7
:100960008E93129790E080E0DF91CF911F910F91CD
:10097000FF90EF9008955396ED91FC915497529605
:100980002C915297322F30951FB790964C9190979B
:10099000042F027041FD6095F8944081002309F412
:1009A0004CC0422B4083EC012197F1F71F961C921B
:1009B0001F9748E0E62EF12C508160FF40C0522B7B
:1009C00050831F965C911F975F5F1F965C931F97E4
:1009D000EC012197F1F7B70175956795415051F7F3
:1009E0001E964C911E9741110BC01F964C911F975C
:1009F00040FF28C0408143234083EC012197F1F759
:100A00001E964C911E97423051F41F964C911F97A1
:100A100040FF1BC04081422B40830197F1F780814A
:100A20000023B1F0382330831FBF5E968D919C91D7
:100A30000197F1F781E090E097CF4323B3CF5323A1
:100A40005083C6CF4081422BD7CF40814323E4CF90
:100A5000282B2083E9CF2091DD013091DE0128177A
:100A6000390771F48091DC012091DB0190E0805C1A
:100A70009F4F821B910960E470E00E94D414089596
:100A800090E080E008952091DD013091DE0128178B
:100A90003907B9F49091DB018091DC01981789F056
:100AA000E091DB01F0E0E556FE4F80812091DB0113
:100AB00030E02F5F3F4F2F7333272093DB0190E00F
:100AC00008958FEF9FEF089590E080E008952F92B2
:100AD0003F925F926F927F928F929F92AF92BF925E
:100AE000CF92DF92EF92FF920F931F93CF93DF93FA
:100AF00000D000D0CDB7DEB7FC014032510509F47B
:100B00009AC0F8F44031510541F14831510509F4DA
:100B10008CC010828FEF0F900F900F900F90DF918D
:100B2000CF911F910F91FF90EF90DF90CF90BF90EA
:100B3000AF909F908F907F906F905F903F902F909D
:100B40000895403C510509F470C0411521E0520759
:100B500009F471C040385105E1F68AE0808340E134
:100B6000E42EF12C8F0160806394629480EF682200
:100B7000DE2C4E2DCF0103960E9430039E2C8E2C2E
:100B8000CC24C394BE016B5F7F4F9BE1792E9614FA
:100B900008F071C0492D50E0FA013197E00FF11FC4
:100BA000CE010196DC0121912D93A617B707D9F745
:100BB000891049C029818D0CEA81F0E0E757FC4F8C
:100BC000E491EC25E983EB81F0E0E757FC4FE491F9
:100BD000EA83EC81F0E0E757FC4FE491EB83E22FEE
:100BE000F0E0E757FC4FE491EC83C7FE2AC0CC0C41
:100BF000C724FA0133961F01200E311E292D2D190D
:100C000030E0FC015190CF015101A41AB50AA20EA7
:100C1000B31EF501B080B524F101B1921F018A170E
:100C20009B0779F7F4E09F0EB2CF8CE0808338E128
:100C3000E32EF12C97CF8EE0808320E2E22EF12C80
:100C400091CFCC0CD6CFE0E2EE16F10491F6292D2F
:100C50002F71203171F69C01F901B1909F01EB2DAC
:100C6000F0E0E757FC4FB490F9013197B0822A17B2
:100C70003B0791F7BECF80E04ECFFC01E950FF4F1C
:100C800022E82083319624E82083319628E82083C7
:100C900031962FE92083319632E93083319634E959
:100CA0003083319638E9308331962083319622EAB9
:100CB0002083319624EA2083319628EA20833196D6
:100CC0002FEA2083319622EB2083319624EB208378
:100CD000319628EB208326E030E0FC01328321832B
:100CE0000895CF93DF93FC01EB01DA019C01205FB3
:100CF0003F4F88819C9189278083898111969C919F
:100D00001197892781838A8112969C91129789274E
:100D100082838B8113969C911397892783833496C2
:100D200024961496E217F30721F7DF91CF910895E7
:100D30002F923F924F925F926F927F928F929F92EB
:100D4000AF92BF92CF92DF92EF92FF920F931F93D9
:100D5000CF93DF93CDB7DEB7C154D1090FB6F89466
:100D6000DEBF0FBECDBF7C017EAB6DAB58AF4FABCE
:100D70001EAF0DAFFC01EB50FF4F80E290E091837E
:100D8000808340E850E0B901C7010E9467052FA9A0
:100D900038AD205E3F4F3AAB29AB2FA838ACC70126
:100DA00003969AAF89AF1BE1EDADFEAD709622962A
:100DB000FFAFEEAF229729A93AA92215330509F40E
:100DC00090C140E16DA97EA9CE0181960E943003B9
:100DD000F7014081442309F484C1F0E14F9FA00151
:100DE000112429AD3AAD420F531F6DA97EA9CE0142
:100DF00041960E947106E989F0E0E854FB4FE491C6
:100E0000E98BED89F0E0E854FB4FE491ED8BE98D3F
:100E1000F0E0E854FB4FE491E98FED8DF0E0E85409
:100E2000FB4FE491ED8F8E8DEA8DF0E0E854FB4F9F
:100E3000E491EE8FEE89F0E0E854FB4FE491EA8F05
:100E4000EA89F0E0E854FB4FE491EE8BE82FF0E004
:100E5000E854FB4FE491EA8B8B89EB8DF0E0E8548A
:100E6000FB4FE491EB8BE82FF0E0E854FB4FE4916B
:100E7000EB8F8F89EF8DF0E0E854FB4FE491EF8B1F
:100E8000E82FF0E0E854FB4FE491EF8F8C89E88D78
:100E9000F0E0E854FB4FE491EC8BEC8DF0E0E8548B
:100EA000FB4FE491E88FE8A1F0E0E854FB4FE491B8
:100EB000EC8FE82FF0E0E854FB4FE491E8A3F70152
:100EC00080818150F0E18F9FC001112429AD3AAD9E
:100ED000280F391F3CAB2BAB89AD9AADEBA9FCA910
:100EE0008E179F0709F4C2C0AF01BE016F5E7F4F2E
:100EF000CE0101960E947106DE0111969E012F5EC1
:100F00003F4F3CAF2BAF65E070E09C9111968C9108
:100F1000119712963C91129713962C911397D92EF4
:100F2000DD0C97FDD126B82EBB0C87FDB126C32E54
:100F3000CC0C37FDC126022F000F27FD01274D2DB8
:100F4000440FD7FC41274B2C440CB7FE04C05B2D4B
:100F5000550F452E41269C2C990CC7FC9126A02E9E
:100F6000AA0C07FDA126842E880C47FF04C0542F2D
:100F7000550F852E8126542D550F47FC5127F92DED
:100F8000FF0F97FCF127EA2DEE0FA7FCE127792E42
:100F90007824582E5526632E6F266FAE622E6E264D
:100FA000482554259F26AE26E32FED25EB25E42783
:100FB000E525E925E625F0E0E854FB4F3491EBAD5B
:100FC000FCAD3083E22FEB25EC25E725E5272FAD9F
:100FD000E227EA25F0E0E854FB4FB490FB01EF7004
:100FE000FF2721E130E02C0F3D1FE20FF31FB082FD
:100FF0009C2590274927542695246924E62DF0E066
:10100000E854FB4F6490FB013596EF70FF2721E118
:1010100030E02C0F3D1FE20FF31F6082E82FED251B
:10102000E027E7255E27EFADE527AE26EA2DF0E0C5
:10103000E854FB4F4491CB010A968F709927820F99
:10104000931FFC01408314962BAD3CAD2C5F3F4FAA
:101050003CAF2BAF6C5F7F4F6531710509F055CF09
:101060008BA99CA940979CAB8BAB36CF49AD5AADB1
:10107000BE016F5E7F4FC1010E947106ADADBEAD76
:10108000F10180819C9189278083818111969C91B7
:10109000119789278183828112969C9112978927C3
:1010A0008283838113969C91139789278383149657
:1010B000349622962EAD3FAD22972A173B0709F7AB
:1010C00040E1BE016F5D7F4F8DAD9EAD0E9430034C
:1010D00030E1230E311C8DA99EA940969EAB8DABAD
:1010E0006ACEF701818192818230910509F144F441
:1010F0000097F1F0019709F452C080E290E01FC020
:101100008430910509F441C00697B9F7EFA9F8AD0D
:10111000978DF701E95FFE4F28EFE20EF11C80E0AA
:101120002291921731F1822FEE16FF06C9F722C0E5
:10113000EFA9F8AD278D80E290E0821B9109CF5B8B
:10114000DF4F0FB6F894DEBF0FBECDBFDF91CF915A
:101150001F910F91FF90EF90DF90CF90BF90AF90D5
:101160009F908F907F906F905F904F903F902F90C7
:101170000895282FE9A9FAA98FE190E0329123136D
:1011800002C00197D8F70196DACFE9A9FAA98FE151
:1011900090E022912032B9F70197D8F7F4CFE9A96E
:1011A000FAA98FE190E022912111C9CF0197D8F7D8
:1011B000C6CF2F923F924F925F926F927F928F9203
:1011C0009F92AF92BF92CF92DF92EF92FF920F93D6
:1011D0001F93CF93DF93CDB7DEB7A0970FB6F894E8
:1011E000DEBF0FBECDBFFC012081222309F411C157
:1011F0005A016C017C01F3E0EF0EF11C8E010F5ED1
:101200001F4FA701C8010E947106992493949BE186
:10121000892EF6018081981608F073C0A801DE01BE
:1012200011968FE0782E3AE085E0BD01F801E80FD5
:10123000F11D40808C5F8F70F801E30FF11D50802D
:101240003C5F3F70F801E70DF11D208194E0970DA0
:101250009F70792EFA019081E92FF0E0E757FC4F5B
:101260006490E42DF0E0E757FC4F4490E52DF0E06A
:10127000E757FC4F9491E22FF0E0E757FC4F2491A1
:10128000562C550C67FC5824242C220C47FE04C015
:10129000342C330C232C2824E92FEE0F97FDE8255E
:1012A000F22FFF0F27FDF825342C3926322635245E
:1012B00032243C92362C3926322632243E26119690
:1012C0003C921197642426252E272F2712962C93C3
:1012D0001297962595259F2713969C9313974C5FFD
:1012E0005F4F14960A171B0709F0A0CFF0E19F9EED
:1012F000A00111244E0D5F1DC8010E947106939438
:1013000088CFE989F0E0E757FC4FE491E98BED895C
:10131000F0E0E757FC4FE491ED8BE98DF0E0E75703
:10132000FC4FE491E98FED8DF0E0E757FC4FE4913D
:10133000ED8F8A89EE89F0E0E757FC4FE491EA8B64
:10134000EA8DF0E0E757FC4FE491EE8BEE8DF0E094
:10135000E757FC4FE491EA8FE82FF0E0E757FC4FA6
:10136000E491EE8F8B89EB8DF0E0E757FC4FE49131
:10137000EB8BE82FF0E0E757FC4FE491EB8F8F8980
:10138000EF8DF0E0E757FC4FE491EF8BE82FF0E0B2
:10139000E757FC4FE491EF8F88A1EC8DF0E0E75721
:1013A000FC4FE491E8A3E88DF0E0E757FC4FE491AF
:1013B000EC8FEC89F0E0E757FC4FE491E88FE82FE1
:1013C000F0E0E757FC4FE491EC8B80E1989EA001A0
:1013D00011244E0D5F1DB801C5010E94710680E009
:1013E000A0960FB6F894DEBF0FBECDBFDF91CF91B0
:1013F0001F910F91FF90EF90DF90CF90BF90AF9033
:101400009F908F907F906F905F904F903F902F9024
:1014100008958FEFE5CF1F93CF93DF93CDB7DEB75E
:10142000A1970FB6F894DEBF0FBECDBF182F803145
:1014300020F48AE891E00E944B04812F90E0B0E014
:10144000A0E019A2FE01B196AC01BD014F70552775
:101450006627772724E0B695A795979587952A95CF
:10146000D1F74A301CF5405D42930097A105B105C4
:1014700059F7309769F0DF010D900020E9F71197D7
:10148000AD014E1B5F0BBF0180E392E00E945E0343
:1014900088E891E00E944B04A1960FB6F894DEBF55
:1014A0000FBECDBFDF91CF911F910895495CDCCF76
:1014B00042E050E06DE271E080E392E00C945E0364
:1014C000CF93DF930E944B04EC010E94580A8C0FCB
:1014D0009D1FDF91CF910895CF92DF92FF920F93DE
:1014E0001F93CF93DF931F92CDB7DEB7082FF62E51
:1014F0001982482F50E060EF71E08DEC92E00E947D
:101500005E03FF20A1F0E0EFF1E080E090E02191A8
:10151000820F9F5F0913FBCF8095898341E050E0E4
:10152000BE016F5F7F4F8DEC92E00E945E0388EBFF
:1015300095E00E944B0480EFC82E81E0D82E10E089
:10154000F60181916F010E940B0A1F5F0113F8CF12
:10155000FF2019F089810E940B0A0E94580A0F90FF
:10156000DF91CF911F910F91FF90DF90CF90089561
:10157000CF93DF93CDB7DEB7A0970FB6F894DEBF59
:101580000FBECDBFDC01198AFE017296CE014196D5
:101590009E012F5D3F4F1192E217F307E1F7198289
:1015A00024E02A8328E02B832CE02C8321E02D8368
:1015B00025E02E8329E02F832DE0288722E029874C
:1015C00026E02A872AE02B872EE02C8723E02D8730
:1015D00027E02E872BE02F872FE0288BBE016F5F3F
:1015E0007F4FAC01FB012191BF012A0F3B2F311D21
:1015F000F9012081FA012193AF018617970791F72E
:1016000090E1FE01719601900D929A95E1F7A096F6
:101610000FB6F894DEBF0FBECDBFDF91CF91089516
:10162000693009F458C0A0F46330E1F140F461304E
:10163000A1F168F140E150E068E870E02CC065304D
:10164000D9F1A8F16630E9F1683009F43FC0089596
:101650006F3209F459C060F46B3009F446C008F4E5
:101660003FC06C3009F446C06D3009F448C008959D
:10167000633B09F453C020F4673909F44AC0089564
:10168000693D09F450C06B3E09F452C0089540E131
:1016900050E068E670E00C94CB1440E150E068E75D
:1016A00070E0F9CF40E150E068E970E0F4CF40E14C
:1016B00050E068EA70E0EFCF40E150E068EB70E0A6
:1016C000EACF40E150E068EC70E0E5CF40E150E067
:1016D00068ED70E0E0CF40E150E068EE70E0DBCF15
:1016E00040E150E068EF70E0D6CF40E150E068E0C4
:1016F00071E0D1CF40E150E068E171E0CCCF40E152
:1017000050E068E271E0C7CF40E150E068E371E08B
:10171000C2CF40E150E068E471E0BDCF40E150E06D
:1017200068E571E0B8CF40E150E068E671E0B3CF22
:1017300040E150E068E771E0AECF2F923F924F92C8
:101740005F926F927F928F929F92AF92BF92CF9251
:10175000DF92EF92FF920F931F93CF93DF93CDB75A
:10176000DEB7CC5CD2400FB6F894DEBF0FBECDBF63
:101770002DB63EB68DEC92E00E942B0504970CF43A
:10178000FFC08DEC92E00E944305182F80939701D3
:101790008FE793E00E944B04812F0E940B0A8091F7
:1017A00097018A35E9F58DEC92E00E944305182FE8
:1017B000809398018DEC92E00E94430580939901FB
:1017C000812F0E940B0A809199010E940B0A0091BF
:1017D0009801023041F5109296018DEC92E00E9442
:1017E000430580939A010E940B0A0E94580A1091A7
:1017F0009901193009F4BFC408F063C0133009F42B
:10180000B0C408F04BC0113009F465C3123009F4BC
:10181000B7C484E992E00E944B04812F0E940B0A16
:101820000E94580AADC02EEFF22EF00EF0929601F3
:101830000150110B33E2C32ED12C8DEC92E00E94AB
:101840002B058017910724F4C6010197F1F7F5CF16
:1018500096E5C92E91E0D92E10E08DEC92E00E9421
:101860004305D6018D936D011F5F1F15B0F38CE703
:1018700093E00E944B0410E080919601181748F401
:10188000E12FF0E0EA5AFE4F80810E940B0A1F5FB1
:10189000F3CF89E793E00E944B049FCF173009F400
:1018A00065C408F08EC446E050E06CEC72E0143081
:1018B00009F0AFCF80EF91E00E94CB1460E086E0AA
:1018C0005DC0163109F467C470F41C3009F449C0D6
:1018D0001D3009F46BC41B3009F09BCF46E050E08B
:1018E0006DED72E0E7CF113809F400C2103909F448
:1018F00050C3103809F08DCFADB6BEB66091560119
:10190000609355016E01B3EBCB1ABDEFDB0A80E1AA
:10191000F60111928A95E9F7C6010E94100B85EA3B
:101920008093F00182E18093F10186E08093F201DF
:10193000D6018C91811189C084E092E00E94600AF6
:10194000E3EFF1E083E092E02FEF21938E179F0702
:10195000E1F70FB6F894BEBE0FBEADBE61E083E105
:101960000DC0EFEDF1E0A0EFB1E086EE91E0219146
:101970002D938E179F07D9F761E087E00E946C0ACC
:10198000E3EFF1E083E092E011928E179F07E1F719
:1019900080910201B0E48B9FC0011124816080938B
:1019A0007C0080917A00806480937A0080917A0034
:1019B00086FDFCCF80917800909179009093010191
:1019C000809300018E3F93400CF000C48AE892E0BF
:1019D0000E94600A2FB7F8948091EC019091ED017C
:1019E000A091EE01B091EF012FBF409141015091C4
:1019F00042016091430170914401841B950BA60B39
:101A0000B70B8B3F9105A105B10508F44FC32FB764
:101A1000F8948091EC019091ED01A091EE01B091CC
:101A2000EF012FBF8093410190934201A0934301A6
:101A3000B09344018091400191E089278093400157
:101A4000882309F4E5C32B9A31C320919601822F94
:101A500090E0AC0141505109EDB7FEB7E41BF50B26
:101A60000FB6F894FEBF0FBEEDBF4DB75EB74F5F28
:101A70005F4F7A0111823296039797FF0AC0A7E55C
:101A8000B1E0F70181E0821738F49D9191938F5F67
:101A9000FACF11920197F1CF809155018E010F5F1E
:101AA0001F4F98E0D8011D929A95E9F7883009F404
:101AB000FFC008F0D5C0833009F4EBC008F0C2C005
:101AC00048E050E064E971E0813051F048E050E0D6
:101AD0006CE871E0823020F048E050E06CE971E0A1
:101AE000C8010E94CB148981C35DDD4F8883CD522C
:101AF000D2408A81CF5CDD4F8883C153D2408B8135
:101B0000CB5CDD4F8883C553D2408C81C75CDD4FF1
:101B10008883C953D2408D81C25DDD4F8883CE5208
:101B2000D2408E81CE5CDD4F8883C253D2408F81FC
:101B3000CA5CDD4F8883C653D2408885C65CDD4FC2
:101B40008883CA53D240F7018081C15DDD4F88830D
:101B5000CF52D2408181CD5CDD4F8883C353D240C8
:101B60008281C95CDD4F8883C753D2408381C55CC5
:101B7000DD4F8883CB53D2408481C05DDD4F8883A5
:101B8000C053D2408581CC5CDD4F8883C453D240A2
:101B90008681C85CDD4F8883C853D2408781C45C8E
:101BA000DD4F8883CC53D240CE01835D9D4F0E9490
:101BB000B80ACE01895F9E4F0E943D0640E150E089
:101BC000B601CE01895F9E4F0E94670540E351E058
:101BD000BE01635D7D4FCE01895F9E4F0E94D90893
:101BE00080E1E0E3F1E0DE01A35FBD4F01900D92E3
:101BF0008A95E1F7C8010E943D0640E150E0B60138
:101C0000C8010E94670545E451E0BE01635F7D4F56
:101C1000C8010E94D90885E491E00E94B80A88E0D2
:101C2000E0E3F1E0A3EFB1E001900D928A95E1F7D6
:101C300088E0E5E4F1E0ABEFB1E001900D928A9528
:101C4000E1F787CE853079F148F148E050E06CEB60
:101C500071E0863009F444CFC8010E949E1543CF3D
:101C60008739A9F158F48D3041F18F3259F18A301A
:101C700099F748E050E06CEC71E032CF893D61F1BA
:101C80008B3E79F1833B41F748E050E06CEE71E028
:101C900027CF48E050E064EA71E022CF48E050E00E
:101CA0006CEA71E01DCF48E050E064EB71E018CFC2
:101CB00048E050E064EC71E013CF48E050E064EDA0
:101CC00071E00ECF48E050E06CED71E009CF48E0E4
:101CD00050E064EE71E004CF48E050E064EF71E062
:101CE000FFCE48E050E06CEF71E0FACE85EA8093D9
:101CF000F00182E18093F10186E08093F2017E01A0
:101D0000F3EBEF1AFDEFFF0A80E1D7011D928A95F0
:101D1000E9F7809155018E010F5F1F4F98E0F801A0
:101D200011929A95E9F7883009F415C108F0EBC0D3
:101D3000833009F401C108F0D8C048E050E06AE1FE
:101D400072E0813051F048E050E062E172E08230B0
:101D500020F048E050E062E272E0C8010E94CB143B
:101D600080914501D7018C938091460114968C9304
:101D700014978091470118968C9318978091480189
:101D80001C968C931C978091490111968C93119706
:101D900080914A0115968C93159780914B01199665
:101DA0008C93199780914C011D968C931D97898176
:101DB00012968C9312978A8116968C9316978B8124
:101DC0001A968C931A978C811E968C931E978D81F0
:101DD00013968C9313978E8117968C9317978F81F8
:101DE0001B968C931B9788851F968C93C7010E9426
:101DF000B80A4E01B3ED8B1ABDEF9B0A80E1782E35
:101E0000F401272D11922A95E9F760915501C4013B
:101E10000E94100BC8010E943D065E0143EFA41A08
:101E20004DEFB40AD501E72D1D92EA95E9F76E0151
:101E3000F9EFCF1AFEEFDF0AD601E72D1D92EA95E2
:101E4000E9F740E850E0B401C8010E946705A50128
:101E5000B701C8010E94D908A601B501C8010E94B6
:101E6000D908F601A3EFB1E001900D927A94E1F761
:101E700061E083E10E946C0A809155018B3E19F06C
:101E8000833B09F07DCD44E050E06EE673E080EFE7
:101E900091E00E94CB1460E084E00E946C0A84E62A
:101EA00093E00E944B048DEC92E00E9443058093E6
:101EB00097018DEC92E00E944305809398018DEC90
:101EC00092E00E944305809399018DEC92E00E947C
:101ED000430580939A0147E050E062E773E080EFAA
:101EE00091E00E94CB1460E048CD853079F148F153
:101EF00048E050E062E472E0863009F42ECFC80179
:101F00000E949E152DCF8739A9F158F48D3041F1EB
:101F10008F3259F18A3099F748E050E062E572E07B
:101F20001CCF893D61F18B3E79F1833B41F748E05D
:101F300050E062E772E011CF48E050E06AE272E000
:101F40000CCF48E050E062E372E007CF48E050E099
:101F50006AE372E002CF48E050E06AE472E0FDCE4E
:101F600048E050E06AE572E0F8CE48E050E062E612
:101F700072E0F3CE48E050E06AE672E0EECE48E070
:101F800050E06AE772E0E9CE48E050E062E872E0D3
:101F9000E4CE5E01F3E5AF1AFDEFBF0AD501E0E143
:101FA0001D92EA95E9F76E01F3EDCF1AFDEFDF0A16
:101FB00080E2D601E82F1D92EA95E9F74E01F3EB96
:101FC0008F1AFDEF9F0AD401E82F1D92EA95E9F7D9
:101FD0003E01F3E46F1AFDEF7F0AD301E0E11D92A9
:101FE000EA95E9F77E01F3E9EF1AFDEFFF0AD70161
:101FF000E82F1D92EA95E9F72E01F3E74F1AFDEF5E
:102000005F0AD201E82F1D92EA95E9F7EEE5F1E0CB
:10201000DE01A35FBD4F01900D928A95E1F740E18B
:1020200050E064E573E0C5010E94CB14CE01019637
:102030000E943D0640E150E0B501CE0101960E94AC
:10204000670583019501A601BE01635F7D4FCE0147
:1020500001960E949806F601389688E0D401019016
:102060000D928A95E1F7D401189688E0F601019067
:102070000D928A95E1F7F4017096DF0120E11D923F
:102080002A95E9F740E150E064E473E0C7010E945B
:10209000CB14D6015096F701C70140963D9121918E
:1020A000321719F188E293E00E94600A0FB6F894A3
:1020B0003EBE0FBE2DBEC453DD4F0FB6F894DEBF3B
:1020C0000FBECDBFDF91CF911F910F91FF90EF9089
:1020D000DF90CF90BF90AF909F908F907F906F9048
:1020E0005F904F903F902F9008958E179F07B1F605
:1020F0008AE093E00E94600A40E150E06AEF72E0FB
:10210000C5010E94CB1480E1D3011D928A95E9F7A5
:10211000CE01895F9E4F0E943D0640E150E0B5012F
:10212000CE01895F9E4F0E94670583019501A20140
:10213000B401CE01895F9E4F0E9498064BE050E0AB
:102140006FEE72E080EF91E00E94CB1480E2F2012A
:10215000ABEFB1E001900D928A95E1F761E08BE27F
:102160000DCC46E050E069EE72E0A4CB46E050E0D2
:1021700063EE72E09FCB46E050E067ED72E09ACBF1
:1021800045E050E062ED72E080EF91E00E94CB14F8
:1021900060E085E0F3CB45E150E067EB72E080EF73
:1021A00091E00E94CB1460E085E1E8CB49E050E08B
:1021B0006EEA72E080EF91E00E94CB1460E089E06B
:1021C000DDCB46E050E068EA72E074CB8091E2013A
:1021D0008F3FF1F42FB7F8948091EC019091ED01CD
:1021E000A091EE01B091EF012FBF409141015091BC
:1021F00042016091430170914401841B950BA60B31
:10220000B70B893E9340A105B10508F44FCFFFCB32
:102210002B984CCF1F920F920FB60F9211242F9331
:102220003F938F939F93AF93BF938091EC019091D5
:10223000ED01A091EE01B091EF013091EB0123E0AF
:10224000230F2D3758F50196A11DB11D2093EB01E9
:102250008093EC019093ED01A093EE01B093EF0118
:102260008091E7019091E801A091E901B091EA0124
:102270000196A11DB11D8093E7019093E801A09301
:10228000E901B093EA01BF91AF919F918F913F9186
:102290002F910F900FBE0F901F90189526E8230FD7
:1022A0000296A11DB11DD2CF1F920F920FB60F92B1
:1022B00011242F933F934F935F936F937F938F934B
:1022C0009F93AF93BF93EF93FF9380E392E00E94BD
:1022D000DC03FF91EF91BF91AF919F918F917F911F
:1022E0006F915F914F913F912F910F900FBE0F9083
:1022F0001F9018951F920F920FB60F9211242F93D3
:102300008F939F93EF93FF93E0914002F0914102EE
:102310008081E0914602F091470282FD1BC09081CE
:10232000809149028F5F8F7320914A02821741F09A
:10233000E0914902F0E0E05DFD4F958F8093490206
:10234000FF91EF919F918F912F910F900FBE0F9062
:102350001F9018958081F4CF1F920F920FB60F92A5
:1023600011242F933F934F935F936F937F938F939A
:102370009F93AF93BF93EF93FF93E091DD01F091B3
:10238000DE01309749F0A089B189858590A191FF40
:1023900014C09C918923A1F4FF91EF91BF91AF915B
:1023A0009F918F917F916F915F914F913F912F916D
:1023B0000F900FBE0F901F9018959C91892361F785
:1023C000A589B6899C918789809589238C93808D76
:1023D000918D0197F1F7628D738DA089B189558533
:1023E00038E020E0CB010197F1F7822F90E095953E
:1023F0008795282F4C91452309F02068315091F79B
:1024000080A181FD20958091DC0190E001968F7381
:1024100099273091DB01381799F0A091DC01B0E0E9
:10242000A556BE4F2C938093DC01848D958D01972A
:10243000F1F7A589B6898C919789892B8C93ACCFBC
:1024400080A1816080A3F1CF90E0FC01EC55FB4FAF
:102450002491FC01EC50FA4F3491FC01E052FA4F08
:10246000E491EE23C9F0222339F0233001F1A8F4DE
:10247000213019F1223029F1F0E0EE0FFF1FEA526E
:10248000FA4FA591B4918FB7F894EC91611126C0E1
:1024900030953E233C938FBF08952730A9F0283014
:1024A000C9F0243049F7809180008F7D03C080916E
:1024B00080008F7780938000DFCF84B58F7784BDD5
:1024C000DBCF84B58F7DFBCF8091B0008F77809379
:1024D000B000D2CF8091B0008F7DF9CF3E2BDACF04
:1024E0000F931F93CF93DF93109233021092320217
:1024F00088EE93E0A0E0B0E0809334029093350240
:10250000A0933602B09337022DE031E030933102D0
:102510002093300225EC30E030933D0220933C02C2
:1025200024EC30E030933F0220933E0220EC30E078
:10253000309341022093400221EC30E0309343027B
:102540002093420222EC30E0309345022093440273
:1025500026EC30E030934702209346021092490265
:1025600010924A0210924B0210924C021092D0022A
:102570001092CF028093D1029093D202A093D30203
:10258000B093D4028FE191E09093CE028093CD027C
:102590001092E6021092E5021092E8021092E70211
:1025A0001092EA021092E9021092EC021092EB02F1
:1025B0006091ED026E7F6D7F6093ED0266956170B4
:1025C00081E0682783E00E94241247EF55E0FA017A
:1025D000649183EE95E0FC012491222399F030E090
:1025E000220F331FF901E453FA4FA591B491F90179
:1025F000EA52FA4F259134912FB7F8943C91632B0E
:102600006C932FBFFA0144914093DF02FC01849147
:10261000E82FF0E0EE0FFF1FEA52FA4F85919491F8
:102620009093E1028093E00206EF15E0F801249117
:10263000C2EED5E0FE0184918823C9F090E0880FB6
:10264000991FFC01E453FA4FA591B491FC01EA52A1
:10265000FA4F459154913FB7F8949C91822F809501
:1026600098239C93FA019081892380833FBF8091B6
:10267000ED0281FD04C061E082E00E94241282E04C
:102680008093D902F80104910093DA02FE01C4910B
:10269000EC2FF0E0EE0FFF1FEE53FA4F859194916F
:1026A0009093DE028093DD02DF91CF911F910F9115
:1026B0000895789484B5826084BD84B5816084BDBA
:1026C00085B5826085BD85B5816085BD80916E00D0
:1026D000816080936E001092810080918100826001
:1026E000809381008091810081608093810080913E
:1026F00080008160809380008091B100846080932D
:10270000B1008091B00081608093B00080917A0028
:10271000846080937A0080917A00826080937A004E
:1027200080917A00816080937A0080917A0080683D
:1027300080937A001092C1001092EA021092E9028E
:102740001092E8021092E7021092E6021092E5025F
:1027500082E08093DB028DEC90E09093EC0280931A
:10276000EB029091D902963108F047C025E530E0A0
:102770003093E6022093E5022BEC30E03093E80240
:102780002093E7022CE231E03093EA022093E90241
:102790002091680084E0983048F031E09E3008F4E1
:1027A00030E081E001C0880F3A95EAF7822B8093F0
:1027B00068002DE630E0983050F02BE630E09E3097
:1027C00030F02CE630E0963110F030E020E030932D
:1027D000E3022093E202292F30E0983008F09DC0F8
:1027E00081E001C0880F9A95EAF78093E402809116
:1027F000EB029091EC020197F1F78091E902909140
:10280000EA02892B49F1E091DD01F091DE0182E0DD
:10281000ED3CF80709F1309739F0A589B6899C910C
:102820008789809589238C938091ED028E7F809398
:10283000ED021092DC011092DB018DEC92E090939E
:10284000DE018093DD01E091E202F091E3028081FC
:102850009091E402892B808383E080930201E091D0
:102860004002F091410282E08083E0913C02F091CD
:102870003D021082E0913E02F0913F0280E18083B0
:1028800010924802E0914402F091450286E0808374
:10289000E0914202F0914302908190619083E09137
:1028A0004202F0914302908198609083E09142024D
:1028B000F0914302908190689083E0914202F09100
:1028C000430290819F7D90835798239A2B9A95EA93
:1028D0004F9B30C09093DF018093E0018093E10132
:1028E0008FEF8093E2018093E3018093E401809372
:1028F000E50182E58093E60189E894E00E94600AA0
:10290000C0E0D0E00E949D0B2097E1F30E94C80335
:102910008823C1F30E940000F5CF9E3040F4285078
:10292000310981E001C0880F2A95EAF75ECF2E5069
:102930003109F7CF9093DF018093E0018093E101AB
:1029400086E58093E2011092E3011092E401109277
:10295000E5018EE48093E60187E994E0CFCF8FE133
:1029600091E09093CE028093CD028091DD01909111
:10297000DE018D5C924071F4E091E202F091E3029D
:1029800090818091E4028095892380831092DE01FA
:102990001092DD010895FB01DC0102C005900D924B
:1029A00041505040D8F7089597FB072E16F4009435
:1029B00007D077FD09D00E94E81407FC05D03EF44B
:1029C000909581959F4F0895709561957F4F0895DB
:1029D000AA1BBB1B51E107C0AA1FBB1FA617B70745
:1029E00010F0A61BB70B881F991F5A95A9F7809561
:1029F0009095BC01CD010895EE0FFF1F0590F49155
:102A0000E02D09940F931F93CF93DF9382309105AC
:102A100010F482E090E0E091F002F091F10230E0F9
:102A200020E0B0E0A0E0309799F42115310509F4D9
:102A30004AC0281B390B24303105D8F58A819B8187
:102A40006115710589F1FB0193838283FE0111C039
:102A5000408151810281138148175907E0F04817DE
:102A6000590799F4109761F012960C9312971396E8
:102A70001C933296CF01DF91CF911F910F91089552
:102A80000093F0021093F102F4CF2115310551F0BB
:102A90004217530738F0A901DB019A01BD01DF019C
:102AA000F801C1CFEF01F9CF9093F1028093F002CA
:102AB000CDCFFE01E20FF31F819391932250310994
:102AC00039832883D7CF2091EE023091EF02232B58
:102AD00041F420910501309106013093EF022093DB
:102AE000EE0220910301309104012115310541F4DA
:102AF0002DB73EB74091070150910801241B350BBB
:102B0000E091EE02F091EF02E217F307A0F42E1B22
:102B10003F0B2817390778F0AC014E5F5F4F241741
:102B2000350748F04E0F5F1F5093EF024093EE02BF
:102B3000819391939FCFF0E0E0E09CCFCF93DF9320
:102B40000097E9F0FC01329713821282A091F00203
:102B5000B091F102ED0130E020E01097A1F4208166
:102B60003181820F931F2091EE023091EF022817DE
:102B7000390709F061C0F093EF02E093EE02DF91B4
:102B8000CF910895EA01CE17DF07E8F54A815B810E
:102B90009E0141155105B1F7E901FB83EA83499193
:102BA0005991C40FD51FEC17FD0761F48081918105
:102BB0000296840F951FE90199838883828193810E
:102BC0009B838A83F0E0E0E012968D919C911397AD
:102BD0000097B9F52D913C911197CD010296820F86
:102BE000931F2091EE023091EF022817390739F632
:102BF000309751F51092F1021092F002B093EF026B
:102C0000A093EE02BCCFD383C28340815181840F55
:102C1000951FC817D90761F44E5F5F4F888199816E
:102C2000480F591F518340838A819B8193838283FC
:102C30002115310509F0B0CFF093F102E093F002D5
:102C40009ECFFD01DC01C0CF13821282D7CF13E0EB
:102C5000C5E0D3E004C0FE010E94FC142196C630FA
:102C6000D107C9F7F894FFCF0004010000F20280F9
:102C70000000000000FE035E038B036604BC039AA1
:102C800003AE03000000009F045E0364059E042B56
:082C900005430586040D0A004E
:107E0000112484B714BE81FFF0D085E080938100F7
:107E100082E08093C00088E18093C10086E0809377
:107E2000C20080E18093C4008EE0C9D0259A86E02C
:107E300020E33CEF91E0309385002093840096BBD3
:107E4000B09BFECF1D9AA8958150A9F7CC24DD24C4
:107E500088248394B5E0AB2EA1E19A2EF3E0BF2EE7
:107E6000A2D0813461F49FD0082FAFD0023811F036
:107E7000013811F484E001C083E08DD089C08234E0
:107E800011F484E103C0853419F485E0A6D080C0E4
:107E9000853579F488D0E82EFF2485D0082F10E0AE
:107EA000102F00270E291F29000F111F8ED06801E7
:107EB0006FC0863521F484E090D080E0DECF843638
:107EC00009F040C070D06FD0082F6DD080E0C81688
:107ED00080E7D80618F4F601B7BEE895C0E0D1E017
:107EE00062D089930C17E1F7F0E0CF16F0E7DF06D8
:107EF00018F0F601B7BEE89568D007B600FCFDCFD4
:107F0000A601A0E0B1E02C9130E011968C91119780
:107F100090E0982F8827822B932B1296FA010C0160
:107F200087BEE89511244E5F5F4FF1E0A038BF0790
:107F300051F7F601A7BEE89507B600FCFDCF97BE46
:107F4000E89526C08437B1F42ED02DD0F82E2BD052
:107F50003CD0F601EF2C8F010F5F1F4F84911BD097
:107F6000EA94F801C1F70894C11CD11CFA94CF0C13
:107F7000D11C0EC0853739F428D08EE10CD085E9AC
:107F80000AD08FE07ACF813511F488E018D01DD067
:107F900080E101D065CF982F8091C00085FFFCCF94
:107FA0009093C60008958091C00087FFFCCF809118
:107FB000C00084FD01C0A8958091C6000895E0E648
:107FC000F0E098E1908380830895EDDF803219F02E
:107FD00088E0F5DFFFCF84E1DECF1F93182FE3DFCA
:107FE0001150E9F7F2DF1F91089580E0E8DFEE27F6
:047FF000FF270994CA
:027FFE00040479
:00000001FF
