:020000040000FA
:100000000C9409030C9431030C9431030C94531990
:100010000C9453190C9453190C9431030C94310320
:100020000C9431030C9431030C9431030C94310380
:100030000C9431030C9431030C9431030C94310370
:100040000C94A2180C9431030C941B190C94F51801
:100050000C9431030C9431030C9431030C94310350
:100060000C9431030C9431035C52D91CF382ACA480
:1000700089D88178EC16297B9D4F50FCE1B68E1211
:1000800009307DDBA6A5B5AA0975988864ACF7622E
:100090001BC0909DF0FCABFFC9115CE2064A2686AE
:1000A000D8D6D9D08CDE3059667539D2FB4273B2BE
:1000B000903FD7A39ED2C60CF4FAEF20F4DBAB310D
:1000C000D18674FD8F990566EA0C811363D7E930F8
:1000D000F961135A4F352DDC0A2E73305C382D4FE1
:1000E000310D0AED84A41800D20474308FE2690443
:1000F0006ED7BB07CF1CFF43AC00C0E3E80AF06833
:100100003FDD1745194543BD0177D750BDFD2BC1D4
:10011000A0493A134A4C6ACF05349170939345EE47
:10012000951A14843334A0DEDFF3FCD608B055975B
:10013000CF09A23BD17D3FD24AA7C7B01134466F49
:10014000AC82163E4BB51BF9CAC8B87ACD9EC49690
:1001500090ABE0813920B11003BEB65499140483EA
:10016000BA187A64EF90261DC7AC1306DEFE39EC90
:1001700083A1483B0EE2EC89418499BE9D35A3B929
:10018000FC6AD0D6F041BB26D2072253A4F2746891
:10019000B37A16EF557BD089A04E32BBA7139E468B
:1001A000B0B809833989FAE2FE7D7899BFEC47C57A
:1001B000306F3A03D86CBEE48422DFEAE21B63C2EC
:1001C000AD4043B256EB458BC2377E8A74096C5FF3
:1001D000581C7F1944F96262F1BC562BD55BB0778D
:1001E000AF6010A846F741F3DBD3AEA4DB04641084
:1001F00090E1F0C00178E3FF0BD9027E851FA123B7
:10020000F5D7D4B575F08E4ECC699581FD89126C09
:10021000495E034794931D7BF4E04313AD2EB4DB9A
:10022000865E3EEF9DFBB1FDFF72BD2B83B89D2F17
:1002300058B95AAEF399DBD067C07215D96B39A1A2
:10024000093EC519AF0F502D318053875C203E24E5
:100250001BDF2433EB29155B9DEEC01144B66F41C3
:10026000E32B8F56B2641298C34A6A7B205FE8F989
:10027000F791ED0B3F49A4485374617274206E6F7F
:10028000726D616C0053746172742073657276696B
:100290006365004C4F5720504F57455200200030A7
:1002A0000041726475696E6F3A20004B6579206E6B
:1002B0006F7420666F756E6400A504063610A50580
:1002C0000601C306A5040668104E6F206F7074699E
:1002D0006F6E2073656C65637465642000A5040609
:1002E000E2046AA507069D1010281454A5130653AE
:1002F0006F6E79456E65726779446576696365737B
:100300006BA503061B36A5040601044BA504060FC6
:100310000041A504060807A52A06200100008282E4
:100320008282DA24DAB43A61CBDF61FD255D0AEA24
:100330007957476F2048616E647368616B6520521E
:100340006571756573742069732076616C696400EA
:10035000496E76616C69642072657175657374208D
:1003600066726F6D20537973636F6E00880E2A94E6
:10037000110926B20E53E22AE648AE9DC66E9ED6FD
:10038000ECBCB121B7465D25037D6646474F3A2058
:100390002020202020005A0201A22920002820002D
:1003A0005053503A202020202000637C777BF26B52
:1003B0006FC53001672BFED7AB76CA82C97DFA596B
:1003C00047F0ADD4A2AF9CA472C0B7FD9326363FD0
:1003D000F7CC34A5E5F171D8311504C723C31896BD
:1003E000059A071280E2EB27B27509832C1A1B6E5F
:1003F0005AA0523BD6B329E32F8453D100ED20FC01
:10040000B15B6ACBBE394A4C58CFD0EFAAFB434D03
:10041000338545F9027F503C9FA851A3408F929DA0
:1004200038F5BCB6DA2110FFF3D2CD0C13EC5F9790
:100430004417C4A77E3D645D197360814FDC222A96
:10044000908846EEB814DE5E0BDBE0323A0A4906CD
:10045000245CC2D3AC629195E479E7C8376D8DD541
:100460004EA96C56F4EA657AAE08BA78252E1CA619
:10047000B4C6E8DD741F4BBD8B8A703EB566480379
:10048000F60E613557B986C11D9EE1F8981169D9FC
:100490008E949B1E87E9CE5528DF8CA1890DBFE67F
:1004A000426841992D0FB054BB1652096AD53036B7
:1004B000A538BF40A39E81F3D7FB7CE339829B2FF5
:1004C000FF87348E4344C4DEE9CB547B9432A6C20A
:1004D000233DEE4C950B42FAC34E082EA16628D957
:1004E00024B2765BA2496D8BD12572F8F6648668DA
:1004F0009816D4A45CCC5D65B6926C704850FDED46
:10050000B9DA5E154657A78D9D8490D8AB008CBC98
:10051000D30AF7E45805B8B34506D02C1E8FCA3F5E
:100520000F02C1AFBD0301138A6B3A9111414F67AE
:10053000DCEA97F2CFCEF0B4E67396AC7422E7AD66
:100540003585E2F937E81C75DF6E47F11A711D2910
:10055000C5896FB7620EAA18BE1BFC563E4BC6D2A9
:1005600079209ADBC0FE78CD5AF41FDDA8338807C6
:10057000C731B11210592780EC5F60517FA919B5BE
:100580004A0D2DE57A9F93C99CEFA0E03B4DAE2A22
:10059000F5B0C8EBBB3C83539961172B047EBA7747
:1005A000D626E169146355210C7D0000000023006C
:1005B0002600290000000000240027002A00000077
:1005C0000000250028002B00040404040404040493
:1005D00002020202020203030303030302020301F5
:1005E00002040810204080010204081020010204C7
:1005F00008102040804000000009000302000004B1
:100600000508000000000000000000000000951830
:10061000F11911241FBECFEFD8E0DEBFCDBF11E02E
:10062000A0E0B1E0EAE5F7E302C005900D92AE323A
:10063000B107D9F722E0AEE2B1E001C01D92A23FBE
:10064000B207E1F713E0C8E0D3E004C02197FE0150
:100650000E946C1AC730D107C9F70E94EC180C949D
:10066000A01B0C9400008430B1F060F08830C9F019
:100670008930E9F0853069F4E0E8F0E080818F7D31
:10068000808308958230C9F0833021F484B58F7D52
:1006900084BD08950895E0E8F0E080818F7780833D
:1006A0000895E0EBF0E080818F7780830895E0EBA0
:1006B000F0E080818F7D8083089584B58F7784BD3D
:1006C00008951F93CF93DF93282F30E0F901EA506C
:1006D000FA4F8491F901E152FA4F1491F901E8536C
:1006E000FA4FC491CC23A9F0D62F811116C0EC2F5C
:1006F000F0E0EE0FFF1FE254FA4FA591B4918FB7CF
:10070000F894D1110DC09C91E12FE095E923EC9371
:100710008FBFDF91CF911F9108950E943303E7CFE0
:10072000EC91E12BEC93F4CFCF93DF9390E0FC01BD
:10073000E152FA4F249188539A4FFC018491882307
:1007400019F190E0880F991FFC01EC54FA4FA59124
:10075000B491FC01E254FA4FC591D491662349F05B
:100760006230A9F08FB7F894EC91E22BEC938FBF35
:100770000BC09FB7F8948C91E22FE0958E238C9359
:100780008881E823E8839FBFDF91CF9108959FB7C9
:10079000F8943C91822F809583238C93E881E22BFF
:1007A000E8839FBFF1CF883020F08D3008F48DE0D2
:1007B0008E50909100019295990F990F907C8770BF
:1007C000892B80937C00EAE7F0E08081806480835D
:1007D00080917A0086FDFCCF80917800909179001D
:1007E0000895809300010895789484B5836084BD52
:1007F00085B5836085BDEEE6F0E080818160808311
:10080000E1E8F0E082E08083808181608083E0E83D
:10081000F0E0808181608083E1EBF0E080818460A2
:100820008083E0EBF0E080818160808386E88093C4
:100830007A001092C10008950000000083309105F5
:1008400028F0880F991F05970197F1F708952FB7A2
:10085000F8946091EA027091EB028091EC02909121
:10086000ED022FBF089508954F925F926F927F928D
:10087000AF92BF92CF92DF92EF92FF920F931F93AE
:10088000CF93DF93CDB7DEB729013A019B01AC01CD
:10089000241935094609570989899A89AB89BC8980
:1008A000BC01CD016A197B098C099D090E945C1A63
:1008B000A801970124193509460957090E94011A10
:1008C000CA01B9016A0D7B1D8C1D9D1DDF91CF9161
:1008D0001F910F91FF90EF90DF90CF90BF90AF905E
:1008E0007F906F905F904F900895EF92FF920F93DB
:1008F0001F93CF93DF938C01FB01D0E0C0E07F0119
:100900008FEFE81AF80A6491662369F0D801ED9137
:10091000FC910190F081E02DC8010995892B19F017
:100920002196F701ECCFCE01DF91CF911F910F916E
:10093000FF90EF900895CF92DF92EF92FF920F9386
:100940001F93CF93DF938C01DB01D0E0C0E07A01ED
:1009500081E0E81AF108452BA1F0F801808191812E
:10096000FC01208131816D01FFEFCF1ADF0A6C910C
:10097000C801F9010995892B21F02196A701D6011B
:10098000E6CFCE01DF91CF911F910F91FF90EF90B5
:10099000DF90CF900895019709F008956F3F7F4F42
:1009A000E1F7E8E4F2E01382128288EE93E0A0E03F
:1009B000B0E084839583A683B7838DE191E0918332
:1009C000808385EC90E09587848784EC90E097871E
:1009D000868780EC90E0918B808B81EC90E0938B0C
:1009E000828B82EC90E0958B848B86EC90E0978BE9
:1009F000868B118E128E138E148ECFCFFC01938DA9
:100A0000848D981720F4891B990B019708952FE383
:100A100030E0291B3109820F932F911D0895FC01AD
:100A2000918D828D981761F0A28DAE0FBF2FB11DF1
:100A30005D968C91928D9F5F9F73928F90E0089549
:100A40008FEF9FEF0895FC01918D828D981731F003
:100A5000828DE80FF11D858D90E008958FEF9FEF57
:100A60000895FC01218D30E0205C3F4F828DA9016B
:100A7000481B5109CA018F739927089588E492E0B1
:100A80000E94310521E0892B09F420E0822F08958E
:100A9000CF92DF92EF92FF921F93CF93DF93EC01FF
:100AA0006A017B01122F60E874E88EE190E0A701F3
:100AB00096010E942B1A215031094109510956957E
:100AC000479537952795E889F98982E08083211534
:100AD00080E1380798F0E889F989108260E472E4CF
:100AE0008FE090E0A70196010E942B1A2150310956
:100AF000410951095695479537952795EC85FD8510
:100B00003083EE85FF852083188EEC89FD89108364
:100B1000EA89FB89808188698083EA89FB898081F1
:100B20008F7D8083DF91CF911F91FF90EF90DF90B9
:100B3000CF900895FC01A48DA80FB92FB11DA35A21
:100B4000BF4F2C91848D90E001968F739078848FA5
:100B5000A689B7892C93A089B1898C918370806410
:100B60008C93938D848D981308950288F389E02DDA
:100B700080818F7D8083F8CF0F931F93CF93DF9376
:100B8000EC0181E0888F9B8D8C8D9817B1F0062F3A
:100B90008B8D90E001968F739078182F8C8D811338
:100BA0001EC00FB607FCFACFE889F989808185FF5E
:100BB000F5CFCE010E949A05F1CFE889F9898081AD
:100BC00085FFE5CF9FB7F894EE89FF896083E889B8
:100BD000F98980818370806480839FBF10C0EB8D12
:100BE000EC0FFD2FF11DE35AFF4F00839FB7F894E0
:100BF0001B8FEA89FB898081806280839FBF81E0AF
:100C000090E0DF91CF911F910F910895CF93DF93E3
:100C1000EC01888D811104C00DC00FB607FE0DC018
:100C2000EA89FB89808185FDF8CFA889B9898C91F3
:100C300086FFF3CFDF91CF910895808185FFF0CFBC
:100C4000E889F989808185FFEBCFCE010E949A0562
:100C5000E7CF80E090E0892B21F00E943E058111D2
:100C600001C008950E940000FCCF209146023091FF
:100C700047022817390771F4909145028091440288
:100C8000981759F0E0914502F0E0EC5FFD4F80814C
:100C900090E008958FEF9FEF08958FEF9FEF0895F5
:100CA0000895FF920F931F93CF93DF93EC01962F3C
:100CB0004E8D5F8D41155105B9F0AB89BC893A89DC
:100CC000132F1095FFB688A1082F027081FD909513
:100CD000F894002381F08C91832B8C93FA01319747
:100CE000F1F71F8628E015C081E090E09B838A839E
:100CF00090E080E036C08C9181238C93EFCF8C9173
:100D000081238C93FA013197F1F775956795962FAA
:100D10002150222359F0692F70E090FFF0CF8C9181
:100D2000832B8C938F858F5F8F87ECCF8E8581117E
:100D300009C08F8580FF1BC08C9181238C93CA01D1
:100D40000197F1F78E858230B1F0002311F18C917B
:100D500018231C93FFBE8E8D9F8D0197F1F781E0C4
:100D600090E0DF91CF911F910F91FF9008958C91AA
:100D7000832B8C93E4CF8F8580FF07C08C91832BCE
:100D80008C93CA010197F1F7E0CF8C9181238C936A
:100D9000F8CF8C91382B3C93DDCF209146023091D7
:100DA00047022817390719F080E090E00895209154
:100DB000440230E0205C3F4F80914502281B3109FE
:100DC0002F73307833231CF0822F932F08952150F6
:100DD0003109206C3F6F2F5F3F4FF6CF20914602C5
:100DE0003091470228173907B9F490914502809154
:100DF00044029817A1F0E0914502F0E0EC5FFD4F4E
:100E000080812091450230E02F5F3F4F2F73307873
:100E10002093450290E008958FEF9FEF08958FEFA4
:100E20009FEF08956817790718F4861B970B0895AC
:100E300081E090E008951F93CF93DF93EC01162F8C
:100E400060E0812F0E94940388A181FF19C01C8754
:100E5000612F70E0FB01E152FA4FE491ED87FB0155
:100E6000E853FA4FE491F0E0EE0FFF1FE655FA4F1A
:100E700085919491998B888BDF91CF911F910895E3
:100E800061E0812F0E946103E2CF1F93CF93DF9334
:100E9000EC01162F68A1669581E068276170812FAB
:100EA0000E94610361E0812F0E949403812F90E0F2
:100EB000FC01E152FA4FE491EA8BFC01E853FA4F4E
:100EC000E491F0E0EE0FFF1FE254FA4F8591949108
:100ED0009C8B8B8BDF91CF911F9108951F93CF93A4
:100EE000DF93EC01162F1B821A8288EE93E0A0E0BC
:100EF000B0E08C839D83AE83BF838BE091E09983C8
:100F00008883198E188E1B8E1A8E1D8E1C8E1F8E36
:100F10001E8E88A18E7F20FB81F988A3642FCE01CD
:100F20000E944507612FCE010E941B07DF91CF91E0
:100F30001F910895FC01A089B1899C918585892321
:100F4000089520914602309147022817390711F081
:100F500080E00895DC015596ED91FC915697208133
:100F600057968C918095822380831092470210922D
:100F7000460281E008950E94A10708952BE031E028
:100F8000FC01318320830E94BB070895CF93DF9338
:100F9000FC01248D358D232B09F1209146023091DF
:100FA000470228173907F1F0EC012115310519F036
:100FB000C9010E94A10788A18E7F88A310924402D4
:100FC00010924502D0934702C0934602ED89FE89F4
:100FD00080819F89892B808381E001C080E0DF913F
:100FE000CF91089580E0FBCFCF92DF92EF92FF92F6
:100FF0000F931F93CF93DF93EC016A017B01022FC4
:101000001D8E1C8E1B8E1A8E198E188E60E874E849
:101010008EE190E0A70196010E94011A69010E87F6
:1010200063E070E0C9010E9412079F8F8E8F1C85BC
:10103000173108F067C063E170E0C60196958795A7
:101040000E941207998F888F65E070E0C6010E94A8
:1010500012079B8F8A8F0130E1F026E02C9DC001A2
:101060002D9D900D11246CE070E0969587959695D6
:1010700087950E9412079D8F8C8F80916800183091
:10108000C0F01E3040F1143140F1163140F591E0CE
:1010900011C0C601880F991F8C0D9D1D6CE070E07A
:1010A00096958795969587950E9412079D8F8C8FB0
:1010B000E4CF94E0892B809368008C85883088F099
:1010C0008E3060F1843168F1863170F1873178F5C6
:1010D0002CE630E008C091E0EDCF92E0EBCF90E05D
:1010E000E9CF2DE630E03E8B2D8B883018F591E06E
:1010F00001C0990F8A95EAF7892F8F8B8E8D9F8D6E
:101100000197F1F7CE010E94C607DF91CF911F91A1
:101110000F91FF90EF90DF90CF9008952BE630E095
:10112000E2CF2CE630E0DFCF2BE630E0DCCF30E062
:1011300020E0D9CF8E3048F48850990B91E001C05F
:10114000990F8A95EAF7892FD8CF863148F48E50C7
:10115000990B91E001C0990F8A95EAF7892FCDCFBD
:10116000873148F48051990B91E001C0990F8A951D
:10117000EAF7892FC2CF80E0C0CF90E080E00895E9
:10118000FC01218132812230310591F1FCF02430C3
:10119000310509F445C02630310509F04FC02FE074
:1011A00030E0B0E0121613066CF5FB01E40FF51FFA
:1011B0003197A081FC01E20FF31FE950FF4FE0815E
:1011C000AE1701F121503109BE2FECCF21153105A9
:1011D00079F02130310591F5CA01019799237CF10D
:1011E000FB01E80FF91F2081211129C00197F6CFDB
:1011F000640F751FFB01319780819A01281B31090B
:10120000C9010895CA010197992344F0FB01E80F31
:10121000F91F20812B1302C00197F6CF0196089584
:10122000CA010197992344F0FB01E80FF91F2081BF
:10123000203211F40197F6CF01960895CA0108955E
:101240008B509F4FFC01718360830895DB01FA018D
:10125000243090F080818C93818111968C9311972A
:10126000828112968C931297838113968C93139795
:10127000245034961496ECCF8FEF820F222331F056
:1012800090819C93282F31961196F6CF0895FC01FA
:10129000E950FF4F22E82083319624E820833196DD
:1012A00028E8208331962FE92083319632E9308374
:1012B000319634E93083319638E930833196208392
:1012C000319622EA2083319624EA2083319628EA57
:1012D000208331962FEA2083319622EB20833196AA
:1012E00024EB2083319628EB208326E030E0FC01BC
:1012F000328321830895CF93DF93EC01DB01FA0160
:1013000090E09031D8F48C912081822788831196C7
:101310008C91119721818227898312968C91129743
:10132000228182278A8313968C91139723818227A7
:101330008B839C5F349614962496E3CFDF91CF91F4
:101340000895FC01DB0190E09031D0F480812C9174
:101350008227808311962C91119781818227818326
:1013600012962C9112978281822782838381139611
:101370002C911397822783839C5F14963496E4CF35
:101380000895E82FF0E0E655FB4F849108952F92E1
:101390003F924F925F926F927F928F929F92AF9205
:1013A000BF92CF92DF92EF92FF920F931F93CF9352
:1013B000DF93CDB7DEB728970FB6F894DEBF0FBE28
:1013C000CDBF5C014B011982BDC02E2F30E0220F32
:1013D000331F1BE11227CBC02F2F30E0220F331F0A
:1013E0009BE1D22ED926C9C0282F30E0220F331F0F
:1013F0000BE1522E5026C6C0242D30E0220F331FA1
:101400009BE1722E7926C3C0212F30E0220F331FBB
:101410000BE10227C1C02D2D30E0220F331F9BE1CD
:101420009227BFC0252C312C220C331C2BE1222605
:10143000BDC0272D30E0220F331F6BE16227BBC0F8
:10144000402F50E0440F551F7BE17427B9C0492F4E
:1014500050E0440F551FEBE1E427B7C0422D50E0A8
:10146000440F551F2BE14227B5C0262F30E0220F35
:10147000331F3BE123273E8137273A833F803E26B7
:10148000F82FF427FB83342D32273C8307279E2730
:101490009D832426662E6226912F902793259D25D5
:1014A00092258927EA0CFB1C83270E94C109F701BA
:1014B00080838A81FD818F278D253B818327852528
:1014C00086259981E92EF12C6701E5E0CE0ED11C2D
:1014D000FFE0CF22DD24CA0CDB1C84250E94C10959
:1014E000F60180838E818027832582258525FC81D6
:1014F0008F2767013AE0C30ED11C9FE0C922DD248B
:10150000CA0CDB1C87250E94C109F60180836A8111
:101510006127FD816F273F8163278B8168276625BF
:10152000F7013F96EF70FF27EA0DFB1DF887EF8369
:10153000862F87250E94C109EF81F8858083F98174
:10154000FC5FF9833981303108F04AC0E32EF12C79
:10155000F401EE0DFF1D80818E8391819F83828136
:101560004380EE81EE230CF430CF1E81110FFF81FA
:10157000FF230CF431CFDF80DD0C88230CF434CF53
:10158000582E550C44200CF437CF742C770C1123B3
:101590000CF43ACF012F000FDD200CF43CCF9D2D31
:1015A000990F55200CF43ECF252C220C77200CF4FB
:1015B00040CF672D660F00230CF442CF702F770FBA
:1015C00099230CF444CFE92FEE0F22200CF446CFE0
:1015D000422D440F66230CF448CF262F220F4BCF09
:1015E00028960FB6F894DEBF0FBECDBFDF91CF9126
:1015F0001F910F91FF90EF90DF90CF90BF90AF9031
:101600009F908F907F906F905F904F903F902F9022
:1016100008951F93CF93DF93EC0188810E94C10945
:1016200088838C810E94C1098C8388850E94C109AE
:1016300088878C850E94C1098C871D8589850E94B9
:10164000C1098D878D810E94C109898789810E9486
:10165000C1098D83812F0E94C10989831A818A85DE
:101660000E94C1098A83812F0E94C1098A871E8135
:101670008E850E94C1098E83812F0E94C1098E87A9
:101680001B818F810E94C1098B838B850E94C109B8
:101690008F838F850E94C1098B87812F0E94C1098A
:1016A0008F87DF91CF911F910895CF92DF92EF92B4
:1016B000FF920F931F93CF93DF93CDB7DEB7A09721
:1016C0000FB6F894DEBF0FBECDBFFC019081992309
:1016D00009F444C06A018F017F0183E0E80EF11C28
:1016E000E0E19E9FA00111244E0D5F1DCE014196A9
:1016F0000E947B09CE0141960E94090BF8011081DE
:101700001150A9F0F0E11F9FA00111244E0D5F1DA3
:10171000BE016F5E7F4FCE0101960E947B09BE0124
:101720006F5F7F4FCE0141960E94C709E9CFA701A5
:10173000BE016F5E7F4FC6010E947B09812FA0967C
:101740000FB6F894DEBF0FBECDBFDF91CF911F91D2
:101750000F91FF90EF90DF90CF9008951FEFEECFA5
:101760008F929F92AF92BF92CF92DF92EF92FF92B1
:101770000F931F93CF93DF93CDB7DEB760970FB66C
:10178000F894DEBF0FBECDBF5C017B016A01490149
:1017900081E0881A9108232B29F120E1A701BE01DD
:1017A0006F5F7F4FC5010E942609A601B701C501E1
:1017B0000E94550B811114C0B801C6010E94A109F5
:1017C00020E1AE014F5F5F4FB801C5010E942609BD
:1017D00080E1C80ED11C80E1E80EF11C9401D7CF46
:1017E0008FEF01C080E060960FB6F894DEBF0FBEA9
:1017F000CDBFDF91CF911F910F91FF90EF90DF90C0
:10180000CF90BF90AF909F908F900895E82FF0E019
:10181000E655FC4F849108956F927F928F929F922C
:10182000AF92BF92CF92DF92EF92FF920F931F93EE
:10183000CF93DF9300D000D0CDB7DEB74032510553
:10184000C1F170F0403C510589F0411521E052078B
:1018500081F14038510599F0FC0110828FEFAAC048
:101860004031510561F048315105B1F72CE0FC01E0
:1018700020830F2EF8E1CF2ED12CF02D07C02AE0C7
:10188000FC0120836894CC24C4F8D12CAB017C01EA
:10189000FC0100810F5F0295007FAC2CBC016D5FE5
:1018A0007F4F2C2D0E9426091C2DBC2C772473946D
:1018B00065C02EE0FC0120836894CC24C5F8D12CAF
:1018C000E5CFB11611F1F0E2CF16D104E9F1512FB5
:1018D0005A1980E0843008F050C0282F30E0F90118
:1018E000E50FF11DEE0DFF1D9381E1E0F0E0EC0F3F
:1018F000FD1FE20FF31F4081210F311D9427F701D7
:10190000E20FF31F93838F5FE5CFBA0C99808A8132
:101910000E94060C872589838B810E94060C8A838E
:101920008C810E94060C8B83892D0E94060C8C836F
:10193000772014F0770CCBCF872D90E0880F991F7C
:101940009BE1782E7926C3CF812F8F71803109F0EA
:10195000BECF612C23E0261508F4B9CF88248394E8
:10196000912C8C0E9D1E860C911CF40180810E948E
:10197000060CF40180836394EDCF1C5F1017C8F44C
:1019800020E0243008F09DCF822F90E0412F44507A
:10199000550BFA01E80FF91FEE0DFF1D3381E1E051
:1019A000F0E0EC0FFD1F8E0F9F1FFC0130832F5FB7
:1019B000E8CF80E00F900F900F900F90DF91CF91C4
:1019C0001F910F91FF90EF90DF90CF90BF90AF905D
:1019D0009F908F907F906F9008954F925F926F923B
:1019E0007F928F929F92AF92BF92CF92DF92EF92AF
:1019F000FF920F931F93CF93DF935C013B01EA01AA
:101A000049012601BA010E9420096E01DD2354F12B
:101A1000D594C794D594C794D594C794D594C794B6
:101A2000A701B801C5010E940C0C82019601A40116
:101A3000B301C5010E94B00BAE01B401C5010E9403
:101A4000C008DF91CF911F910F91FF90EF90DF9031
:101A5000CF90BF90AF909F908F907F906F905F904E
:101A60004F9008958FE0C80ED11CD2CF6F927F9215
:101A70008F929F92AF92BF92CF92DF92EF92FF929E
:101A80000F931F93CF93DF937C018B01A12C0F2E1B
:101A9000FFE0BF2EF02D0F2EFAE0CF2EF02D0F2EEF
:101AA000F5E0DF2EF02D41C0472D50E0440F551FCB
:101AB0009BE149276FC0282D30E0220F331F9BE1A7
:101AC00092276DC0292D30E0220F331F5BE1522792
:101AD0006BC0282F30E0220F331F3BE13227242F29
:101AE000292728252925F701EC0FFD1F282720830A
:101AF000972595279925FE013196EE0DFF1D982714
:101B00009083972D982595279327FE013296EE0D09
:101B1000FF1D892780837426872498242396CE0D61
:101B2000DF1D9326988284E0A80E8FE08A1508F4C2
:101B300041C0CA2DD0E0F801EC0FFD1FD801AD0D5A
:101B4000B11D8C9084E08D0D8F70D82ED801AC0D16
:101B5000B11D9C9084E08C0D8F70C82ED801AB0D08
:101B6000B11D6C9084E08B0D8F70B82E80810E9427
:101B7000060C782E882D0E94060C882E892D0E9436
:101B8000060C982E862D0E94060C77200CF48CCF24
:101B9000472D440F88200CF48ECF982D990F992053
:101BA0000CF490CF592D550F88230CF492CF382F79
:101BB000330F95CFDF91CF911F910F91FF90EF9051
:101BC000DF90CF90BF90AF909F908F907F906F905D
:101BD00008951F93CF93DF93EC0188810E94060C38
:101BE00088838C810E94060C8C8388850E94060C59
:101BF00088878C850E94060C8C8719818D810E94B4
:101C0000060C898389850E94060C8D838D850E9430
:101C1000060C8987812F0E94060C8D871A818A8580
:101C20000E94060C8A83812F0E94060C8A871E81DF
:101C30008E850E94060C8E83812F0E94060C8E8753
:101C40001F858B850E94060C8F878F810E94060C52
:101C50008B878B810E94060C8F83812F0E94060C3C
:101C60008B83DF91CF911F910895AF92BF92CF9256
:101C7000DF92EF92FF921F93CF93DF93CDB7DEB742
:101C8000A0970FB6F894DEBF0FBECDBFFC01208138
:101C9000222309F447C06A015C017C01F3E0EF0EE6
:101CA000F11CA701CE0141960E947B0911E0F501CC
:101CB00080811817B0F4BE016F5E7F4FCE01019690
:101CC0000E94360DF0E11F9FA00111244E0D5F1DF3
:101CD000BE016F5F7F4FCE0141960E947B091F5F5F
:101CE000E6CFCE0141960E94E90D80E1189FA00148
:101CF00011244E0D5F1DBE016F5E7F4FC6010E9415
:101D00007B0980E0A0960FB6F894DEBF0FBECDBF72
:101D1000DF91CF911F91FF90EF90DF90CF90BF9018
:101D2000AF9008958FEFEECF0F931F93CF93DF9374
:101D3000EC018B01019751F0CD2B19F40F3F1F4F90
:101D400081F0DF91CF911F910F9108956F3F7F4FE9
:101D500099F720E043E062E083EE91E00E946E0795
:101D6000EBCF83EE91E00E94BE07EBCF6F927F92A4
:101D70008F929F92AF92BF92CF92DF92EF92FF929B
:101D80000F931F93CF93DF93CDB7DEB7C651D140EA
:101D90000FB6F894DEBF0FBECDBF5C014B013A0118
:101DA0008901CE0101960E9447096E0189EFC81A88
:101DB0008EEFD80A80E1F60111928A95E9F740E1A9
:101DC00050E0B801CE0101960E940C0C6894EE24FC
:101DD000E7F8F12C9301A401B501CE0101960E9410
:101DE000ED0CCA5EDE4F0FB6F894DEBF0FBECDBF5E
:101DF000DF91CF911F910F91FF90EF90DF90CF90E7
:101E0000BF90AF909F908F907F906F900895AF920A
:101E1000BF92CF92DF92EF92FF920F931F93CF93D7
:101E2000DF93CDB7DEB7C650D1400FB6F894DEBF12
:101E30000FBECDBF8C017B016A015901CE01019615
:101E40000E944709A501B601CE0101960E940C0C23
:101E5000A701B801CE0101960E94350ECA5FDE4F80
:101E60000FB6F894DEBF0FBECDBFDF91CF911F91AB
:101E70000F91FF90EF90DF90CF90BF90AF900895BB
:101E8000AC0190E080E0961738F4FA01E90FF11DFB
:101E90003081830F9F5FF7CF80950895AF92BF92F7
:101EA000CF92DF92EF92FF920F931F938FE00E94E9
:101EB000D303BC01990F880B990B1F921F9221E14C
:101EC0002F9320E32F93A12CB12C6501EE24EA94EB
:101ED00013E0F12E00E010E020E030E0A9010E94C4
:101EE00034040F900F900F900F9070934401609303
:101EF00043011F910F91FF90EF90DF90CF90BF9023
:101F0000AF9008950E940E1B08950E94820F0895BD
:101F1000DF92EF92FF920F931F93CF93DF93CDB792
:101F2000DEB7A1970FB6F894DEBF0FBECDBF7C0120
:101F3000CB01BA01D22E19A221E02D1520F48E0179
:101F40000F5D1F4F0EC00F2EFAE0DF2EF02DF7CFE2
:101F5000E95CD801EE938D0161157105810591054C
:101F600079F02D2D30E050E040E00E942B1AE62F52
:101F7000622F732F842F952FEA3054F7E05DE9CF5D
:101F80001097F9F0FD0101900020E9F73197AF01BA
:101F90004A1B5B0BD701ED91FC910280F381E02D90
:101FA000B801C7010995A1960FB6F894DEBF0FBE20
:101FB000CDBFDF91CF911F910F91FF90EF90DF90F8
:101FC000089590E080E0EFCF2115310549F4DC0160
:101FD000ED91FC910190F081E02D642F0995089519
:101FE0000E94880F08959A01462F50E070E060E04B
:101FF0000E94E40F0895CF93C82F803178F040E11C
:1020000050E06C2F88E492E00E94F30F6DE972E0DB
:1020100088E492E00E947504CF9108956FE972E020
:1020200088E492E00E947504EACFDC01ED91FC9116
:102030000280F381E02D42E050E06BE271E009950F
:1020400008950F931F93CF93DF93EC010E947504C3
:102050008C01CE010E941510800F911FDF91CF914E
:102060001F910F9108950F931F93809143019091B9
:10207000440188349D4050F0809199018F3FC9F10F
:1020800085B1877F85B91F910F9108950E9427041C
:1020900000912F01109130012091310130913201D6
:1020A000601B710B820B930B6B3F710581059105D2
:1020B00050F30E94270460932F01709330018093A6
:1020C00031019093320180912E0191E08927809314
:1020D0002E01882351F085B1886085B963E972E0EB
:1020E00088E492E00E942110CECF85B1877F85B928
:1020F000F5CF0E94270400912F011091300120910B
:10210000310130913201601B710B820B930B693EE0
:1021100073408105910508F4B6CF0E9427046093AF
:102120002F0170933001809331019093320180919F
:102130002E0191E0892780932E01882321F085B11B
:10214000886085B9A0CF85B1877F85B99CCF22E013
:1021500040E05BE460E070E083EE91E00E94F40711
:1021600083E00E94F10326E040E052EC61E070E081
:1021700088E492E00E9448058AB18F778AB984B1D9
:10218000886084B985B1886085B94F9915C0E6E942
:10219000F1E085EA808386E08183828386E583831C
:1021A0001482158216828EE4878368E772E088E4E1
:1021B00092E00E9421100895E6E9F1E085EA80832B
:1021C00086E0818382838FEF838384838583868304
:1021D00082E5878365E872E088E492E00E9421103E
:1021E0000895DF92EF92FF920F931F93CF93DF93A7
:1021F0001F92CDB7DEB77C01062FD42E1982E09155
:10220000E301F091E4010280F381E02D462F50E0DC
:10221000BC0183EE91E00995DD20A1F0602FC7019C
:102220000E94400F8983E091E301F091E401028074
:10223000F381E02D41E050E0BE016F5F7F4F83EE00
:1022400091E0099561EA72E088E492E00E947504E9
:1022500010E0101740F4F701E10FF11D80810E949A
:10226000FB0F1F5FF6CFD1100DC088E492E00E94F3
:1022700015100F90DF91CF911F910F91FF90EF906C
:10228000DF90089589810E94FB0FEFCF45E050E079
:1022900064EC72E086E591E00E94F81941E065E0A7
:1022A00086E591E00E94F1100895AF92BF92CF921F
:1022B000DF92EF92FF920F931F93CF93DF93609182
:1022C00043017091440190E080E01F921F9223E04F
:1022D0002F9324E82F93A12CB12C650116E3E12E56
:1022E00010E1F12E00E010E02CE13CE040E050E095
:1022F0000E9434040F900F900F900F90C62FD72F8D
:1023000046E050E06EEB72E086E591E00E94F8193D
:10231000E6E5F1E0D583C48341E066E0CF010E94A9
:10232000F110DF91CF911F910F91FF90EF90DF900F
:10233000CF90BF90AF90089545E050E069EB72E018
:1023400086E591E00E94F819809143019091440143
:10235000E6E5F1E09483838341E065E0CF010E94EC
:10236000F1100895683009F45FC0D8F4633009F4BF
:1023700046C050F46130A9F1D8F548E050E060E083
:1023800072E00E94F8190895653009F446C0F0F132
:10239000663099F448E050E060E372E00E94F8197A
:1023A0000895673909F45CC068F46D3009F44AC0D7
:1023B0006F3209F44EC06A30F1F1009711F00E94BB
:1023C000850F0895693D09F452C06B3E09F456C06B
:1023D000633B99F748E050E060E672E00E94F8192C
:1023E000089548E050E068E072E00E94F81908950E
:1023F00048E050E060E172E00E94F819089548E07A
:1024000050E068E172E00E94F819089548E050E059
:1024100060E272E00E94F819089548E050E068E236
:1024200072E00E94F819089548E050E068E372E015
:102430000E94F819089548E050E060E472E00E94BC
:10244000F819089548E050E068E472E00E94F81935
:10245000089548E050E060E572E00E94F8190895A0
:1024600048E050E068E572E00E94F819089548E0FD
:1024700050E068E672E00E94F819089548E050E0E4
:1024800060E772E00E94F8190895EF92FF920F93AF
:102490001F93CF93DF93CDB7DEB728970FB6F8948D
:1024A000DEBF0FBECDBF8C017A01CE01019628E0C0
:1024B000FC0111922A95E9F70E94B211F70180817F
:1024C000F8018083F7018181F8018483F70182811B
:1024D000F8018087F7018381F8018487F7018481FF
:1024E000F8018183F7018581F8018583F7018681F1
:1024F000F8018187F7018781F801858789818283C7
:102500008A8186838B8182878C8186878D81838374
:102510008E8187838F8183878885878728960FB6EA
:10252000F894DEBF0FBECDBFDF91CF911F910F9109
:10253000FF90EF900895683009F45FC0D8F46330DD
:1025400009F446C050F46130A9F1D8F548E050E0F4
:1025500068E871E00E94F8190895653009F446C0F2
:10256000F0F1663099F448E050E068EB71E00E94C9
:10257000F8190895673909F45CC068F46D3009F4FE
:102580004AC06F3209F44EC06A30F1F1009711F081
:102590000E94850F0895693D09F452C06B3E09F40D
:1025A00056C0633B99F748E050E068EE71E00E9446
:1025B000F819089548E050E060E971E00E94F819C8
:1025C000089548E050E068E971E00E94F819089524
:1025D00048E050E060EA71E00E94F819089548E090
:1025E00050E068EA71E00E94F819089548E050E070
:1025F00060EB71E00E94F819089548E050E060EC4B
:1026000071E00E94F819089548E050E068EC71E02C
:102610000E94F819089548E050E060ED71E00E94D2
:10262000F819089548E050E068ED71E00E94F8194B
:10263000089548E050E060EE71E00E94F8190895B6
:1026400048E050E060EF71E00E94F819089548E01A
:1026500050E068EF71E00E94F8190895EF92FF9240
:102660000F931F93CF93DF93CDB7DEB728970FB6A5
:10267000F894DEBF0FBECDBF8C017A01CE0101966A
:1026800028E0FC0111922A95E9F70E949B128981AA
:10269000F80180838A8184838B8180878C81848701
:1026A0008D8181838E8185838F81818788858587D0
:1026B000F7018081F8018283F7018181F801868327
:1026C000F7018281F8018287F7018381F80186870B
:1026D000F7018481F8018383F7018581F8018783FD
:1026E000F7018681F8018387F7018781F8018787E1
:1026F00028960FB6F894DEBF0FBECDBFDF91CF9105
:102700001F910F91FF90EF900895693009F47CC0FC
:10271000A8F06F3209F494C090F56B3009F482C0D0
:1027200008F479C06C3009F484C06D3039F540E1AB
:1027300050E068E271E00E94F8190895633009F4EE
:1027400047C088F0653009F451C008F448C06630CD
:1027500009F453C0683089F440E150E068ED70E05E
:102760000E94F8190895613029F158F540E150E0D0
:1027700068E670E00E94F819089508950895633B93
:1027800009F465C060F0693D09F468C06B3E89F4E6
:1027900040E150E068E771E00E94F8190895673958
:1027A00039F440E150E068E471E00E94F8190895BE
:1027B0000895089540E150E068E770E00E94F8193C
:1027C000089540E150E068E870E00E94F81908952B
:1027D00040E150E068E970E00E94F819089540E196
:1027E00050E068EA70E00E94F819089540E150E076
:1027F00068EB70E00E94F819089540E150E068EC41
:1028000070E00E94F819089540E150E068EE70E031
:102810000E94F819089540E150E068EF70E00E94CE
:10282000F819089540E150E068E071E00E94F8195D
:10283000089540E150E068E171E00E94F8190895C0
:1028400040E150E068E371E00E94F819089540E12A
:1028500050E068E571E00E94F819089540E150E009
:1028600068E671E00E94F81908958F929F92AF92E6
:10287000BF92CF92DF92EF92FF920F931F93CF936D
:10288000DF93CDB7DEB74C01462F0DB71EB7262F0D
:1028900030E08DB79EB7821B930B0FB6F8949EBFA6
:1028A0000FBE8DBF6DB77EB76F5F7F4F5B01ADB75A
:1028B000BEB711961C9211971296C90102979923DF
:1028C0001CF01D920197FBCFEDB7FEB7E21BF30B97
:1028D0000FB6F894FEBF0FBEEDBFADB7BEB71196F1
:1028E0007D01118254E011965C93119758E0129685
:1028F0005C9312975CE013965C93139751E01496E7
:102900005C93149755E015965C93159759E01696CD
:102910005C9316975DE017965C93179752E01896B4
:102920005C93189756E019965C9319975AE01A969B
:102930005C931A975EE01B965C931B9753E01C9682
:102940005C931C9757E01D965C931D975BE01E9669
:102950005C931E975FE01F965C938DB79EB7419680
:1029600021513109332334F0DC011D92CD01215076
:102970003109F8CF90E0941788F4292F30E0D7017F
:10298000A20FB31FCC90C80CD92CD11CF6018081AA
:102990002A0D3B1DD9018C939F5FEDCF50E0C40100
:1029A0000E94971B0FB6F8941EBF0FBE0DBFDF919C
:1029B000CF911F910F91FF90EF90DF90CF90BF903C
:1029C000AF909F908F900895AF92BF92CF92DF9279
:1029D000EF92FF920F931F93CF93DF93CDB7DEB7A4
:1029E000E0970FB6F894DEBF0FBECDBFCDB6DEB612
:1029F000ADB6BEB680919E018093550180E1FE0187
:102A00003196DF011D928A95E9F78091DE0190E011
:102A10009C0121503109EDB7FEB7E21BF30B0FB655
:102A2000F894FEBF0FBEEDBF2DB73EB72F5F3F4FEF
:102A30007901890111823296039799231CF0119232
:102A40000197FBCF60915501CE0101960E9485133D
:102A5000E6E5F1E085EA808382E1818386E0828396
:102A60008981882391F021E08091DE012817F8F414
:102A7000822F90E0FC01319782569E4FDC018C91B1
:102A8000E00FF11F80832F5FEFCF6BEA72E088E4E5
:102A900092E00E94211083E0833108F065C0E82FA6
:102AA000F0E0EA5AFE4F9FEF90838F5FF5CFA701CA
:102AB00060915501CE0141960E942E1360E1CE0136
:102AC00041960E94351420E130E0AE014F5F5F4F28
:102AD00063E371E0CE0141960E94070F80E1E3E3DA
:102AE000F1E0DE01919601900D928A95E1F720E1E7
:102AF00030E0AE014F5F5F4F65E471E0CE0181963B
:102B00000E94070F60E185E491E00E94351488E09F
:102B1000E3E3F1E0A9E5B1E001900D928A95E1F7D8
:102B200088E0E5E4F1E0A1E6B1E001900D928A953C
:102B3000E1F70FB6F894BEBE0FBEADBE0FB6F89467
:102B4000DEBE0FBECDBEE0960FB6F894DEBF0FBE60
:102B5000CDBFDF91CF911F910F91FF90EF90DF904C
:102B6000CF90BF90AF9008950FB6F894BEBE0FBE41
:102B7000ADBEE4CF9F92AF92BF92CF92DF92EF9221
:102B8000FF920F931F93CF93DF93CDB7DEB7C05B58
:102B9000D1090FB6F894DEBF0FBECDBF0E944E0F15
:102BA00083EE91E00E94CD0604975CF483E08331CC
:102BB00008F0A6C2E82FF0E0EA5AFE4F10828F5FBD
:102BC000F6CF83EE91E00E94EE060FED11E0D80102
:102BD0008C9360EA73E088E492E00E947504F80147
:102BE00080810E94FB0FD8018C918A3529F088E4FE
:102BF00092E00E941510DACF83EE91E00E94EE067B
:102C0000F801818383EE91E00E94EE06D8011296CE
:102C10008C93129711968C910E94FB0FF801828180
:102C20000E94FB0FD80111968C91823021F08250C6
:102C30008093DE0107C01092DE0139C08AE090E087
:102C40000E941C0483EE91E00E94CD062091E001D9
:102C50002150330B821793078CF310E00AC083EEE8
:102C600091E00E94EE06E12FF0E0E256FE4F8083F5
:102C70001F5F8091DE01181790F36DE973E088E41F
:102C800092E00E94750410E008C0E12FF0E0E256E7
:102C9000FE4F80810E94FB0F1F5F8091DE0118179D
:102CA000A0F36AE973E088E492E00E94750483EE81
:102CB00091E00E94EE060FED11E0F80183830E947F
:102CC000FB0F88E492E00E941510D80112968C91B7
:102CD000893009F4CAC1E0F0863109F4D5C1D8F5CC
:102CE0008C3009F44CC08D3009F4DDC18B3009F013
:102CF000F8C146E050E06CE073E086E591E00E94A8
:102D0000F81940E066E086E591E00E94F1104ECFB0
:102D1000833009F493C158F0873009F492C108F068
:102D2000D1C1843009F0DDC10E9446113FCF81300E
:102D300019F1823009F0D5C145E050E061E073E05F
:102D400086E591E00E94F81940E065E086E591E0B3
:102D50000E94F1102BCF813841F1803909F4B6C0BF
:102D6000803809F0BEC10E94E41441E063E186E5C9
:102D700091E00E94F1101ACF0E94551117CF20E068
:102D8000273060F4822F90E0FC01EA56FE4F30813C
:102D90008A5A9E4FFC0130832F5FF2CF41E067E0FB
:102DA00086E591E00E94F11001CFE6E5F1E085EAC9
:102DB000808382E1818386E082837E01F1E6EF0EEB
:102DC000F11C80E1D701E82F1D92EA95E9F78E0109
:102DD0000F5B1F4FD801E82F1D92EA95E9F75E01BE
:102DE000F1E2AF0EB11CD501E82F1D92EA95E9F78B
:102DF0009E012F5F3F4F6901D9011D928A95E9F726
:102E000045E451E060915501C7010E94451260E11F
:102E1000C7010E94351460915501C8010E948513B5
:102E200020E830E0A801B501C7010E94070F20E8A3
:102E300030E0A801B601C5010E94070F80E1F6014C
:102E4000A9E5B1E001900D928A95E1F741E063E1D7
:102E500086E591E00E94F110809155018B3E19F0BA
:102E6000833B09F0A3CE44E050E066E973E086E5D9
:102E700091E00E94F81940E064E086E591E00E944C
:102E8000F1106CE873E088E492E00E94750483EE30
:102E900091E00E94EE060FED11E0F801808383EED1
:102EA00091E00E94EE06D80111968C9383EE91E09A
:102EB0000E94EE06F801828383EE91E00E94EE0606
:102EC000D80113968C930E94551170CE6E01B1EA11
:102ED000CB0ED11C6894992494F8F601292D1192F7
:102EE0002A95E9F780E27E0131E2E30EF11CD70179
:102EF000E82F1D92EA95E9F78E010F5B1F4FD8016D
:102F0000E82F1D92EA95E9F75E01F1E6AF0EB11CDC
:102F1000D501E82F1D92EA95E9F7FE01EF57FF4F23
:102F2000DF011D928A95E9F780E2E6EAF1E0DE0131
:102F3000119601900D928A95E1F740E150E06CE71F
:102F400073E0C6010E94F8199601A70160E270E0E3
:102F5000CE0101960E94B60E88E0FE01B996D80116
:102F600001900D928A95E1F7D801189688E0F70153
:102F700001900D928A95E1F7F8017096DF011D929C
:102F80009A94E9F740E150E06CE673E0C5010E94D5
:102F9000F81920E12032E8F4822F90E0E1E2F0E03D
:102FA000EC0FFD1FE80FF91F30814097E1E6F0E0DC
:102FB000EC0FFD1F8E0F9F1FDC018C91381302C098
:102FC0002F5FE8CF60E573E088E492E00E94211073
:102FD00099C062E373E088E492E00E94211040E12E
:102FE00050E062E273E0CE018F559F4F0E94F819C6
:102FF0009E012F553F4FAE014F575F4F60E270E08B
:10300000CE018F5B9F4F0E94B60E4BE050E067E110
:1030100073E086E591E00E94F81980E2FE01EF5727
:10302000FF4FA1E6B1E001900D928A95E1F741E0F2
:103030006BE286E591E00E94F110B8CD0E949C11F0
:10304000B5CD45E050E062E173E086E591E00E9495
:10305000F819E6E5F1E083E0848388EE838341E0BC
:1030600065E0CF010E94F110A1CD46E050E066E09E
:1030700073E086E591E00E94F81940E066E086E59D
:1030800091E00E94F11092CD45E150E06CEE72E0CB
:1030900086E591E00E94F81940E065E186E591E05F
:1030A0000E94F11083CD49E050E063EE72E086E5C6
:1030B00091E00E94F81940E069E086E591E00E9405
:1030C000F11074CD46E050E06DED72E086E591E0E0
:1030D0000E94F81940E066E086E591E00E94F11058
:1030E00065CD69EC72E088E492E00E9475048091FD
:1030F000E1010E94FB0F88E492E00E94151056CD7A
:103100000E943310C055DF4F0FB6F894DEBF0FBEDC
:10311000CDBFDF91CF911F910F91FF90EF90DF9086
:10312000CF90BF90AF909F9008956FEF7FEF81E0B9
:1031300090E00E94CB046FEF7FEF81E090E00E946F
:10314000940E08951F920F920FB60F9211242F9391
:103150003F938F939F93AF93BF938091EA02909197
:10316000EB02A091EC02B091ED023091E90226E071
:10317000230F2D3758F50296A11DB11D2093E902AA
:103180008093EA029093EB02A093EC02B093ED02DD
:103190008091E5029091E602A091E702B091E802E9
:1031A0000196A11DB11D8093E5029093E602A093C4
:1031B000E702B093E802BF91AF919F918F913F9149
:1031C0002F910F900FBE0F901F90189529E8230F95
:1031D0000396A11DB11DD2CF0E94F4030E94A71037
:1031E0000E94BA150E942906FBCF1F920F920FB6BC
:1031F0000F9211242F933F934F935F936F937F937D
:103200008F939F93AF93BF93EF93FF9388E492E0E4
:103210000E949A05FF91EF91BF91AF919F918F917D
:103220007F916F915F914F913F912F910F900FBEC2
:103230000F901F9018951F920F920FB60F921124A6
:103240002F938F939F93AF93BF93EF93FF93E0914F
:103250005802F0915902808182FD14C0E8E4F2E046
:10326000A689B7892C91818D8F5F8F73928D891775
:1032700071F0DF01E18DF0E0E85BFD4F258F59969D
:103280008C9305C0E0915E02F0915F028081FF9116
:10329000EF91BF91AF919F918F912F910F900FBEA2
:1032A0000F901F9018951F920F920FB60F92112436
:1032B000EF92FF920F931F932F933F934F935F9340
:1032C0006F937F938F939F93AF93BF93CF93DF932E
:1032D000EF93FF93009146021091470201151105EB
:1032E00009F463C0D80190968C9181FF1CC0C8017D
:1032F0000E949A07882309F458C0D8015596ED9189
:10330000FC915697908157968C9157978095892379
:10331000808358968D919C910197F1F76894FF24D2
:10332000F3F8E12C07C0C8010E949A07882329F30B
:103330003CC0FA94FF2091F0F801828D938D0197A3
:10334000F1F7CE2DD0E0D595C795EC2EC8010E949F
:103350009A07882371F36894E7F8EBCFD801909629
:103360008C9181FDE0948091440290E001968F73EE
:10337000907820914502281779F1E0914402F0E01D
:10338000EC5FFD4FE08280934402D8015C968D9102
:103390009C915D970197F1F75596ED91FC915697A9
:1033A000808157969C91892B8083FF91EF91DF91CB
:1033B000CF91BF91AF919F918F917F916F915F91CD
:1033C0004F913F912F911F910F91FF90EF900F9090
:1033D0000FBE0F901F901895F80180A1816080A307
:1033E000D4CF6FEF7FEF90E080E00E94940E0895BD
:1033F000FB01DC0102C005900D9241505040D8F70E
:103400000895052E97FB1EF400940E94181A57FD8C
:1034100007D00E942B1A07FC03D04EF40C94181A04
:1034200050954095309521953F4F4F4F5F4F0895F0
:1034300090958095709561957F4F8F4F9F4F089520
:103440000E944D1AA59F900DB49F900DA49F800DD2
:10345000911D11240895A1E21A2EAA1BBB1BFD0188
:103460000DC0AA1FBB1FEE1FFF1FA217B307E40763
:10347000F50720F0A21BB30BE40BF50B661F771FBB
:10348000881F991F1A9469F760957095809590959B
:103490009B01AC01BD01CF010895A29FB001B39F74
:1034A000C001A39F700D811D1124911DB29F700D4D
:1034B000811D1124911D0895DB018F939F930E941C
:1034C000201ABF91AF91A29F800D911DA39F900DD7
:1034D000B29F900D11240895EE0FFF1F0590F491F7
:1034E000E02D09940F931F93CF93DF9382309105C2
:1034F00010F482E090E0E091F002F091F10230E00F
:1035000020E0B0E0A0E0309799F42115310509F4EE
:103510004AC0281B390B24303105D8F58A819B819C
:103520006115710589F1FB0193838283FE0111C04E
:10353000408151810281138148175907E0F04817F3
:10354000590799F4109761F012960C9312971396FD
:103550001C933296CF01DF91CF911F910F91089567
:103560000093F0021093F102F4CF2115310551F0D0
:103570004217530738F0A901DB019A01BD01DF01B1
:10358000F801C1CFEF01F9CF9093F1028093F002DF
:10359000CDCFFE01E20FF31F8193919322503109A9
:1035A00039832883D7CF2091EE023091EF02232B6D
:1035B00041F420910301309104013093EF022093F4
:1035C000EE0220910101309102012115310541F4F3
:1035D0002DB73EB74091050150910601241B350BD4
:1035E000E091EE02F091EF02E217F307A0F42E1B38
:1035F0003F0B2817390778F0AC014E5F5F4F241757
:10360000350748F04E0F5F1F5093EF024093EE02D4
:10361000819391939FCFF0E0E0E09CCFCF93DF9335
:103620000097E9F0FC01329713821282A091F00218
:10363000B091F102ED0130E020E01097A1F420817B
:103640003181820F931F2091EE023091EF022817F3
:10365000390709F061C0F093EF02E093EE02DF91C9
:10366000CF910895EA01CE17DF07E8F54A815B8123
:103670009E0141155105B1F7E901FB83EA834991A8
:103680005991C40FD51FEC17FD0761F4808191811A
:103690000296840F951FE901998388838281938123
:1036A0009B838A83F0E0E0E012968D919C911397C2
:1036B0000097B9F52D913C911197CD010296820F9B
:1036C000931F2091EE023091EF022817390739F647
:1036D000309751F51092F1021092F002B093EF0280
:1036E000A093EE02BCCFD383C28340815181840F6B
:1036F000951FC817D90761F44E5F5F4F8881998184
:10370000480F591F518340838A819B819383828311
:103710002115310509F0B0CFF093F102E093F002EA
:103720009ECFFD01DC01C0CF13821282D7CFFB01F7
:10373000DC0102C001900D9241505040D8F708952D
:1037400013E0C8E0D3E004C0FE010E946C1A219689
:10375000C930D107C9F7F894FFCF010000F2028009
:10376000000000000051069B04BD085006CD06EE87
:1037700006350600000000BC059B04FE0406063169
:08378000050F0523050D0A00E9
:107E8000112424B614BE80E079D021FEEBC08EE030
:107E900075D0E0ECF0E0AFE7BFEF4899FECF9096E9
:107EA000489BFDCFB4831197F1F7B2E0B083B8E1FE
:107EB000B18352D0C82F823569F466D0E0E0FEE786
:107EC000A89583E093D091D0E058F109C8F787E7EF
:107ED0003CD0EFCF8D7FD9F44CD0D82FA0E0B1E0CB
:107EE0003BD08D93DA13FCCFA0E0B1E04DD0C111AF
:107EF0000CC0F2BDE1BD8D9180BDFA9AF99A319620
:107F0000F999FECFD150A9F7E2CF48D0E0CFC330E6
:107F100041F42FD0C82F38D0859117D0C150E1F748
:107F2000D6CFC13061F425D0C82F2ED0F2BDE1BD2F
:107F3000F89A80B50AD03196C150C1F7C8CFC13583
:107F400011F488E01BD020D0C2CF9091C00095FFE3
:107F5000FCCF8093C60008952D9A259A8091C00089
:107F600087FFFCCF84FD13C0A8958091C6002D9893
:107F70000895F2DFE82FF0DFF82FEECF98E190932D
:107F80006000809360000895E7DF803219F088E098
:107F9000F5DFFFCF80EAD9CFFB01DC01E07870E8A4
:107FA0007A0F9F01E0388EE7F80728F5309629F41C
:107FB0008FE38D938FEC8C93119790E045915D91B9
:107FC00045139160A713FACFF901A058B10990FFAA
:107FD00012C083E00BD081E00D901D9007D0329647
:107FE000A713FACFF90185E001D081E187BFE895B9
:107FF00017B610FCFDCF112408950319CDCFE7402B
:00000001FF
