:100000000C9440020C9468020C9468020C94880EC4
:100010000C94880E0C94880E0C9468020C94680260
:100020000C9468020C9468020C9468020C946802A8
:100030000C9468020C9468020C9468020C94680298
:100040000C94E60D0C9468020C94560E0C94300E31
:100050000C9468020C9468020C9468020C94680278
:100060000C9468020C9468025C52D91CF382ACA414
:1000700089D88178EC16297B9D4F50FCE1B68E1211
:1000800009307DDBA6A5B5AA0975988864ACF7622E
:100090001BC0909DF0FCABFFC9115CE2064A2686AE
:1000A000D8D6D9D08CDE3059667539D2FB4273B2BE
:1000B000903FD7A39ED2C60CF4FAEF20F4DBAB310D
:1000C000D18674FD8F990566EA0C811363D7E930F8
:1000D000F961135A4F352DDC0A2E73305C382D4FE1
:1000E000310D0AED84A41800D20474308FE2690443
:1000F0006ED7BB07CF1CFF43AC00C0E3E80AF06833
:100100003FDD1745194543BD0177D750BDFD2BC1D4
:10011000A0493A134A4C6ACF05349170939345EE47
:10012000951A14843334A0DEDFF3FCD608B055975B
:10013000CF09A23BD17D3FD24AA7C7B01134466F49
:10014000AC82163E4BB51BF9CAC8B87ACD9EC49690
:1001500090ABE0813920B11003BEB65499140483EA
:10016000BA187A64EF90261DC7AC1306DEFE39EC90
:1001700083A1483B0EE2EC89418499BE9D35A3B929
:10018000FC6AD0D6F041BB26200030004172647575
:10019000696E6F3A2000D2072253A4F27468B37AD2
:1001A00016EF557BD089A04E32BBA7139E46B0B840
:1001B00009833989FAE2FE7D7899BFEC47C5306F33
:1001C0003A03D86CBEE48422DFEAE21B63C2AD408E
:1001D00043B256EB458BC2377E8A74096C5F581C5C
:1001E0007F1944F96262F1BC562BD55BB077AF60E2
:1001F00010A846F741F3DBD3AEA4DB04641090E112
:10020000F0C00178E3FF0BD9027E851FA1234B6567
:1002100079206E6F7420666F756E6400F5D7D4B563
:1002200075F08E4ECC699581FD89126C495E03474D
:1002300094931D7BF4E04313AD2EB4DB865E3EEF5A
:100240009DFBB1FDFF72BD2B83B89D2F58B95AAEEF
:10025000F399DBD067C07215D96B39A1093EC51976
:10026000AF0F502D318053875C203E241BDF243399
:10027000EB29155B9DEEC01144B66F41E32B8F5601
:10028000B2641298C34A6A7B205FE8F9F791ED0BDC
:100290003F49A4484E6F206F7074696F6E2073657C
:1002A0006C65637465642000A50406E2046AA50712
:1002B000069D1010281454A51306536F6E79456ED1
:1002C00065726779446576696365736BA504066832
:1002D00010D8A503061B36A5040601044BA5040689
:1002E0000F0041A50406080741A5040636100AA51B
:1002F000050610C306762920002820005053503AE6
:10030000202020202000637C777BF26B6FC53001BA
:10031000672BFED7AB76CA82C97DFA5947F0ADD4B8
:10032000A2AF9CA472C0B7FD9326363FF7CC34A58C
:10033000E5F171D8311504C723C31896059A071241
:1003400080E2EB27B27509832C1A1B6E5AA0523B30
:10035000D6B329E32F8453D100ED20FCB15B6ACBE7
:10036000BE394A4C58CFD0EFAAFB434D338545F9EF
:10037000027F503C9FA851A3408F929D38F5BCB698
:10038000DA2110FFF3D2CD0C13EC5F974417C4A70A
:100390007E3D645D197360814FDC222A908846EEB1
:1003A000B814DE5E0BDBE0323A0A4906245CC2D3A5
:1003B000AC629195E479E7C8376D8DD54EA96C563E
:1003C000F4EA657AAE08BA78252E1CA6B4C6E8DD34
:1003D000741F4BBD8B8A703EB5664803F60E6135BF
:1003E00057B986C11D9EE1F8981169D98E949B1E5C
:1003F00087E9CE5528DF8CA1890DBFE64268419977
:100400002D0FB054BB1653746172742073657276ED
:10041000696365005374617274206E6F726D616CF4
:1004200000000000080002010000030407000000B3
:10043000000000000000000000230026002900004A
:10044000000000240027002A0000000000250028EA
:10045000002B000404040404040404020202020247
:100460000203030303030301020408102040800178
:100470000204081020010204081020004C0F8B1108
:1004800011241FBECFEFD8E0DEBFCDBF11E0A0E04A
:10049000B1E0E0E2F6E202C005900D92AE32B107A3
:1004A000D9F722E0AEE2B1E001C01D92A13AB20755
:1004B000E1F712E0CFE3D2E004C02197FE010E94F1
:1004C000D811CE33D107C9F70E9435100C9403130D
:1004D0000C940000AF92BF92CF92DF92EF92FF9206
:1004E0000F931F93CF93DF936C017B018B01040F5C
:1004F000151FEB015E01AE18BF08C017D10759F0F8
:100500006991D601ED91FC910190F081E02DC60139
:100510000995892B79F7C501DF91CF911F910F9133
:10052000FF90EF90DF90CF90BF90AF900895FC01C7
:10053000538D448D252F30E0842F90E0821B930B48
:10054000541710F0CF96089501970895FC01918DEE
:10055000828D981761F0A28DAE0FBF2FB11D5D96F1
:100560008C91928D9F5F9F73928F90E008958FEF93
:100570009FEF0895FC01918D828D981731F0828D47
:10058000E80FF11D858D90E008958FEF9FEF08959E
:10059000FC01918D228D892F90E0805C9F4F821B02
:1005A00091098F73992708958FED91E00E94C802F9
:1005B00021E0892B09F420E0822F089580E090E06B
:1005C000892B29F00E94D40281110C940000089517
:1005D000FC01A48DA80FB92FB11DA35ABF4F2C91B8
:1005E000848D90E001968F739927848FA689B789AF
:1005F0002C93A089B1898C91837080648C93938DA6
:10060000848D981306C00288F389E02D80818F7D48
:1006100080830895EF92FF920F931F93CF93DF9300
:10062000EC0181E0888F9B8D8C8D98131AC0E8892E
:10063000F989808185FF15C09FB7F894EE89FF89FD
:100640006083E889F98980818370806480839FBF9B
:1006500081E090E0DF91CF911F910F91FF90EF909B
:100660000895F62E0B8D10E00F5F1F4F0F731127AB
:10067000E02E8C8D8E110CC00FB607FCFACFE889E6
:10068000F989808185FFF5CFCE010E94E802F1CF84
:10069000EB8DEC0FFD2FF11DE35AFF4FF0829FB75A
:1006A000F8940B8FEA89FB8980818062CFCF0F930A
:1006B0001F93CF93DF938C01D0E0C0E0F801EC0FE3
:1006C000FD1F6491662341F08FED91E00E940A03C3
:1006D000892B11F02196F2CFCE01DF91CF911F919E
:1006E0000F910895CF93DF93EC01888D8823B9F0A3
:1006F000AA89BB89E889F9898C9185FD03C080812D
:1007000086FD0DC00FB607FCF7CF8C9185FFF2CFA9
:10071000808185FFEDCFCE010E94E802E9CFDF9115
:10072000CF9108952091CC013091CD012817390740
:1007300071F49091CA018091CB01981741F0E0913A
:10074000CA01F0E0E657FE4F808190E008958FEFF8
:100750009FEF08950895EF92FF920F931F93CF9309
:10076000DF93DC015E968D919C915F97009779F401
:1007700081E090E013969C938E93129790E080E036
:10078000DF91CF911F910F91FF90EF9008955396B5
:10079000ED91FC91549752962C915297322F3095AF
:1007A0001FB790964C919097042F027041FD609571
:1007B000F8944081002309F44CC0422B4083EC01A3
:1007C0002197F1F71F961C921F9748E0E62EF12C17
:1007D000508160FF40C0522B50831F965C911F9741
:1007E0005F5F1F965C931F97EC012197F1F7B701AC
:1007F00075956795415051F71E964C911E97411182
:100800000BC01F964C911F9740FF28C04081432387
:100810004083EC012197F1F71E964C911E974230D0
:1008200051F41F964C911F9740FF1BC04081422BF3
:1008300040830197F1F780810023B1F038233083A2
:100840001FBF5E968D919C910197F1F781E090E03A
:1008500097CF4323B3CF53235083C6CF4081422B3E
:10086000D7CF40814323E4CF282B2083E9CF2091A9
:10087000CC013091CD012817390771F48091CB015B
:100880002091CA0190E0805C9F4F821B910960E437
:1008900070E00E94B011089590E080E008952091EA
:1008A000CC013091CD0128173907B9F49091CA01D4
:1008B0008091CB01981789F0E091CA01F0E0E657EA
:1008C000FE4F80812091CA0130E02F5F3F4F2F7390
:1008D00033272093CA0190E008958FEF9FEF08958A
:1008E00090E080E008952F923F925F926F927F9206
:1008F0008F929F92AF92BF92CF92DF92EF92FF9230
:100900000F931F93CF93DF9300D000D0CDB7DEB706
:10091000DC014831510509F467C0D8F44031510574
:10092000F9F01C928FEF0F900F900F900F90DF91C6
:10093000CF911F910F91FF90EF90DF90CF90BF90DC
:10094000AF909F908F907F906F905F903F902F908F
:1009500008954032510509F44AC04038510509F75D
:100960008AE08C9340E150E06C9063946294F0EFE5
:100970006F22942E8D010D5F1F4FCB017801242F24
:10098000FC013081F7013083FC013181F7013183B3
:10099000FC013281F7013283FC013381F70133839B
:1009A00024500496F4E0EF0EF11C243048F78CEF4D
:1009B000890D982F96959695292F30E02F5F3F4F00
:1009C000220F331F220F331F990F990F891B620FBC
:1009D000731F200F311F815060F0FB019191BF0107
:1009E000F90191939F01F7CF8CE08C93BDCF8EE0FE
:1009F000FCCF892D892C91E06E01F5E0CF0ED11C42
:100A00002BE1722E861508F069C0E82EF12CF70153
:100A100031975F01AA0EBB1EBE016F5F7F4F9B0126
:100A2000F50111915F01F90111939F01EC15FD058D
:100A3000B9F788123CC01981890CEA81F0E0EA5FBD
:100A4000FC4FE491E927E983EB81F0E0EA5FFC4F9A
:100A5000E491EA83EC81F0E0EA5FFC4FE491EB8300
:100A6000E12FF0E0EA5FFC4FE491EC8397FF1DC0BB
:100A7000990F9725F70133961F012A0E3B1E082F69
:100A8000091910E0FB015190BF015101AE18BF08D8
:100A9000A00EB11EF501B080B524F101B1921F0185
:100AA0006217730779F78C5FADCF990FE3CF4032B0
:100AB000510501F7E82FEF71E031E1F68B01F80104
:100AC000B1908F01EB2DF0E0EA5FFC4FB490F8019C
:100AD0003197B0820217130791F7CCCF80E023CF74
:100AE000CF93DF93FC01EB01DA019C01205F3F4FC4
:100AF00088819C9189278083898111969C91119787
:100B0000892781838A8112969C91129789278283F3
:100B10008B8113969C91139789278383349624960F
:100B20001496E217F30721F7DF91CF9108952F92E2
:100B30003F924F925F926F927F928F929F92AF926D
:100B4000BF92CF92DF92EF92FF920F931F93CF93BA
:100B5000DF93CDB7DEB7A0970FB6F894DEBF0FBE18
:100B6000CDBFFC012081222309F411C15A016C017F
:100B70007C01F3E0EF0EF11C8E010F5E1F4FA70109
:100B8000C8010E947005992493949BE1892EF60177
:100B90008081981608F073C0A801DE0111968FE0DD
:100BA000782E3AE085E0BD01F801E80FF11D4080A4
:100BB0008C5F8F70F801E30FF11D50803C5F3F7038
:100BC000F801E70DF11D208194E0970D9F70792EBB
:100BD000FA019081E92FF0E0EA5FFC4F6490E42D88
:100BE000F0E0EA5FFC4F4490E52DF0E0EA5FFC4F57
:100BF0009491E22FF0E0EA5FFC4F2491562C550CC3
:100C000067FC5824242C220C47FE04C0342C330CDF
:100C1000232C2824E92FEE0F97FDE825F22FFF0F54
:100C200027FDF825342C39263226352432243C92EF
:100C3000362C3926322632243E2611963C921197C4
:100C4000642426252E272F2712962C93129796255B
:100C500095259F2713969C9313974C5F5F4F14968F
:100C60000A171B0709F0A0CFF0E19F9EA0011124F5
:100C70004E0D5F1DC8010E947005939488CFE989CD
:100C8000F0E0EA5FFC4FE491E98BED89F0E0EA5F88
:100C9000FC4FE491ED8BE98DF0E0EA5FFC4FE491CD
:100CA000E98FED8DF0E0EA5FFC4FE491ED8F8A89EA
:100CB000EE89F0E0EA5FFC4FE491EA8BEA8DF0E028
:100CC000EA5FFC4FE491EE8BEE8DF0E0EA5FFC4FC3
:100CD000E491EA8FE82FF0E0EA5FFC4FE491EE8FB9
:100CE0008B89EB8DF0E0EA5FFC4FE491EB8BE82F12
:100CF000F0E0EA5FFC4FE491EB8F8F89EF8DF0E03D
:100D0000EA5FFC4FE491EF8BE82FF0E0EA5FFC4FE5
:100D1000E491EF8F88A1EC8DF0E0EA5FFC4FE49165
:100D2000E8A3E88DF0E0EA5FFC4FE491EC8FEC89FA
:100D3000F0E0EA5FFC4FE491E88FE82FF0E0EA5F33
:100D4000FC4FE491EC8B80E1989EA00111244E0DA4
:100D50005F1DB801C5010E94700580E0A0960FB626
:100D6000F894DEBF0FBECDBFDF91CF911F910F91E1
:100D7000FF90EF90DF90CF90BF90AF909F908F90BB
:100D80007F906F905F904F903F902F9008958FEFDE
:100D9000E5CF1F93CF93DF93CDB7DEB7A1970FB603
:100DA000F894DEBF0FBECDBF182F803120F48AE843
:100DB00091E00E945703812F90E0B0E0A0E019A2DB
:100DC000FE01B196AC01BD014F705527662777270C
:100DD00024E0B695A795979587952A95D1F74A303F
:100DE0001CF5405D42930097A105B10559F7309776
:100DF00069F0DF010D900020E9F71197AD014E1B5E
:100E00005F0BBF018FED91E00E946A0288E891E0DC
:100E10000E945703A1960FB6F894DEBF0FBECDBF58
:100E2000DF91CF911F910895495CDCCF42E050E003
:100E30006BE271E08FED91E00C946A02CF93DF9347
:100E40000E945703EC010E9416078C0F9D1FDF9133
:100E5000CF910895EF92FF920F931F93CF93DF935B
:100E6000EC017B01AB01BC018CE792E00E946A02BD
:100E70008CE891E00E9457038E01F80181918F0167
:100E80000E94C906C8018C1B9D0B8E159F05A8F3F7
:100E9000DF91CF911F910F91FF90EF900C94160767
:100EA000CF93DF93CDB7DEB7A0970FB6F894DEBF30
:100EB0000FBECDBFDC01198AFE017296CE014196AC
:100EC0009E012F5D3F4F1192E217F307E1F7198260
:100ED00024E02A8328E02B832CE02C8321E02D833F
:100EE00025E02E8329E02F832DE0288722E0298723
:100EF00026E02A872AE02B872EE02C8723E02D8707
:100F000027E02E872BE02F872FE0288BBE016F5F15
:100F10007F4FAC01FB012191BF012A0F3B2F311DF7
:100F2000F9012081FA012193AF018617970791F704
:100F300090E1FE01719601900D929A95E1F7A096CD
:100F40000FB6F894DEBF0FBECDBFDF91CF910895ED
:100F5000693009F458C0A0F46330E1F140F4613025
:100F6000A1F168F140E150E068E870E02CC0653024
:100F7000D9F1A8F16630E9F1683009F43FC008956D
:100F80006F3209F459C060F46B3009F446C008F4BC
:100F90003FC06C3009F446C06D3009F448C0089574
:100FA000633B09F453C020F4673909F44AC008953B
:100FB000693D09F450C06B3E09F452C0089540E108
:100FC00050E068E670E00C94A71140E150E068E75B
:100FD00070E0F9CF40E150E068E970E0F4CF40E123
:100FE00050E068EA70E0EFCF40E150E068EB70E07D
:100FF000EACF40E150E068EC70E0E5CF40E150E03E
:1010000068ED70E0E0CF40E150E068EE70E0DBCFEB
:1010100040E150E068EF70E0D6CF40E150E068E09A
:1010200071E0D1CF40E150E068E171E0CCCF40E128
:1010300050E068E271E0C7CF40E150E068E371E062
:10104000C2CF40E150E068E471E0BDCF40E150E044
:1010500068E571E0B8CF40E150E068E671E0B3CFF9
:1010600040E150E068E771E0AECF2F923F924F929F
:101070005F926F927F928F929F92AF92BF92CF9228
:10108000DF92EF92FF920F931F93CF93DF93CDB731
:10109000DEB7CD53D2400FB6F894DEBF0FBECDBF42
:1010A0006DB67EB68CE792E00E94370404970CF48C
:1010B000DFC08CE792E00E944F04182F80938601D6
:1010C0008CEF92E00E945703812F0E94C906809105
:1010D00086018A3509F03FC08CE792E00E944F04F8
:1010E000182F809387018CE792E00E944F04809331
:1010F0008801812F0E94C906809188010E94C9063B
:1011000000918701023051F51092850110928401FF
:101110008CE792E00E944F04809389010E94C906E7
:101120000E94160710918801193009F4EDC408F0E7
:101130006CC0133009F4D9C408F054C0113009F45C
:1011400007C1123009F4E5C484E992E00E94570314
:10115000812F0E94C9060E9416078AC010E07801FC
:1011600022E0E21AF108F0928501E0928401015038
:101170001109A3E2CA2ED12C8CE792E00E94370419
:101180008017910784F00CE611E0C8018C5691405D
:101190008E159F0564F48CE792E00E944F04F801DD
:1011A00081938F01F2CFC6010197F1F7E5CF89EF67
:1011B00092E00E9457030CE611E0209184013091E7
:1011C0008501C8018C5691408217930734F4F801C9
:1011D00081918F010E94C906F0CF86EF92E00E94B4
:1011E000570396CF173009F485C408F0A8C446E029
:1011F00050E06CEC72E0143009F0A6CF84E591E089
:101200000E94A71166E070E0ADC01D3009F48CC4E7
:1012100008F08BC01B3009F472C41C3009F094CF65
:10122000AEECB1E064E571E025ED31E0CB014D912C
:10123000FC014193CF012A173B07C9F72BE531E0A9
:1012400090E080E0FB014191BF01840F911D2E17BA
:101250003F07C1F78095898367E070E084E591E0FE
:101260000E942A0761E070E0CE0101960E942A07E1
:10127000E7E5F1E087E691E011928E179F07E1F72D
:101280008091000140E4849FC0011124816080931B
:101290007C0080917A00806480937A0080917A004B
:1012A00086FDFCCF80917800909179008C3F93402F
:1012B0000CF04AC42FB7F8948091DB019091DC01C7
:1012C000A091DD01B091DE012FBF40913F0150910F
:1012D00040016091410170914201841B950BA60B66
:1012E000B70B8B3F9105A105B10508F44EC42FB78C
:1012F000F8948091DB019091DC01A091DD01B09127
:10130000DE012FBF80933F0190934001A0934101E4
:10131000B093420180913E0191E0892780933E0184
:10132000882309F451C42B9A30C41038F1F01138D5
:1013300009F47BC2163109F007CF45E150E067EBB5
:1013400072E084E591E00E94A71165E170E00AC0B7
:1013500047E050E06FEE72E084E591E00E94A71153
:1013600067E070E084E591E081CFC35CDD4F1882D7
:10137000CD53D240EDB6FEB660916C01609353013F
:101380008E01035D1D4F80E1F80111928A95E9F706
:10139000C8010E94A80785EA8093540182E18093E6
:1013A000550186E080935601F8018081811130C09B
:1013B0008EE092E00E941E07E7E5F1E087E691E00B
:1013C0002FEF21938E179F07E1F70FB6F894FEBE1B
:1013D0000FBEEDBEE4E5F1E027E631E090E080E00D
:1013E0004191840F911D2E173F07D1F78095C35C63
:1013F000DD4F8883CD53D24063E170E084E591E016
:101400000E942A0761E070E0CE01835C9D4F2ECFE1
:1014100080918401909185019C01215031094DB743
:101420005EB7421B530B0FB6F8945EBF0FBE4DBFA5
:101430000DB71EB70F5F1F4FEDB7FEB71182329683
:101440002250310937FF0DC0D801ECE6F1E03196AA
:101450009F012C563140281739073CF420812D93E9
:10146000F6CF119221503109EDCF20915301CE01D9
:10147000019638E0FC0111923A95E9F7283009F419
:10148000B6C108F08CC1233009F4A2C108F07AC1BA
:1014900048E050E06EE971E0213051F048E050E062
:1014A00066E971E0223020F048E050E066EA71E041
:1014B0000E94A7118981C35EDD4F8883CD51D24040
:1014C0008A81CF5DDD4F8883C152D2408B81CB5D55
:1014D000DD4F8883C552D2408C81C75DDD4F888344
:1014E000C952D2408D81C25EDD4F8883CE51D24039
:1014F0008E81CE5DDD4F8883C252D2408F81CA5D1E
:10150000DD4F8883C652D2408885C65DDD4F888313
:10151000CA52D240F8018081C15EDD4F8883CF512D
:10152000D2408181CD5DDD4F8883C352D24082811C
:10153000C95DDD4F8883C752D2408381C55DDD4FD1
:101540008883CB52D2408481C05EDD4F8883C052F5
:10155000D2408581CC5DDD4F8883C452D2408681E4
:10156000C85DDD4F8883C852D2408781C45DDD4F9E
:101570008883CC52D240CE01835E9D4F0E9450079B
:1015800092E8292EC250DE4F2882CE5FD14024E857
:10159000322EC150DE4F3882CF5FD14038E8432E23
:1015A000C050DE4F4882C050D2401FE9CF5FDD4FB0
:1015B0001883C150D24042E9542ECE5FDD4F58828D
:1015C000C250D24054E9852ECD5FDD4F8882C35092
:1015D000D24068E9962ECC5FDD4F9882C450D2404D
:1015E000CB5FDD4F1883C550D24072EAA72ECA5F89
:1015F000DD4FA882C650D240E4EABE2EC95FDD4F5F
:10160000B882C750D24008EAC85FDD4F0883C8508F
:10161000D240FFEAC75FDD4FF883C950D24022EBCA
:10162000C65FDD4F2883CA50D24044EBC55FDD4F13
:101630004883CB50D24058EBC45FDD4F5883CC5029
:10164000D240F6E0CF2ED12CC85FDE4FD982C882BF
:10165000C850D14040E150E0BE01635D7D4FCE01F6
:10166000895F9E4F0E9473044EE251E0BE01635EAB
:101670007D4FCE01895F9E4F0E94970580E1EEE28B
:10168000F1E0DE01A35FBD4F01900D928A95E1F775
:10169000C850DF4F2882C85FD040C750DF4F388224
:1016A000C95FD040C650DF4F4882CA5FD040C550A6
:1016B000DF4F1883CB5FD040C450DF4F5882CC5FE0
:1016C000D040C350DF4F8882CD5FD040C250DF4F43
:1016D0009882CE5FD040C150DF4F1883CF5FD0409B
:1016E000C050DF4FA882C050D140CF5FDE4FB882DC
:1016F000C150D140CE5FDE4F0883C250D1408FEA47
:10170000CD5FDE4F8883C350D140E2EBCC5FDE4F2C
:10171000E883C450D140F4EBCB5FDE4FF883C55073
:10172000D14028EBCA5FDE4F2883C650D140DB8210
:10173000CA8240E150E0BE01635D7D4FCE0101965B
:101740000E94730443E451E0BE01635F7D4FCE010C
:1017500001960E94970583E491E00E94500788E07B
:10176000EEE2F1E0A7E5B1E001900D928A95E1F794
:1017700088E0E3E4F1E0AFE5B1E001900D928A95F5
:10178000E1F723CE253071F140F148E050E066ECFE
:1017900071E0263009F48CCE0E947A128BCE273964
:1017A000A9F158F42D3041F12F3259F12A30A1F727
:1017B00048E050E066ED71E07BCE293D61F12B3EC3
:1017C00079F1233B49F748E050E066EF71E070CED5
:1017D00048E050E06EEA71E06BCE48E050E066EB26
:1017E00071E066CE48E050E06EEB71E061CE48E01B
:1017F00050E06EEC71E05CCE48E050E06EED71E0E0
:1018000057CE48E050E066EE71E052CE48E050E03E
:101810006EEE71E04DCE48E050E06EEF71E048CEE4
:1018200048E050E066E072E043CE85EA80935401E0
:1018300082E18093550186E0809356017E0149EF55
:10184000E41A4EEFF40A80E1F70111928A95E9F764
:10185000809153018E010F5F1F4F98E0F8011192A4
:101860009A95E9F7883009F422C108F0F8C083306E
:1018700009F40EC108F0E5C048E050E064E272E00F
:10188000813051F048E050E06CE172E0823020F0AD
:1018900048E050E06CE272E0C8010E94A71180911C
:1018A0004301F70180838091440184838091450145
:1018B0008087809146018487809147018183809150
:1018C0004801858380914901818780914A018587FC
:1018D000898182838A8186838B8182878C818687B6
:1018E0008D8183838E8187838F8183878885878796
:1018F000C7010E9450074E01F3EF8F1AFDEF9F0AB8
:1019000080E1582EF401252D11922A95E9F7609176
:101910005301C4010E94A80782E8C850DF4F8883A2
:10192000C85FD04084E8C750DF4F8883C95FD0408C
:1019300088E8C650DF4F8883CA5FD0408FE9C55022
:10194000DF4F8883CB5FD04092E9C450DF4F98834C
:10195000CC5FD04094E9C350DF4F9883CD5FD04037
:1019600098E9C250DF4F9883CE5FD040C150DF4F1F
:101970008883CF5FD04082EAC050DF4F8883C05059
:10198000D14084EACF5FDE4F8883C150D14088EADE
:10199000CE5FDE4F8883C250D1408FEACD5FDE4FED
:1019A0008883C350D14082EBCC5FDE4F8883C45024
:1019B000D14084EBCB5FDE4F8883C550D14088EBAC
:1019C000CA5FDE4F8883C650D14086E090E09B839B
:1019D0008A835E0143EEA41A4DEFB40AF501252D6A
:1019E00011922A95E9F76E0143EDC41A4DEFD40A1E
:1019F000F601252D11922A95E9F740E850E0B4014F
:101A0000C8010E947304A501B701C8010E9497058F
:101A1000A601B501C8010E949705F601A7E5B1E04E
:101A200001900D925A94E1F7E4E5F1E027E631E008
:101A300090E080E04191840F911D2E173F07D1F770
:101A4000D5CC853079F148F148E050E06CE472E0A3
:101A5000863009F421CFC8010E947A1220CF87393D
:101A6000A9F158F48D3041F18F3259F18A3099F74C
:101A700048E050E06CE572E00FCF893D61F18B3EAC
:101A800079F1833B41F748E050E06CE772E004CF26
:101A900048E050E064E372E0FFCE48E050E06CE3E1
:101AA00072E0FACE48E050E064E472E0F5CE48E03F
:101AB00050E064E572E0F0CE48E050E064E672E0A9
:101AC000EBCE48E050E06CE672E0E6CE48E050E055
:101AD00064E772E0E1CE48E050E064E872E0DCCE1A
:101AE00048E050E06CE872E0D7CE46E050E069EEA6
:101AF00072E084CB46E050E063EE72E07FCB46E0DC
:101B000050E06DED72E07ACB46E050E067ED72E0B8
:101B100075CB45E050E062ED72E084E591E00E9413
:101B2000A71165E070E01ECC49E050E06EEA72E07B
:101B300084E591E00E94A71169E070E013CC46E0D3
:101B400050E068EA72E05ACB8091D1018F3FE1F515
:101B50002FB7F8948091DB019091DC01A091DD0119
:101B6000B091DE012FBF40913F0150914001609143
:101B7000410170914201841B950BA60BB70B893E66
:101B80009340A105B10508F0B2CB0FB6F8947EBE24
:101B90000FBE6DBEC35CDD4F0FB6F894DEBF0FBE47
:101BA000CDBFDF91CF911F910F91FF90EF90DF900C
:101BB000CF90BF90AF909F908F907F906F905F90ED
:101BC0004F903F902F9008952B98DFCF1F920F9248
:101BD0000FB60F9211242F933F938F939F93AF9340
:101BE000BF938091DB019091DC01A091DD01B09168
:101BF000DE013091DA0123E0230F2D3758F50196ED
:101C0000A11DB11D2093DA018093DB019093DC01CB
:101C1000A093DD01B093DE018091D6019091D701B0
:101C2000A091D801B091D9010196A11DB11D809359
:101C3000D6019093D701A093D801B093D901BF9159
:101C4000AF919F918F913F912F910F900FBE0F9069
:101C50001F90189526E8230F0296A11DB11DD2CF23
:101C60001F920F920FB60F9211242F933F934F9311
:101C70005F936F937F938F939F93AF93BF93EF93F4
:101C8000FF938FED91E00E94E802FF91EF91BF91E9
:101C9000AF919F918F917F916F915F914F913F9104
:101CA0002F910F900FBE0F901F9018951F920F92BB
:101CB0000FB60F9211242F938F939F93EF93FF935F
:101CC000E091EF01F091F0018081E091F501F09158
:101CD000F60182FD1BC090818091F8018F5F8F73A8
:101CE0002091F901821741F0E091F801F0E0E15212
:101CF000FE4F958F8093F801FF91EF919F918F9107
:101D00002F910F900FBE0F901F9018958081F4CFE8
:101D10001F920F920FB60F9211242F933F934F9360
:101D20005F936F937F938F939F93AF93BF93EF9343
:101D3000FF93E091CC01F091CD01309749F0A0895B
:101D4000B189858590A191FF14C09C918923A1F44C
:101D5000FF91EF91BF91AF919F918F917F916F9183
:101D60005F914F913F912F910F900FBE0F901F9059
:101D700018959C91892361F7A589B6899C918789DB
:101D8000809589238C93808D918D0197F1F7628DD9
:101D9000738DA089B189558538E020E0CB0101978A
:101DA000F1F7822F90E095958795282F4C91452348
:101DB00009F02068315091F780A181FD2095809134
:101DC000CB0190E001968F7399273091CA013817A3
:101DD00099F0A091CB01B0E0A657BE4F2C93809311
:101DE000CB01848D958D0197F1F7A589B6898C91EA
:101DF0009789892B8C93ACCF80A1816080A3F1CF90
:101E000090E0FC01EF5DFB4F2491FC01E959FB4F91
:101E10003491FC01ED5AFB4FE491EE23C9F02223EB
:101E200039F0233001F1A8F4213019F1223029F1E1
:101E3000F0E0EE0FFF1FE75BFB4FA591B4918FB76A
:101E4000F894EC91611126C030953E233C938FBFEE
:101E500008952730A9F02830C9F0243049F780913F
:101E600080008F7D03C0809180008F7780938000F9
:101E7000DFCF84B58F7784BDDBCF84B58F7DFBCF7B
:101E80008091B0008F778093B000D2CF8091B00066
:101E90008F7DF9CF3E2BDACF0F931F93CF93DF9334
:101EA0001092E2011092E10188EE93E0A0E0B0E030
:101EB0008093E3019093E401A093E501B093E601E0
:101EC0002BE031E03093E0012093DF0125EC30E09E
:101ED0003093EC012093EB0124EC30E03093EE01E1
:101EE0002093ED0120EC30E03093F0012093EF01DE
:101EF00021EC30E03093F2012093F10122EC30E04C
:101F00003093F4012093F30126EC30E03093F60196
:101F10002093F5011092F8011092F9011092FA0144
:101F20001092FB0110927F0210927E028093800239
:101F300090938102A0938202B09383028DE191E09D
:101F400090937D0280937C021092950210929402ED
:101F50001092970210929602109299021092980293
:101F600010929B0210929A0260919C026E7F6D7F8C
:101F700060939C026695617081E0682783E00E940F
:101F8000000F4AE654E0FA01649186E594E0FC0112
:101F90002491222399F030E0220F331FF901E15CF4
:101FA000FB4FA591B491F901E75BFB4F259134916B
:101FB0002FB7F8943C91632B6C932FBFFA01449197
:101FC00040938E02FC018491E82FF0E0EE0FFF1F9A
:101FD000E75BFB4F859194919093900280938F02E1
:101FE00009E614E0F8012491C5E5D4E0FE018491EE
:101FF0008823C9F090E0880F991FFC01E15CFB4F3A
:10200000A591B491FC01E75BFB4F459154913FB71B
:10201000F8949C91822F809598239C93FA0190814B
:10202000892380833FBF80919C0281FD04C061E0D1
:1020300082E00E94000F82E080938802F801049100
:1020400000938902FE01C491EC2FF0E0EE0FFF1F18
:10205000EB5CFB4F8591949190938D0280938C0261
:10206000DF91CF911F910F910895789484B582608C
:1020700084BD84B5816084BD85B5826085BD85B52C
:10208000816085BD80916E00816080936E001092AA
:102090008100809181008260809381008091810025
:1020A00081608093810080918000816080938000B6
:1020B0008091B10084608093B1008091B000816014
:1020C0008093B00080917A00846080937A00809140
:1020D0007A00826080937A0080917A008160809398
:1020E0007A0080917A00806880937A001092C10013
:1020F00010929902109298021092970210929602F2
:10210000109295021092940282E080938A028DECE4
:1021100090E090939B0280939A029091880296316E
:1021200008F047C025E530E03093950220939402F3
:102130002BEC30E030939702209396022CE231E0B2
:1021400030939902209398022091680084E098309F
:1021500048F031E09E3008F430E081E001C0880FA3
:102160003A95EAF7822B809368002DE630E09830AC
:1021700050F02BE630E09E3030F02CE630E0963127
:1021800010F030E020E03093920220939102292F4A
:1021900030E0983008F09DC081E001C0880F9A952A
:1021A000EAF78093930280919A0290919B020197A3
:1021B000F1F78091980290919902892B49F1E09171
:1021C000CC01F091CD0182E0EC37F80709F13097AE
:1021D00039F0A589B6899C918789809589238C934C
:1021E00080919C028E7F80939C021092CB01109272
:1021F000CA018CE792E09093CD018093CC01E091ED
:102200009102F0919202808190919302892B8083B8
:1022100083E080930001E091EF01F091F00182E012
:102220008083E091EB01F091EC011082E091ED01EF
:10223000F091EE0180E180831092F701E091F301CB
:10224000F091F40186E08083E091F101F091F201D8
:10225000908190619083E091F101F091F201908181
:1022600098609083E091F101F091F2019081906883
:102270009083E091F101F091F20190819F7D908334
:102280005798239A2B9A95EA4F9B30C09093CE0192
:102290008093CF018093D0018FEF8093D101809301
:1022A000D2018093D3018093D40182E58093D5013C
:1022B00086E094E00E941E07C0E0D0E00E9435084E
:1022C0002097E1F30E94D4028823C1F30E9400000A
:1022D000F5CF9E3040F42850310981E001C0880FCD
:1022E0002A95EAF75ECF2E503109F7CF9093CE01B1
:1022F0008093CF018093D00186E58093D101109225
:10230000D2011092D3011092D4018EE48093D501B2
:1023100084E194E0CFCF8DE191E090937D028093B2
:102320007C028091CC019091CD018C57924071F448
:10233000E0919102F09192029081809193028095B8
:10234000892380831092CD011092CC010895FB0166
:10235000DC0102C005900D9241505040D8F708951D
:1023600097FB072E16F4009407D077FD09D00E9442
:10237000C41107FC05D03EF4909581959F4F0895B8
:10238000709561957F4F0895AA1BBB1B51E107C053
:10239000AA1FBB1FA617B70710F0A61BB70B881FF5
:1023A000991F5A95A9F780959095BC01CD01089584
:1023B000EE0FFF1F0590F491E02D09940F931F93EA
:1023C000CF93DF938230910510F482E090E0E091AA
:1023D0009F02F091A00230E020E0B0E0A0E0309752
:1023E00099F42115310509F44AC0281B390B243012
:1023F0003105D8F58A819B816115710589F1FB0151
:1024000093838283FE0111C0408151810281138137
:1024100048175907E0F04817590799F4109761F0E9
:1024200012960C93129713961C933296CF01DF915C
:10243000CF911F910F91089500939F021093A002D6
:10244000F4CF2115310551F04217530738F0A90197
:10245000DB019A01BD01DF01F801C1CFEF01F9CF26
:102460009093A00280939F02CDCFFE01E20FF31F55
:10247000819391932250310939832883D7CF2091BA
:102480009D0230919E02232B41F420910301309153
:10249000040130939E0220939D022091010130910E
:1024A00002012115310541F42DB73EB740910501D8
:1024B00050910601241B350BE0919D02F0919E0284
:1024C000E217F307A0F42E1B3F0B2817390778F00B
:1024D000AC014E5F5F4F2417350748F04E0F5F1F6A
:1024E00050939E0240939D02819391939FCFF0E081
:1024F000E0E09CCFCF93DF930097E9F0FC013297A7
:1025000013821282A0919F02B091A002ED0130E0EF
:1025100020E01097A1F420813181820F931F209138
:102520009D0230919E022817390709F061C0F0938F
:102530009E02E0939D02DF91CF910895EA01CE17AC
:10254000DF07E8F54A815B819E0141155105B1F72E
:10255000E901FB83EA8349915991C40FD51FEC1718
:10256000FD0761F4808191810296840F951FE90136
:1025700099838883828193819B838A83F0E0E0E062
:1025800012968D919C9113970097B9F52D913C91DE
:102590001197CD010296820F931F20919D023091D9
:1025A0009E022817390739F6309751F51092A0028C
:1025B00010929F02B0939E02A0939D02BCCFD38342
:1025C000C28340815181840F951FC817D90761F4D8
:1025D0004E5F5F4F88819981480F591F5183408317
:1025E0008A819B81938382832115310509F0B0CFC5
:1025F000F093A002E0939F029ECFFD01DC01C0CFCB
:1026000013821282D7CF12E0CFE3D2E004C0FE01E2
:102610000E94D8112196C034D107C9F7F894FFCF92
:10262000010000A1028000000000000A036A029776
:10263000027203C802A602BA0200000000AB036ADD
:0E264000027004AA0337044F0492030D0A002F
:00000001FF
